:100000000C94A1030C94E8030C94E8030C94E8030B
:100010000C94E8030C94E8030C94E8030C94E803B4
:100020000C94E8030C94E8030C94FD240C94CF2565
:100030000C94431B0C94E8030C94E8030C94E80321
:100040000C94E8030C94E8030C94E8030C94E80384
:100050000C94E8030C94AB1B0C94E8030C94E80399
:100060000C94E8030C94E8030C94E8030C94E80364
:100070000C94E8030C94E8030C94E8030C94E80354
:100080000C94E8030C94E8030C94E8030C94E80344
:100090000C94E8030C94E8030C94E8030C94E80334
:1000A0000C94E8030C94E8030C94E80359075B07ED
:1000B00066075D075F0761076307650768076A07EB
:1000C0006C0777076E077007720774077607790762
:1000D000041104113E113E117311931100133C13CE
:1000E000D5113C1385128512F8123C133C133713BB
:1000F00092129212921292129212921292129212E0
:1001000092129212921292129212921292129212CF
:10011000A412B112B812BF12C912C713C713D91350
:10012000D913D013D913D913D913C713C713D513A0
:10013000D913D913D5133C265E264C275E264C27AF
:10014000A326C6264C271B272E27636F6D6D697467
:1001500020006572676F646F782F617665727269CF
:100160006E204020302E352E35342D332D676337E9
:10017000623362380001E30116021602E374FF7471
:10018000FF74FF74FF74FF01E00117021702E00023
:10019000751901E10111021102E101250225011584
:1001A0000215012502250119021901040204011595
:1001B0000215010C020C01E10111021102E10125FD
:1001C0000225012802280075190104020401140205
:1001D00014011A021A01080208011502150116027B
:1001E0001601070207010902090128022800000080
:1001F000F0A135002B00E200E1001B0400001E000E
:10020000140004001D61E3004D001F001A001600D9
:100210001B00E0024C00200008000700060004015B
:100220002C42210015000900190029434A00220030
:1002300017000A0005000000010023000100000073
:10024000E600000001002200340000002E02000041
:10025000010023001C000B0011000000010024001D
:1002600018000D00100050004B0025000C000E007F
:10027000360051002C41260012000F0037005200BA
:10028000280027001300334138614F004E002D0035
:1002900000573000010001000000CE5C01000100A9
:1002A0000100010000003A001E022002220200307C
:1002B00001003B001F0221022302013001003C002B
:1002C0002F0226022F0001002A003D0030022702E3
:1002D0003000E00001003E002E022E00350200003A
:1002E00001000100310200002402000001000100B1
:1002F0001E0200003802000001003F00010034002F
:100300002D02000001004000240021001E00010019
:1003100001004100250022001F00370001004200BB
:1003200026002300200027000100430025020100D1
:1003300031002E00010044004500010001000100D1
:100340000000005CD05CBE5CC15CC05C00001E01B3
:10035000CF5C04080100010001001F011A080230EF
:10036000010001000100200106080E080100FE0046
:1003700001002101150119080B08FD0001002201EF
:100380000100070801000000010023010100000036
:100390000100000001002201010000000100000036
:1003A000010023010100F20001000000010024010E
:1003B000F900F100FA00A900010025014A00F0004F
:1003C000F600AA00F40026014D00F3000100A80089
:1003D000F500010001000601190101000100010002
:1003E0000100010001000100000035012B010100A6
:1003F000E101010000001E01140104011D010100C2
:1004000001001F011A0116011B010100010020015A
:100410000801070106010100010021011501090180
:10042000190101000100220117010A010501000064
:100430000100230101000000E6010000010022018B
:100440000100000001000000010023011C042A003B
:100450005100000001002401180128001001500182
:10046000010025010C010E01360151012C0126016C
:1004700012010F0137015201010001005200330146
:1004800038014F01010001002F0130010100E1019D
:10049000000000000000000000002A2B28000000DF
:1004A0000000000000000000000000000029000023
:1004B00000002C1E3420212224342627252E362D00
:1004C0003738271E1F202122232425263333362E9A
:1004D00037381F0405060708090A0B0C0D0E0F100C
:1004E0001112131415161718191A1B1C1D2F313051
:1004F000232D350405060708090A0B0C0D0E0F10F5
:100500001112131415161718191A1B1C1D2F313030
:10051000354C00000000000000000000000000005A
:1005200000000000000000000000000000000000CB
:1005300000000001010101010100010101010000B1
:1005400000000000000000000000000001000100A9
:10055000010101010101010101010101010101018B
:10056000010101010101010101010101010000007E
:100570000101000000000000000000000000000079
:100580000000000000000000000000000001010168
:10059000010016034500720067006F0044006F0001
:1005A0007800200045005A00000016034500720044
:1005B00067006F0044006F007800200045005A007B
:1005C00000000403090409026D00040100A0FA09F7
:1005D0000400000103010100092111010001224072
:1005E000000705810308000A090401000103010254
:1005F00000092111010001224D00070582030800B6
:100600000A09040200010300000009211101000190
:100610002236000705830308000A090403000103CA
:10062000000000092111010001223900070584039F
:100630002000011201100100000008EDFE07130167
:10064000000102000105010906A101050719E029C1
:10065000E715002501950875018102050819012992
:10066000059505750191029501750391010507191D
:100670000029F71500250195F875018102C00501D3
:100680000980A10185021601002603001A81002AB3
:100690008300751095018100C0050C0901A1018539
:1006A00003160100269C021A01002A9C027510956F
:1006B000018100C005010902A1010901A10005098C
:1006C000190129051500250195057501810295017E
:1006D000750381010501093009311581257F9502D6
:1006E0007508810609381581257F950175088106F1
:1006F000050C0A38021581257F950175088106C011
:10070000C005010906A101050719E029E715002523
:100710000195087501810295017508810105081987
:100720000129059505750191029501750391010552
:1007300007190029FF150026FF009506750881009E
:10074000C00011241FBECFEFDAE0DEBFCDBF04B67C
:1007500003FE27C08091760390917703A0917803E0
:10076000B09179038730904BA740B04BD1F41092F1
:10077000760310927703109278031092790314BED7
:1007800084B7877F84BF0FB6F894A89580916000E6
:10079000886180936000109260000FBEE0E0FFE38C
:1007A000099511E0A0E0B1E0EEE2F2E502C00590AB
:1007B0000D92A23FB107D9F723E0A2EFB1E001C04B
:1007C0001D92A637B207E1F70E942C220C9415293E
:1007D0000C9400001092B9008AE08093B80008954C
:1007E00094EA9093BC009091BC0097FFFCCF90914D
:1007F000B900987F983021F0903111F081E0089590
:100800008093BB0084E88093BC008091BC0087FF8C
:10081000FCCF8091B900887F883111F0803471F766
:1008200080E0089584E98093BC008091BC0084FD41
:10083000FCCF08958093BB0084E88093BC00809136
:10084000BC0087FFFCCF9091B900987F81E098327F
:1008500009F480E0089584E88093BC008091BC0096
:1008600087FFFCCF8091BB00089580B38C7080BB64
:1008700081B3836F81BB089580911701811115C0E9
:1008800080E40E94F0038093170181110CC082E183
:100890000E941A0480931701811105C08FEF0E94F6
:1008A0001A04809317010E94120484B1807F84B9D6
:1008B00085B1807F85B98AB1837F8AB98BB1837F07
:1008C0008BB93E984698089508950C94F7050E94B8
:1008D0005C0B809317010E943C040E94350423EFB7
:1008E00031E0E7E4F2E04EE04E0F119280E090E05C
:1008F000D901A80FB91F1C92019686309105C1F746
:100900002A5F3F4F4E13F1CF0C945F080E945C0B9F
:10091000809317010E943C040E943504E7E4F2E052
:100920008EE08E0F11928E13FDCF089526E0829FE8
:10093000C0011124FC01ED50FE4F20E030E080E0CA
:1009400041E050E09081992319F09150908307C0C5
:10095000BA01022E01C0660F0A94EAF7862B2F5FB8
:100960003F4F31962630310569F7089596E0699F2B
:10097000B001112420E030E090E04FE0FC01022EB5
:1009800002C0F595E7950A94E2F7E0FF06C0F90189
:10099000E60FF71FED50FE4F40832F5F3F4F26308D
:1009A000310561F70895AF92BF92CF92DF92EF9237
:1009B000FF920F931F93CF93DF93809117018823AA
:1009C00079F08091F2018F5F8093F201811108C06C
:1009D0000E945C0B80931701811102C00E94EE0AF5
:1009E00087E4E82E82E0F82E00E010E0CC24C394E7
:1009F000D12CAA24A394C02F0730110500F58091B3
:100A0000170181113CC080E40E94F003809317011C
:100A1000811112C082E10E941A0480931701811192
:100A20000BC0C601002E01C0880F0A94EAF780951A
:100A30000E941A04809317010E94120420C00A30F9
:100A4000A1F028F4083059F0093061F005C00C30ED
:100A500089F070F00D3089F0209A289810C0219A02
:100A600029980DC0229A2A980AC0239A2B9807C069
:100A7000529A01C0539A5B9802C03E9A469880EA07
:100A80008A95F1F78C2F0E949604D82F0730110514
:100A900018F580911701811144C080E40E94F00391
:100AA00080931701882311F0B12C12C083E10E94BA
:100AB0001A04809317018111F7CF81E40E94F0039B
:100AC000809317018111F0CF0E942B04B82EB094AF
:100AD0000E9412049B2D26C08FB181708A257999BE
:100AE00002C092E001C090E0892B7C9902C094E0A2
:100AF00001C090E0982B7D9902C038E001C030E041
:100B0000932B7E9902C020E101C020E0922B2FB1EF
:100B10002095221F2227221F2295220F207E922B12
:100B200001C090E0F70180819D23D095D823D92B77
:100B30006C2F8D270E94B604F701D1937F010E948C
:100B40003C040F5F1F4F0E30110509F054CF0E9477
:100B5000610881E0DF91CF911F910F91FF90EF909D
:100B6000DF90CF90BF90AF900895E82FF0E0E95B61
:100B7000FD4F808108950895FC01613051F018F017
:100B8000623069F012C08281882379F087EC91E0AD
:100B900008958281882349F080E991E00895828157
:100BA000882319F085E791E0089580E090E00895AA
:100BB0008E3C2CE5920789F020F48D3C9C4531F069
:100BC00003C0813D9C4588F081E00895FB0182814E
:100BD000882361F00E94C61A08C0FB018281882325
:100BE00029F082E591E00E94340880E00895609148
:100BF00002037091030380910403909105030E9406
:100C0000761A56985E9825982D9826982E982798AB
:100C10002F98823039F0833041F0813041F4259AA9
:100C20002D9A05C0269A2E9A02C0279A2F9A809153
:100C30006802882379F180916602909167020E9490
:100C4000811B893C910530F1109268020E949E0A36
:100C500080915C0290915D020697E1F480915E02C2
:100C600090915F02892BB1F48091600290916102B2
:100C7000892B81F48091620290916302892B51F457
:100C80008091640290916502892B21F48AE491E0BD
:100C90000C94340808950F931F93CF93DF939C0116
:100CA0003A9521153F4148F5EB018C0190FF03C0B7
:100CB00080EEFB01099511FF03C081EEFE0109954D
:100CC00012FF03C082EEFE01099513FF03C083EEFD
:100CD000FE0109950115104180F084EEFE01099591
:100CE00085EEFE01099586EEFE01099587EEFE016F
:100CF000DF91CF911F910F910994DF91CF911F91B7
:100D00000F910895877091E001C0990F8A95EAF7D5
:100D1000892F0E940D1A0C94471A877091E001C028
:100D2000990F8A95EAF7892F0E940D1A0C94471A99
:100D3000877091E001C0990F8A95EAF7892F0E9488
:100D4000131A0C94471A877091E001C0990F8A9585
:100D5000EAF7892F0E94131A0C94471ACF93DF9356
:100D6000EC01805E9109089710F0209719F46DE866
:100D700076E002C062E876E0CE010E944B068C2F3E
:100D8000DF91CF910C94970FCF93DF93EC010E94EA
:100D90006A10CE01805E9109089710F0209719F42F
:100DA00063EA76E002C068E976E0CE01DF91CF9198
:100DB0000C944B0681E008950C94D8050E94B5135D
:100DC0002FEF84E39CE0215080409040E1F700C089
:100DD00000000C94D11BFF920F931F93CF93DF93CE
:100DE0008C01FC01C081D18180919102811113C0DD
:100DF0008281882349F0CE010E94D618F82E682FF0
:100E0000CE010E94791804C0CE010E94A918F82EC4
:100E1000BE018F2D04C0CE010E94D618BE010E94D3
:100E20007808EC01B8010E94DC06882309F415C19A
:100E3000B801CE010E94310D882309F40EC1B8011A
:100E4000CE010E949F0A882309F407C1B801CE0190
:100E50000E94AB0B882309F400C1C531FCE5DF0714
:100E600008F07EC0C2308CE5D80708F452C0F80103
:100E70008281882309F459C00E94E01A811102C0BE
:100E80000E94C61A0E94F31A90E090936803809320
:100E90006703FE01E350FC45E231F10530F4EA5A04
:100EA000FF4F809167030C94C52880916703816090
:100EB00027C0826025C0846023C0806121C0806219
:100EC0001FC080641DC080681BC08460886018C01B
:100ED0008E7F16C08D7F14C08B7F12C08F7E10C096
:100EE0008F7D0EC08F7B0CC08F770AC08B7F877F72
:100EF00007C087FB222720F991E0922790FB87F912
:100F000080936703809167030E94F71A0E94B513CC
:100F1000A4C0C115ECE5DE0781F0C130DC45A9F0C5
:100F200081E08093590280935A02C801DF91CF91EA
:100F30001F910F91FF900C94DA06F80182818823AB
:100F400009F48BC00E94DE0688C0F80182818823E4
:100F500009F483C080912F03816080932F037DC0AB
:100F6000C73C8CE5D80781F5F8018281882361F0C0
:100F700010925A020E94751B909358028093570258
:100F800080E20E94B91069C00E94FA1981FF05C071
:100F900081E08093590280935A0280915A02811114
:100FA0000FC080915702909158020E94811B883C8B
:100FB000910530F487E20E94970F87E20E946A1041
:100FC00080E20E94C01049C0C83CECE5DE0780F515
:100FD000C63CDC4509F0A4CFF8018281882351F09A
:100FE000109259020E94751B9093560280935502ED
:100FF00082E0C7CF0E94FA1985FF05C081E0809387
:10100000590280935A028091590281110FC0809138
:101010005502909156020E94811B883C910530F444
:1010200086E20E94970F86E20E946A1082E0C9CF92
:10103000CA3C8CE5D80731F4F8018281882369F035
:1010400080E009C0CB3CDC4509F06ACFF801828121
:10105000882319F082E00E94C02280E0DF91CF91C6
:101060001F910F91FF9008950F931F93CF938C01C1
:10107000F80124912223F9F030E0F901EE56FB4FFC
:10108000C491F901EE5EFA4F2491222359F081EECA
:101090000E94970F8C2F0E94970F8C2F0E946A102E
:1010A00081EE04C08C2F0E94970F8C2F0E946A1033
:1010B0000F5F1F4FDDCFCF911F910F9108950C94BB
:1010C000460B0E94D20D0C946504282F882339F01A
:1010D00090E02A3010F44D9608950697089587E21F
:1010E00090E0089508950C9472080C947308089584
:1010F00096E0799FF001112494E5899FE00DF11DA0
:101100001124E60FF11DEE0FFF1FEE50FE4F8591EB
:1011100094910895880F991FFC01E251FE4F85912B
:10112000949108950E9478080E94200A811520E475
:101130009207B0F5811540E3940708F0DBC0803ECC
:101140009105D8F4803C910508F069C0883A910572
:1011500078F4853A910508F065C08130910509F46D
:101160006EC108F425C18430910508F068C120C122
:101170008D3B910508F461C01BC18F3F910509F0BB
:1011800048F4803F910508F0AFC0883E910508F40F
:1011900056C10EC1811560E2960708F0A7C00895F8
:1011A000811574E59707D8F4811523E5920708F0B7
:1011B000DDC0811541E5940740F4811560E596078F
:1011C00008F0A2C09F70906A0895811572E5970794
:1011D00008F0B6C0982F8827816F906A089581150E
:1011E00026E5920750F4811545E5940708F0D4C030
:1011F000982F8827846F906A0895811568E596076F
:1012000008F4D6C0811579E5970708F4CAC09C0197
:1012100030562115304208F0CBC09F71C7C0805CAA
:10122000910965C0853A910509F4C5C0863A9105D2
:1012300009F0C4C082E890E40895883A910509F461
:10124000C0C0893A910509F4BFC08A3A910509F4F2
:10125000BEC08B3A910509F4BDC08C3A910509F4E2
:10126000BCC08B3B910509F4BBC08C3B910509F4D4
:10127000BAC08D3A910509F4B9C0803B910509F4D3
:10128000B8C08E3A910509F4B7C08F3A910509F4B8
:10129000B6C0813B910509F4B5C0823B910509F4C4
:1012A000B4C0833B910509F4B3C0843B910509F4B4
:1012B000B2C0853B910509F4B1C0863B910509F4A4
:1012C000B0C0873B910509F4AFC0883B910509F494
:1012D000AEC0893B910509F4ADC08A3B910509F484
:1012E000ACC080E094E40895906508959F700E94DA
:1012F0008A0808959C01332793FF03C0C901986CA5
:101300000895C901906C0895482F437021E030E0A2
:1013100002C0220F331F4A95E2F73C68AC0164E03B
:10132000569547956A95E1F74370342B8F708695F3
:10133000869560E2869FC0011124822B932B08952D
:10134000482F4695469570E2479FA001112483706F
:10135000992721E030E0B90102C0660F771F8A9516
:10136000E2F7CB01842B952B9C680895482F469576
:10137000469570E2479FA00111248370992721E0D0
:1013800030E0B90102C0660F771F8A95E2F7CB0102
:10139000842B952B9A6808958F719927982F882709
:1013A00005C0982F8827806F906A089590620895ED
:1013B00080E090E0089581E890E4089583E890E467
:1013C000089582EE94E4089589EE94E408958AEEF7
:1013D00094E4089585EB94E4089586EB94E40895ED
:1013E00083EB94E4089584EB94E4089587EB94E40C
:1013F00008958CEC94E408958DEC94E4089583E8CA
:1014000095E408958AE895E4089582E995E40895BD
:1014100084E995E4089581E296E4089583E296E4F0
:10142000089584E296E4089585E296E4089586E2BC
:1014300096E4089587E296E408958AE296E4089592
:101440008238910549F1B0F48133910509F458C00F
:1014500048F48932910509F44EC08A32910509F4A5
:1014600054C008958533910509F440C0893391052E
:1014700099F00895833E910529F138F4803E910555
:1014800091F0823E9105A1F00895863E9105F9F014
:10149000873E910531F108952091670320FD3AC000
:1014A00021FD38C008958091670380FD35C032C0AA
:1014B0008091670382FF32C08091670384FD30C052
:1014C00083EE39C08091670382FD28C0F5CF8091FB
:1014D000670383FF27C08091670384FD21C087EEE7
:1014E0002AC08091670383FD1DC0F5CF80916703FB
:1014F00085FD1AC01BC08091670385FD17C014C00D
:101500008091670386FD14C015C08091670386FD36
:1015100011C00EC080EE0FC089E30DC082EE0BC07B
:1015200080E009C086EE07C089E205C085E303C0FC
:101530008AE201C081E390E00895089508950F9331
:101540001F93CF93FB012281211102C0C1E041C052
:101550008C01C0916802C11125C085319C45B1F74D
:101560000E949D0A81E0809368020E94751B9093FF
:1015700067028093660210925B0210925D021092E5
:101580005C0210925F0210925E0210926102109251
:101590006002109263021092620210926502109231
:1015A000640217C080916602909167020E94811BBD
:1015B000883C910558F690915B02E92FF0E0EE0F20
:1015C000FF1FE45AFD4F118300839F5F90935B02DE
:1015D000C0E08C2FCF911F910F91089556985E987F
:1015E00025982D9826982E9827982F988FEF90E081
:1015F000909389008093880090938B0080938A0059
:1016000090938D0080938C00259A2D9A2FEF80E780
:1016100092E0215080409040E1F700C00000269AFF
:101620002E9A2FEF80E792E0215080409040E1F722
:1016300000C00000279A2F9A2FEF80E792E02150F8
:1016400080409040E1F700C0000025982D982FEFD2
:1016500080E792E0215080409040E1F700C0000018
:1016600026982E982FEF80E792E0215080409040FE
:10167000E1F700C0000027982F9856985E982598AB
:101680002D9826982E9827982F98089589EA809368
:10169000800089E08093810024982C983F988AB13B
:1016A0008F7C8AB96E98479A8BB180638BB9769A92
:1016B0000E94EE0A0C94640480E2809317018091EA
:1016C000690281110EC00E94EA0381E080936902E1
:1016D0002FEF83ED90E3215080409040E1F700C070
:1016E000000080E40E94F0038093170181112EC056
:1016F0000E941A0480931701811128C00E941A04C5
:1017000080931701811122C08FE30E941A048093F5
:10171000170181111BC00E94120480E40E94F00393
:1017200080931701811112C08CE00E941A048093EB
:10173000170181110BC00E941A04809317018111B7
:1017400005C08FE30E941A04809317010E941204BF
:10175000809117010895CF93DF93813020E892079D
:10176000D0F0FB0122812223B1F0EC0180916A02CA
:10177000811109C08CE090E00E94DF280E94CF0B0D
:1017800081E080936A020E94D60BCE019F770E946F
:10179000940C0E944C0C81E0DF91CF9108958093CE
:1017A0006B02682F8CE090E00C94ED28E091190119
:1017B000F0911A0180818093600381FF03C081EE64
:1017C0000E946A108091600385FF03C085EE0E942D
:1017D0006A108091600380FF03C080EE0E946A104F
:1017E0008091600384FF03C084EE0E946A108091A0
:1017F000600382FF03C082EE0E946A108091600342
:1018000086FF03C086EE0E946A108091600383FF0A
:1018100003C083EE0E946A108091600387FF03C0BB
:1018200087EE0E946A1080916B028130A1F078F0FF
:10183000823011F1843049F586EE0E94970F86EED2
:101840000E946A1088E10E94970F88E11CC082EE16
:101850000E94970F1AC080EE0E94970F81EE0E949F
:10186000970F88E10E94970F88E10E946A1081EE2D
:101870000E946A1080EE07C082EE0E94970F87E5F3
:101880000E94970F87E50E946A108FE39CE90197F9
:10189000F1F700C00000089580916B02813029F0BB
:1018A00010F0823041F482EE04C08CE20E94970F67
:1018B0008CE20E946A108091600381FF03C081EE78
:1018C0000E94970F8091600385FF03C085EE0E9400
:1018D000970F8091600380FF03C080EE0E94970FF6
:1018E0008091600384FF03C084EE0E94970F809173
:1018F000600382FF03C082EE0E94970F8091600315
:1019000086FF03C086EE0E94970F8091600383FFDD
:1019100003C083EE0E94970F8091600387FF03C08E
:1019200087EE0C94970F0895EF92FF921F93CF9339
:10193000DF937C01CCE0D0E097010C2E02C03695FD
:1019400027950A94E2F7122F1F70812F0E946508D5
:101950000E94970F812F0E9465080E946A102497A9
:10196000CC3F8FEFD80741F7DF91CF911F91FF90C8
:10197000EF900895CF93DF93FC012685211113C0CA
:10198000EC0181E0868787810E94FD190E94471A39
:10199000EA81FB8169897A89CE010696309719F030
:1019A000DF91CF910994DF91CF910895FC0180815F
:1019B000813021F4FB018081918105C0823029F4BE
:1019C000FB01828193810C94AE060895FC01808115
:1019D000813021F4FB018081918105C0823029F49E
:1019E000FB01828193810C94C40608950F931F9389
:1019F000CF93DF93FC01278121112EC0EC010281DE
:101A00001381175523E1209FC001219F900D1124C0
:101A1000DC01A050BF4F1496ED91FC9115975196A3
:101A20006D917C9152978A5F9E4F309709F009958E
:101A300083E1809FF001819FF00D1124E050FF4F62
:101A400087810E94031A0E94471A18821E821886F4
:101A500010926D0210926C02DF91CF911F910F9145
:101A60000895EF92FF920F931F93CF93DF938C0112
:101A700080916C0290916D02009771F08017910730
:101A800059F0975523E1289FF001299FF00D11246B
:101A9000E050FF4F81E08487C8019755FB014281E8
:101AA0008F3F910511F008F052C020911801022ECD
:101AB000000C330B2817390714F48093180123E125
:101AC000289F7001299FF00C1124E701C050DF4FBF
:101AD0004D87FB018281882309F45CC01987088740
:101AE0008E818F5F8E830E94751B9B878A870E94E1
:101AF000331A8F83E881F98169897A89C7018A5FFE
:101B00009E4F309709F0099580916C0290916D027B
:101B10000097C1F080179107A9F09C01375583E128
:101B2000829FE001839FD00D1124CE0180509F4FF2
:101B300021E0FC0124870E94BA0CCE018A5F9E4FEF
:101B40000E94F60C10936D0200936C0223C0442394
:101B500009F1809118018F3FE9F0C6E0D1E000E083
:101B600010E0FF24F39480911801082E000C990BCB
:101B7000801791077CF08881882341F0FE82CE0196
:101B800006970E94BA0CCE010E94F60C0F5F1F4F01
:101B90006396E9CF81E0DF91CF911F910F91FF9084
:101BA000EF900895CF92DF92EF92FF920F931F93E1
:101BB000CF93DF93809118018F3FC1F1C0E0D3E153
:101BC0002C2F30E080911801082E000C990B821701
:101BD000930764F1D29FF001D39FF00D1124E050E0
:101BE000FF4FE784F088E114F10419F488ECE82E43
:101BF000F12CD29F6001D39FD00C1124860100509C
:101C00001F4FF8018681882379F0828593850E9491
:101C1000811BE816F90640F4C8010E94BA0CC601FF
:101C20008A5F9E4F0E94F60CCF5FCACFDF91CF91A3
:101C30001F910F91FF90EF90DF90CF9008959093B8
:101C40007302809372020895E0917202F091730220
:101C5000309721F00190F081E02D099480E0089503
:101C6000E0917202F0917302309721F00280F381CB
:101C7000E02D09940895E0917202F091730230977B
:101C800021F00480F581E02D0994089520917002DF
:101C9000309171028217930771F0909371028093D3
:101CA0007002E0917202F0917302309721F0068089
:101CB000F781E02D0994089520916E0230916F0212
:101CC0008217930771F090936F0280936E02E091F8
:101CD0007202F0917302309721F00084F185E02DBB
:101CE0000994089508950C94720E0E946C1B0E9432
:101CF00067040C94F31BCF92DF92EF92FF920F9345
:101D00001F93CF93DF93CDB7DEB72B970FB6F89421
:101D1000DEBF0FBECDBF0E94D30485E7C82E82E090
:101D2000D82E00E010E0E02E802F0E94B505F601CD
:101D300041916F01F42EF826B1F40F5F1F4F0E3062
:101D4000110589F78FEF89838A831B820E94751B97
:101D50008160782F9D838C8349815A816B818D812D
:101D60000E945A0F40C090912F0391FF04C08B87AF
:101D70000E94BB058B8520E030E04F2D50E0922F74
:101D8000BA01022E02C0759567950A94E2F760FFCA
:101D900024C02E83EF8221E030E0690102C0CC0C28
:101DA000DD1C9A95E2F790E08C219D21892B09F4A6
:101DB00020E028870E94751B8160782F9A87898789
:101DC0004E815F8168858A850E945A0FF801EB5821
:101DD000FD4F8081C826C08206C02F5F3F4F26304E
:101DE000310569F6AACF0E94861D109174020E94E7
:101DF000240E1817A1F00E94240E809374022B96D3
:101E00000FB6F894DEBF0FBECDBFDF91CF911F910B
:101E10000F91FF90EF90DF90CF900C9475082B9668
:101E20000FB6F894DEBF0FBECDBFDF91CF911F91EB
:101E30000F91FF90EF90DF90CF900895DC01119605
:101E40002C9111978C91682F70E041E050E001C017
:101E5000440F8A95EAF712968C91129730E0882306
:101E600029F0809192028823E9F006C0F901ED572C
:101E7000FD4F90819423B1F086E0829FF001839F13
:101E8000F00D1124E60FF71FEE0FFF1FE55DFE4F6B
:101E9000808191818D939C93F901ED57FD4F808155
:101EA000482B06C0F901ED57FD4F4095808148232E
:101EB00040830895CF93DF93CDB7DEB72B970FB64E
:101EC000F894DEBF0FBECDBF942F4F83252F5887C8
:101ED00069877A878B874A855B85452B21F02F3F61
:101EE00009F59F3FF9F4DE01119686E0FD0111929C
:101EF0008A95E9F785E0FE01379601900D928A9563
:101F0000E1F749815A816B817C818D819E810E949C
:101F10004D162B960FB6F894DEBF0FBECDBFDF91E6
:101F2000CF910895CE0107960E941E0FDCCFCF936C
:101F3000882309F4CDC0C82F823859F40E94240E9A
:101F400081FDC6C089E30E9474190E94471A89E383
:101F50000CC0833879F40E94240E80FDB9C083E55B
:101F60000E9474190E94471A83E50E94B619CF9106
:101F70000C94471A843859F40E94240E82FDA8C09C
:101F800087E40E9474190E94471A87E4EECF8CEF11
:101F90008C0F813A48F48C2F0E94C61F811198C083
:101FA0008C2F0E947419E3CF80E28C0F883048F4A4
:101FB000C77081E001C0880FCA95EAF70E94FD1939
:101FC000D6CF8BE58C0F833078F4C53A29F0C63A2A
:101FD00031F083E890E005C081E890E002C082E83B
:101FE00090E0CF910C94460E88E58C0F853108F077
:101FF0006FC0C83A61F1C93A69F1CA3A71F1CB3A96
:1020000079F1CC3A81F1CB3B89F1CC3B91F1CD3ADE
:1020100099F1C03BA1F1CE3AA9F1CF3AB1F1C13B60
:10202000B9F1C23BC1F1C33BC9F1C43BD1F1C53BDE
:10203000D9F1C63BE1F1C73BE9F1C83BF1F1C93B3E
:10204000F9F1CA3B09F43FC080E090E03EC082EE67
:1020500090E03BC089EE90E038C08AEE90E035C059
:1020600085EB90E032C086EB90E02FC083EB90E0F0
:102070002CC084EB90E029C087EB90E026C08CEC6C
:1020800090E023C08DEC90E020C083E891E01DC07B
:102090008AE891E01AC082E991E017C084E991E0F2
:1020A00014C081E292E011C083E292E00EC084E2AB
:1020B00092E00BC085E292E008C086E292E005C0A3
:1020C00087E292E002C08AE292E0CF910C945C0E2B
:1020D000CF910895882309F44BC0823859F40E94A7
:1020E000240E81FF45C089E30E9474190E94471A9B
:1020F00089E30CC0833871F40E94240E80FF38C03D
:1021000083E50E9474190E94471A83E50E94B6195C
:102110000C94471A843859F40E94240E82FF28C078
:1021200087E40E9474190E94471A87E4EFCF9CEF5E
:10213000980F913A58F390E2980F983050F48770C6
:1021400091E001C0990F8A95EAF7892F0E94031A3E
:10215000DFCF9BE5980F933020F480E090E00C9463
:10216000460E885A853120F480E090E00C945C0E95
:102170000895882321F00E94FD190C94471A0895B0
:10218000882321F00E94031A0C94471A08958F9215
:102190009F92AF92BF92CF92DF92EF92FF920F93F6
:1021A0001F93CF93DF931F92CDB7DEB77C01C72E6D
:1021B000FC01058102950F701281112321F06983C2
:1021C0000E941A1A698169830E946D1969818823A6
:1021D00081F0112371F080E2860F883050F082E0A8
:1021E0000E9456190E946D1991E0D82ED926698156
:1021F00001C0D12CAC2CA2948FE0A822B12CF50107
:10220000E859FF4F0C94C5288C2D807F0C2D0F7042
:10221000882311F00295007F1123C1F0002309F4F7
:10222000D2C180E2860F883010F0611105C0802F86
:1022300069830E94FD1904C0802F69830E940D1AD2
:10224000698169830E94471A6981BDC1862F6983AC
:102250000E946A106981002309F40EC280E2860F91
:10226000883010F0611104C0802F0E94031A03C04F
:10227000802F0E94131A0E94471AFEC19C2D907F46
:102280008C2D8F70903211F08295807F662319F02B
:102290006130B1F01EC0112349F0002309F44BC195
:1022A000013009F048C10E942D1AE6C1002319F03F
:1022B000013009F4E1C189830E94301A898141C14A
:1022C000112321F0023008F0D7C135C10111D4C16A
:1022D00038C1112321F0002309F42DC174C100235A
:1022E00009F42FC181C18C2D86958695837090E06D
:1022F000009719F0019761F0BFC1112321F0862FDB
:102300009C2D937002C080E090E00E94460EC4C1F4
:10231000112321F0862F9C2D937002C080E090E065
:102320000E945C0EB9C11123F9F0653F51F0663F80
:1023300071F0643FA9F48091610390916203816020
:102340000BC08091610390916203826005C080910F
:1023500061039091620384609093620380936103B0
:10236000862F0E948E1C1EC0653F51F0663F71F0A3
:10237000643FA9F480916103909162038E7F0BC04A
:1023800080916103909162038D7F05C0809161030C
:10239000909162038B7F9093620380936103862FF9
:1023A0000E94F61C0E947B1D77C18C2D837009F062
:1023B00052C011116DC1862F829586958770880F46
:1023C000880F962F9F70892E912CA12CB12C082E4E
:1023D00004C0880C991CAA1CBB1C0A94D2F764FF89
:1023E00014C00FE010E020E030E0B901A80104C003
:1023F000440F551F661F771F8A95D2F7CB01BA018C
:10240000609570958095909503C060E070E0CB0179
:102410002C2D26952695237030E02230310569F069
:102420002330310589F0682979298A299B292130AF
:10243000310571F00E9490172BC1682979298A29EA
:102440009B290E94A21724C10E949017C501B401C4
:102450000E947E171DC1112319F08C2D817001C0BF
:102460008695882309F414C1862F829586958770F6
:10247000880F880F962F9F70892E912CA12CB12C3C
:10248000082E04C0880C991CAA1CBB1C0A94D2F705
:1024900064FF14C00FE010E020E030E0B901A801B3
:1024A00004C0440F551F661F771F8A95D2F7CB01D2
:1024B000BA01609570958095909503C060E070E0DA
:1024C000CB012C2D269526952370422F50E04230CB
:1024D000510569F04330510589F0682979298A2925
:1024E0009B294130510571F00E945418D1C06829D0
:1024F00079298A299B290E946618CAC00E9454180B
:10250000C501B4010E944218C3C0862F90E0FC01AF
:10251000E05EF109E531F10508F051C0E858FF4FE0
:102520000C94C528062F0F708C2D8F71112331F05C
:102530000E94DB17802F0E94B9109EC00E94FC17DA
:10254000802F0E94C01098C0112339F0011194C04F
:102550008C2D8F710E9421188FC0023008F08CC022
:10256000F7CF112339F08C2D8F710E94DB1784C0B7
:102570001123C9F38C2D8F710E94FC177DC011238C
:1025800029F08C2D8F710E94C61776C00E94C1174A
:1025900073C0112351F01C2D1F71812F0E94DB1776
:1025A00063E0812F0E944D1967C081E00E94561997
:1025B000023008F461C082E00E9456195DC0112308
:1025C00031F0002381F2862F0E94970F55C000231F
:1025D00089F2693349F45FEF77EE83E05150704040
:1025E0008040E1F700C00000862F0E946A1044C0BE
:1025F0004C2D4F70C7010E94BC050E94F1164CC0C3
:10260000623F99F128F4603F49F0613FE1F020C05A
:10261000643FA1F050F0653F59F01AC0112339F121
:102620009091920281E0892706C081E018271DC0A1
:1026300011111DC081E08093920219C0111117C0C1
:102640001092920214C0002381F0111110C0E8CF43
:10265000002359F0862F6983112319F00E94970FE8
:1026600002C00E946A10698102C0109392024C2D30
:102670004F70C7010E94770898E0A916B10441F095
:102680005CF0FAE0AF1AB10822E0A216B10420F41F
:102690000E94240E0E947508DD20F1F00E94491965
:1026A00080FD1AC0F70112820E9443190E94DB17B5
:1026B000C7010E947A130E9443190F90DF91CF91B6
:1026C0001F910F91FF90EF90DF90CF90BF90AF9050
:1026D0009F908F900C94FC170F90DF91CF911F91DA
:1026E0000F91FF90EF90DF90CF90BF90AF909F90B1
:1026F0008F9008950F931F93CF93DF93EC01888100
:1027000099812B813C81232BB9F09F3F11F48F3F9E
:1027100099F0CE010E94EB06882371F068817981DF
:102720008A810E9420198C010E9478180E947B17D0
:10273000B801CE010E94C710DF91CF911F910F9178
:1027400008950E941A1A0E942A1A0E94EC190E94E7
:10275000471A0E942B1E0E947B1D80E090E00E9481
:10276000460E80E090E00C945C0E0E940A1A0C94D5
:10277000A1130E941519E92FE295EF70F0E032974E
:10278000EE30F105B0F4E357FF4F0C94C528803FBD
:1027900091F018F4803E68F40EC0843F51F40BC0F1
:1027A000803E48F0813F29F406C093FB882780F9DA
:1027B000089580E0089581E00895CF93DF9300D0DD
:1027C00000D01F92CDB7DEB70F900F900F900F90F3
:1027D0000F90DF91CF910895CF93DF9300D000D079
:1027E00000D0CDB7DEB726960FB6F894DEBF0FBE89
:1027F000CDBFDF91CF9108951F93CF93DF93C09109
:10280000930216E080919402C81799F0D0E01C9FC3
:10281000F0011D9FF00D1124EB56FD4F40815181B9
:1028200062817381848195810E94EC132196C77027
:10283000E9CFDF91CF911F9108954091C50250914A
:10284000C6026091C7027091C8028091C90290913E
:10285000CA020C94EC138091CA0282958F7009F021
:1028600054C08091C702882309F44FC0809193021D
:10287000A09194026091C5027091C6024091C80275
:102880005091C902B6E08A1709F43FC090E04115A3
:102890005105C1F17F3F11F46F3FA1F1B89FF001E5
:1028A000B99FF00D1124EB56FD4F218172132AC000
:1028B0002081621327C02281211124C02381348109
:1028C0002417350710F421503109241B350B283CFF
:1028D0003105C0F42091CA022F7020612093CA02F2
:1028E00026E0289FF001299FF00D1124E656FD4FA8
:1028F00080818F708061808385EC92E00E947A13E2
:102900000C94FC1301968770BECF0895CF92DF928E
:10291000EF92FF920F931F93CF93DF93CDB7DEB764
:1029200062970FB6F894DEBF0FBECDBF8C0185E075
:10293000F801DE011D9601900D928A95E1F7D8010C
:102940004C9111965C91119712966C911297139677
:10295000CD90DC9014973091C5027091C6028091A1
:10296000C8029091C902009709F46BC17F3F19F426
:102970003F3F09F466C1E090C702EE2009F4C0C0F1
:102980002091CA02C816D90628F0F601E81BF90BF7
:10299000CF0104C0809590958C0D9D1DFF24F3946C
:1029A000883C910578F0F12C207F09F0C6C07C2D81
:1029B000D98AC88A89890E94DD1385EC92E00E9439
:1029C0007A13B1C0822F807F09F046C0751314C0FE
:1029D000341312C0611110C02F7020612093CA02FD
:1029E0000E941D1485EC92E00E947A138091CA0225
:1029F000D80115968C932EC0CD2819F15F3F11F4A4
:102A00004F3FF9F0F62E61111CC080919302209186
:102A1000940236E0821709F45AC090E0389FF00122
:102A2000399FF00D1124EB56FD4F7181571306C0ED
:102A30007081471303C07281711103C001968770C2
:102A4000E9CFF62E662309F418C18091CA0281608D
:102A50008093CA02F12C11C1751308C0341306C04B
:102A6000611104C08091CA02D801C3C04D875E873E
:102A70008D859E856A8B0E94B9136A898823E1F14E
:102A80006623D1F12091CA02822F82958F7090E047
:102A9000029774F08091C5029091C60298878F8347
:102AA0001986DB86CA862C87CE0107960E947A1388
:102AB00086E0F801A5ECB2E001900D928A95E1F76D
:102AC0000E942B140E941D14FF24F394D6C04D873E
:102AD0005E878D859E850E941519292F22952F705E
:102AE00030E0223031050CF0BCC09F7009F0B6C058
:102AF000805E883008F4C1C0C8010E947A13E4CF18
:102B0000C816D90608F453C0F601E81BF90BCF012B
:102B1000883C910508F450C0F12C7C2DD98AC88AD4
:102B200089890E94DD13E5ECF2E086E0DF011D9269
:102B30008A95E9F70E941D14A0C0751314C03413C0
:102B400012C0611110C08091CA02F8018583C801CA
:102B50000E947A1386E0E5ECF2E0DF011D928A958F
:102B6000E9F7FE2C8AC04D875E878D859E856A8B2E
:102B70000E94B9136A89882309F4BECF662309F439
:102B8000BBCF2091CA02822F82958F7090E002976E
:102B90000CF48ECF8091C5029091C6029A838983EE
:102BA0001B82DD82CC822E83CE0101967FCF809561
:102BB00090958C0D9D1DACCFF62E662309F49CCF0D
:102BC00075132EC034132CC02091CA0220FD1FC0E3
:102BD000822F82958F70D9F0D80115962C93159776
:102BE0008F3049F08F5F982F9295907F822F8F7052
:102BF000892B15968C93C8010E947A1386E0F80100
:102C0000A5ECB2E001900D928A95E1F793CF86E0B2
:102C1000F801A5ECB2E001900D928A95E1F72DC084
:102C20004D875E878D859E850E94B913811140CFA7
:102C30008091CA0281608093CA02C8010E947A13FF
:102C40001CC0662309F458CF4D875E878D859E850D
:102C50000E94B913882309F44FCF2ACF811148CF9E
:102C60000CC0243031050CF047CF9F7009F440CFE1
:102C7000F8019581907F09F03BCF8F2D62960FB6BA
:102C8000F894DEBF0FBECDBFDF91CF911F910F91A2
:102C9000FF90EF90DF90CF9008951F93CF93DF9335
:102CA000CDB7DEB72C970FB6F894DEBF0FBECDBF01
:102CB0004F83588769877A878B879C87CE010796D1
:102CC0000E948614882369F08F8198852A853B8528
:102CD000232BF1F19F3F09F063C08F3F09F060C0E3
:102CE00037C086E0FE013796DE01119601900D9205
:102CF0008A95E1F76F817885EA85FB85309741F108
:102D00007F3F11F46F3F21F12091940230E0C9011F
:102D10000196877099274091930250E08417950798
:102D200009F447C069837A83FD83EC8396E0929F20
:102D3000D001939FB00D1124AB56BD4FFE013196CB
:102D400001900D929A95E1F7809394020E94FC13F2
:102D500016E080919302909194028917C1F1189F17
:102D6000C00111248B569D4F0E948614882379F14F
:102D7000E09193021E9FF0011124EB56FD4F40811C
:102D8000518162817381848195810E94EC138091CD
:102D9000930290E001968770992780939302D9CF90
:102DA0004F81588569857A858B859C850E94EC13B7
:102DB000CFCF0E94B5131092940210929302E5ECCB
:102DC000F2E086E0DF011D928A95E9F7C1CF2C96EB
:102DD0000FB6F894DEBF0FBECDBFDF91CF911F912C
:102DE0000895EF92FF920F931F93CF93DF938C017F
:102DF000892B09F46CC0F12CEE24E394E8012196B0
:102E0000F8018491843740F4843008F051C0813057
:102E100081F0823019F15BC0853709F444C0A8F114
:102E20009CE7980F903708F052C08F770E946A1085
:102E300041C00E5F1F4FFE01C49180E28C0F8830AD
:102E400048F4C7708E2D01C0880FCA95EAF70E941A
:102E50001D1A14C08C2F0E94970F2DC00E5F1F4F9C
:102E6000FE01C49180E28C0F883058F4C7708E2D1B
:102E700001C0880FCA95EAF70E94231A0E94471AD8
:102E80001AC08C2F0E946A1016C00E5F1F4FFE01E1
:102E9000C491CC2381F08FE99FE00197F1F700C046
:102EA0000000C150F6CF0E5F1F4FFE01F49003C02B
:102EB0000E94970F8E018F2D882309F49FCFEFE991
:102EC000FFE03197F1F700C000008150F5CFDF91AE
:102ED000CF911F910F91FF90EF90089508950E9458
:102EE0006E17609306037093070380930803909313
:102EF00009030C94A11308950C946F170F931F935B
:102F000000910603109107032091080330910903F3
:102F1000602B712B822B932B1F910F910C946F17A9
:102F20000F931F930091060310910703209108034C
:102F30003091090360237123822393231F910F9102
:102F40000C946F170F931F930091060310910703C2
:102F50002091080330910903602771278227932766
:102F60001F910F910C946F1708950E94B4176093EE
:102F700002037093030380930403909305030C945E
:102F8000A11360E070E0CB010C94B5170F931F9371
:102F900041E050E060E070E08A019B0104C0000F56
:102FA000111F221F331F8A95D2F7C901B8011F9143
:102FB0000F910C94B5170F931F9341E050E060E020
:102FC00070E004C0440F551F661F771F8A95D2F723
:102FD0008091020390910303A0910403B091050333
:102FE0008A019B01082B192B2A2B3B2BC901B80105
:102FF0001F910F910C94B5170F931F9341E050E070
:1030000060E070E004C0440F551F661F771F8A956B
:10301000D2F74095509560957095809102039091FC
:103020000303A0910403B09105038A019B010823C7
:1030300019232A233B23C901B8011F910F910C9436
:10304000B5170F931F9341E050E060E070E004C0BB
:10305000440F551F661F771F8A95D2F78091020390
:1030600090910303A0910403B09105038A019B0191
:10307000082719272A273B27C901B8011F910F915B
:103080000C94B5170F931F93009102031091030343
:103090002091040330910503602B712B822B932B1D
:1030A0001F910F910C94B5170F931F93009102037A
:1030B00010910303209104033091050360237123D1
:1030C000822393231F910F910C94B5170F931F9395
:1030D0000091020310910303209104033091050332
:1030E00060277127822793271F910F910C94B517A2
:1030F0000895292F220F920F990F890FA82FA695B7
:10310000A695A695877051E001C0550F8A95EAF7FC
:1031100085E0A89FD001112420E030E070E0F901A3
:10312000EA0FFB1FE553FD4F4081CB01022E02C089
:10313000969587950A94E2F781709927819584275F
:103140008523842780832F5F3F4F2530310539F752
:103150000895292F220F920F990F890F682F6695D6
:1031600066956695982F977085E0689FB001112449
:1031700040E050E080E0FA01E60FF71FE553FD4F15
:10318000208130E0092E02C0369527950A94E2F797
:1031900021703327042E01C0220F0A94EAF7822BF4
:1031A0004F5F5F4F4530510531F70895CF92DF9261
:1031B000EF92FF920F931F93CF93DF938C01C090F8
:1031C0000603D0900703E0900803F0900903809174
:1031D000020390910303A0910403B0910503C82A50
:1031E000D92AEA2AFB2ACFE1D0E0D701C6010C2E6A
:1031F00004C0B695A795979587950A94D2F780FF56
:1032000006C0B8018C2F0E949208019721F42197E3
:1032100060F780E001C08C2FDF91CF911F910F915B
:10322000FF90EF90DF90CF900895CF93DF93EC0164
:103230000E94D618BE010E949208DF91CF91089596
:103240001F93CF93DF93EB0190919102992321F08B
:10325000CB010E94151913C0882349F0CB010E94AD
:10326000D618182F682FCE010E94791804C0CB0100
:103270000E94A918182FBE01812F0E949208DF9189
:10328000CF911F91089580910A0385958595859525
:10329000089580910A038770089598E0899F9001AE
:1032A0001124262B20930A030C94DB1720910A0388
:1032B0008095822380930A03982F977069F430E0F9
:1032C000482F082E000C550B2417350729F085953B
:1032D000859585950C94FC17089590910A03977035
:1032E00081E009F480E0089590912A01992321F06A
:1032F0009091670397FD09C02091190130911A013F
:10330000F90132969FEF40E01FC0982F9695969551
:1033100096959F3150F5E0911901F0911A01E90F4E
:10332000F11D877021E030E0A90102C0440F551F54
:103330008A95E2F7CA019181892B818308959F3F85
:1033400039F04F5F4E3141F051915813F8CF0DC015
:103350005111F7CF942FF5CF9F3F39F0F901E90FC5
:10336000F11D97FDFA9582830895089590912A01A1
:10337000992321F09091670397FD09C020911901CD
:1033800030911A01F9013296205E3F4F1FC0982FED
:103390009695969596959F31F0F4E0911901F091EC
:1033A0001A01E90FF11D877021E030E0A90102C088
:1033B000440F551F8A95E2F7CA01809591818923B0
:1033C000818308953196E217F30729F090819813CD
:1033D000F9CF1082F7CF089581E090E0E0911901D4
:1033E000F0911A01E80FF91F1082019680329105C1
:1033F000A9F7089580912E03089590912E03892BAB
:1034000080932E030895809590912E0389238093B5
:103410002E03089510922E03089590912D03892B69
:1034200080932D030895809590912D038923809397
:103430002D03089510922D03089590912C03892B4C
:1034400080932C030895809590912C038923809379
:103450002C03089510922C03089580930B03089574
:1034600010920B03089580910B0308958091190128
:1034700090911A01FC0131969C01205E3F4F80E043
:10348000919191118F5FE217F307D1F70895E091C1
:103490001901F0911A0180912E038083E0911901A6
:1034A000F0911A01908180912D03892B8083E09106
:1034B0001901F0911A01908180912C03892B80834E
:1034C00080910B03882361F0E0911901F0911A01BA
:1034D0009081892B80830E94361A811110920B03F0
:1034E0008091190190911A010C94300ECF92DF92C5
:1034F000EF92FF926C01EE24FF24C114D104E10489
:10350000F10421F0C701B60120E101C020E0C72E7F
:10351000D82EE92EFF24C114D104E104F10419F0DE
:10352000285FC701B6016B017C0154E0F694E79473
:10353000D794C7945A95D1F7C114D104E104F1048A
:1035400019F02C5FC701B6016B017C0142E0F694D3
:10355000E794D794C7944A95D1F7C114D104E104F4
:10356000F10419F02E5FC701B601DC01CB01B6955D
:10357000A79597958795892B8A2B8B2B09F02F5F21
:10358000822FFF90EF90DF90CF9008956DEE7EEF49
:1035900080E090E00E94FF2860E082E090E00E94DE
:1035A000ED2860E083E090E00E94ED2860E084E098
:1035B00090E00E94ED2860E085E090E00C94ED281A
:1035C00080E090E00E94E72821E08D3E9E4F09F0C8
:1035D00020E0822F089582E090E00C94DF2883E0C1
:1035E00090E00C94DF2884E090E00C94DF28682FB2
:1035F00084E090E00C94ED2880916D03843039F1E3
:103600001092300320E488E190E00FB6F894A8957A
:10361000809360000FBE2093600080E00E947508D8
:1036200083B7817F846083BF83B7816083BF7894D1
:10363000889583B78E7F83BF0FB6F894A895809145
:103640006000886180936000109260000FBE089552
:103650000895CF930E9486040E94D3040E94281BE1
:10366000C0E08C2F0E94B505811104C0CF5FCE3021
:10367000C1F701C081E0CF9108950E94B5130E9467
:10368000240E0C9475081F920F920FB60F921124FE
:103690008F939F93AF93BF9380913003811113C099
:1036A0008091630390916403A0916503B0916603D8
:1036B0004196A11DB11D8093630390936403A09371
:1036C0006503B0936603BF91AF919F918F910F9067
:1036D0000FBE0F901F90189582E084BD93E095BDBA
:1036E0009AEF97BD80936E0008952FB7F89480915C
:1036F000630390916403A0916503B09166032FBFAB
:103700000895CF92DF92EF92FF920F931F932FB7FE
:10371000F894409163035091640360916503709144
:1037200066032FBF6A017B01EE24FF248C0120E099
:1037300030E0C016D106E206F30610F441505109FC
:103740009A01281B390BC9011F910F91FF90EF902F
:10375000DF90CF90089578941F920F920FB60F923A
:1037600011248F939F93AF93BF93809163039091A4
:103770006403A0916503B09166030196A11DB11D7C
:103780008093630390936403A0936503B0936603EF
:10379000BF91AF919F918F910F900FBE0F901F908F
:1037A00018950E948224F8942FEF87EA91E6215021
:1037B00080409040E1F700C0000087E090EBDC0122
:1037C0008093760390937703A0937803B093790363
:1037D0009CE088E10FB6F894A895809360000FBE36
:1037E00090936000FFCF0E94E01A811102C00E94F6
:1037F000C61A0E94EB1A80932F030E94F31A90E0DE
:1038000090936803809367030E94EF1A682F70E01B
:1038100080E090E00C947C178091340380FF0BC013
:1038200060911E0185E0689FB00111247595679530
:10383000759567952BC081FF09C060911E0185E0D9
:10384000689FB00111247595679520C082FF07C05D
:1038500060911E0185E0689FB001112417C090910E
:1038600035039923D1F060911D01961788F72091B7
:103870001E0185E0289F90011124929FA001939F33
:10388000500D112470E0CA010E94B1286038710502
:1038900040F46115710539F002C065E070E0862FD3
:1038A00008958FE7089581E008958091340380FFA3
:1038B00008C060911C0170E07595679575956795D6
:1038C00021C081FF06C060911C0170E0759567956D
:1038D00019C082FF04C060911C0170E010C090917B
:1038E00035039923C1F060911B019617A0F78091D1
:1038F0001C01899FC001112470E00E94B12860382A
:10390000710528F46115710521F0862F08958FE760
:10391000089581E0089561E070E0F4CF803F21F4E4
:103920000E940C1C819504C0813F29F40E940C1C4C
:10393000809338030895823F21F40E940C1C8195E6
:1039400004C0833F29F40E940C1C80933703089520
:10395000893F19F40E94551C05C08A3F31F40E942A
:10396000551C81958093390308958B3F21F40E9463
:10397000551C819504C08C3F29F40E94551C8093EE
:103980003A030895843F21F480913603816017C083
:10399000853F21F480913603826011C0863F21F477
:1039A0008091360384600BC0873F21F480913603F9
:1039B000886005C0883F31F4809136038061809330
:1039C000360308958D3F21F48091340381600BC04C
:1039D0008E3F21F480913403826005C08F3F29F42B
:1039E000809134038460809334030895803F39F4D8
:1039F0008091380387FF6CC01092380369C0813F03
:103A000029F4809138031816BCF362C090913703F3
:103A1000823F29F497FF5CC01092370359C0833F5F
:103A200019F41916CCF354C0893F41F4809139033D
:103A300018160CF04DC0109239034AC08A3F29F481
:103A40008091390387FF44C0F6CF8B3F39F48091D2
:103A50003A0387FF3DC010923A033AC08C3F29F4E5
:103A600080913A031816BCF333C0843F21F480914F
:103A700036038E7F17C0853F21F4809136038D7FFA
:103A800011C0863F21F4809136038B7F0BC0873FA6
:103A900021F480913603877F05C0883F31F48091FF
:103AA00036038F7E8093360313C08D3F21F48091BF
:103AB00034038E7F0BC08E3F21F4809134038D7FC1
:103AC00005C08F3F29F4809134038B7F80933403AA
:103AD0008091370381110EC08091380381110AC093
:103AE00080913903811106C080913A03811102C08F
:103AF00010923503089586E393E00E943B0E0E94E6
:103B0000751B909332038093310308951F93CF93D5
:103B1000DF9380913103909132030E94811BAC01AD
:103B200090913503992321F020911F0130E006C0C8
:103B3000209133038AE0289F9001112442175307F4
:103B400008F485C080913703C0913803D0913903C0
:103B500010913A03811107C0C11175C0D11173C012
:103B6000111171C074C09F3F19F09F5F909335038E
:103B7000181624F40E940C1C80933703809137039D
:103B800087FF05C00E940C1C8195809337031C168B
:103B900024F40E940C1C809338038091380387FF23
:103BA00005C00E940C1C81958093380360913703F7
:103BB000662331F1C0913803CC2311F1062E000C9D
:103BC000770B880B990B0E94B82723E333E343E379
:103BD0005FE30E941C280E948027609337036C2FAC
:103BE000CC0F770B880B990B0E94B82723E333E3A4
:103BF00043E35FE30E941C280E9480276093380300
:103C00001D1624F40E94551C8093390380913903BA
:103C100087FF05C00E94551C8195809339031116BA
:103C200024F40E94551C80933A0380913A0387FF45
:103C300005C00E94551C819580933A03DF91CF9176
:103C40001F910C947B1D9F3F09F08FCF97CFDF9181
:103C5000CF911F910895E6E3F3E085E0DF011D9227
:103C60008A95E9F710923503109234030895833052
:103C700081F128F4813059F08230D1F008958530F7
:103C800009F449C0B8F1863009F456C0089580910E
:103C90003303262F30E0280F311D2F3F310524F448
:103CA000680F6093330308958FEF80933303089573
:103CB00080911F01262F30E0280F311D2F3F310545
:103CC00024F4680F60931F0108958FEF80931F0104
:103CD000089580911E01262F30E0280F311D2F3FBF
:103CE000310524F4680F60931E0108958FEF8093CF
:103CF0001E01089580911D01262F30E0280F311DEF
:103D00002F3F310524F4680F60931D0108958FEF54
:103D100080931D01089580911C01262F30E0280F0B
:103D2000311D2F3F310524F4680F60931C01089565
:103D30008FEF80931C01089580911B01262F30E0A6
:103D4000280F311D2F3F310524F4680F60931B01AC
:103D500008958FEF80931B010895833011F128F4AB
:103D6000813049F0823091F00895853081F120F161
:103D70008630C1F1089580913303681720F4861BC3
:103D800080933303089510923303089580911F01A7
:103D9000681720F4861B80931F01089510921F015D
:103DA000089580911E01681720F4861B80931E01E0
:103DB000089510921E01089580911D01681720F446
:103DC000861B80931D01089510921D010895809116
:103DD0001C01681720F4861B80931C010895109223
:103DE0001C01089580911B01681720F4861B8093A5
:103DF0001B01089510921B0108950F931F938732A2
:103E000008F04DC08E3108F093C0803109F47DC0B8
:103E100008F5873009F46BC068F4863009F0A3C058
:103E200080912F03817F8E7F80932F0381E0809389
:103E30003C039AC08B3009F48FC08E3009F093C0D8
:103E400080912F0382FB222720F991E0922790FB9B
:103E500082F964C0863109F47FC088F4813109F0A9
:103E600082C00E94B5138091670387FB222720F947
:103E700091E0922790FB87F9809367036DC08931A9
:103E800009F46AC08B3109F06EC080912F0381FB69
:103E9000222720F991E0922790FB81F93FC08833D7
:103EA00009F45AC050F4893209F458C0853309F432
:103EB00055C0873209F452C056C0833409F44EC04D
:103EC00028F48A3308F44FC0895333C0883409F08A
:103ED0004AC00E94B5130FEF13ED20E301501040CC
:103EE0002040E1F700C000000E94D11B35C0809146
:103EF0002F03982F9095917090FB80F980932F035A
:103F000091112AC0897F877F10C080912F0383FB86
:103F1000222720F991E0922790FB83F980932F03C9
:103F20009923D1F080912F03816080932F0314C0D7
:103F30008D5141E050E060E070E08A019B0104C0D7
:103F4000000F111F221F331F8A95D2F7C901B80134
:103F50000E947C170E94B51381E006C061E070E00A
:103F600080E090E0F5CF80E01F910F91089580E010
:103F7000089580E008958E518A3030F4E82FF0E003
:103F8000ED52FE4F8081089580E00895CF93C82FB1
:103F900080913C03813079F018F08230E9F185C0DE
:103FA000E0911901F0911A018081813169F082322A
:103FB00009F07DC009C0E0911901F0911A018081DA
:103FC000813111F0823261F48C2F0E94B71F811170
:103FD00004C08C2F0E94FD1E1DC081E090E01AC01D
:103FE0008C2F0E94B91F811114C0C43179F048F49C
:103FF000CB3079F0C03109F05EC082E080933C03A1
:1040000008C0C93219F0C83321F055C010923C03E2
:1040100052C081E0817051C0C93279F108F5C431D4
:1040200061F1A0F4C73009F044C01092330384E179
:1040300080931F01C0931E018CE380931D0188E0D3
:1040400080931C0188E280931B0133C082EE8C0FA9
:10405000863078F58C2F0E94BB1F80933B0329C0CC
:10406000CE34E9F020F4CB3421F56AE013C0C13539
:1040700079F0C235F1F461E00DC080913B038823F3
:1040800019F010923B0315C081E080933C0315C0EA
:1040900061E006C080913B030E94371E0AC06AE0BF
:1040A00080913B030E94AD1E04C010923C0380E04F
:1040B00004C081E002C080E0ADCFCF91089580912F
:1040C0005D0308950F931F93CF93DF9300D01F924A
:1040D000CDB7DEB78C010E94D022823011F084303F
:1040E00019F593E099831B830A839093E9008FEF7E
:1040F0009091E800815095FD06C095ED9A95F1F7F5
:1041000000008111F5CF8091E80085FF0DC040E0EF
:1041100050E063E070E0CE0101960E94ED228091B4
:10412000E8008E778093E8000F900F900F90DF915A
:10413000CF911F910F910895CF93DF9300D01F92DD
:10414000CDB7DEB720916D03243031F522E029830D
:10415000805891099B838A8383E08093E9008FEFE5
:104160009091E800815095FD06C095ED9A95F1F784
:1041700000008111F5CF8091E80085FF0DC040E07F
:1041800050E063E070E0CE0101960E94ED22809144
:10419000E8008E778093E8000F900F900F90DF91EA
:1041A000CF910895CF93DF93EC010E94D02282300B
:1041B00011F08430F9F482E08093E9009FEF809160
:1041C000E800915085FD06C085ED8A95F1F7000065
:1041D0009111F5CF8091E80085FF0CC040E050E0E0
:1041E00065E070E0CE010E94ED228091E8008E77BC
:1041F0008093E800DF91CF910895CF93DF93EC0196
:104200000E94D022823019F0843009F047C080919A
:104210002A018823E1F08091670387FF18C084E0BA
:104220008093E9008FEF9091E800815095FD06C0E2
:1042300095E19A95F1F700008111F5CF8091E800A2
:1042400085FF2CC040E050E060E270E017C081E0E4
:104250008093E9008FEF9091E800815095FD06C0B2
:1042600095ED9A95F1F700008111F5CF8091E80066
:1042700085FF14C040E050E068E070E0CE010E948D
:10428000ED228091E8008E778093E80080E2FE01C5
:10429000ADE3B3E001900D928A95E1F7DF91CF9104
:1042A000089580916C03811109C00E9482240E94AC
:1042B000DF248091E20084608093E20008951092F0
:1042C0006C030895089508950C943D1B42E061EC41
:1042D00081E00E94FC2342E061EC82E00E94FC232A
:1042E00042E061EC83E00E94FC2342E261EC84E066
:1042F0000C94FC2380916F03833009F455C030F493
:10430000813071F0823009F48EC008958A3009F44A
:104310007AC08B3009F460C0893009F09CC020C09D
:1043200080916E03813A09F096C08091E800877F02
:104330008093E8008091720390917303892B21F49C
:1043400060E28DE393E003C060E080E090E070E025
:104350000E9438238091E8008B778093E8000895CD
:1043600080916E03813209F076C080917203909142
:104370007303009719F0039709F06DC08091E8006E
:10438000877F8093E8008091E80082FD05C08091DE
:104390006D038111F8CF5FC08091F10080935D03C0
:1043A0008091E8008B7753C080916E03813A09F0C9
:1043B00052C08091720390917303892B09F04BC016
:1043C0008091E800877F8093E8008091E80080FF7B
:1043D000FCCF80912A0136C080916E038132D9F5DD
:1043E0008091720390917303892BA9F58091E80065
:1043F000877F8093E8000E9431248091700380932E
:104400002A010C94B51380916E03813221F58091BD
:10441000E800877F8093E8000E9431248091710337
:1044200080935E03089580916E03813AA1F4809198
:10443000E800877F8093E8008091E80080FFFCCF50
:1044400080915E038093F1008091E8008E778093E5
:10445000E8000C943124089584B7877F84BF0FB699
:10446000F894A89580916000886180936000109214
:1044700060000FBE80E880936100109261000E948E
:10448000730E0E9482240E94DF248091E2008460E7
:104490008093E20078940E9465270E94750E80E266
:1044A00091E00E941F0E80916D03853069F40E9497
:1044B000FC1A80916B038823B1F30E94291B882387
:1044C00091F30E94D722EFCF0E947B0EECCF292FD1
:1044D000332723303105C9F064F42130310581F0F0
:1044E0002230310509F043C08DE690E026EC35E03E
:1044F00042C021323105F1F02232310541F137C09D
:1045000082E190E023E336E036C0992781309105BF
:1045100041F08230910541F0892B49F5E2ECF5E05C
:1045200005C0EAEAF5E002C0E2E9F5E0849190E036
:104530009F0121C06430D8F4E62FF0E0EE0FFF1F9A
:10454000E751FE4F2081318189E090E014C0643052
:1045500070F470E0FB01EE0FFF1FEF51FE4F208162
:104560003181FB01E352FE4F808190E004C080E086
:1045700090E020E030E0FA0131832083089508952F
:10458000CF93C82F0E94BF22C0935F03CF9108959D
:1045900080916D03843011F081E0089582E00895E8
:1045A00080915F03811102C00C94C822089580E1BC
:1045B00089BD82E189BD09B400FEFDCF8091D8009C
:1045C0008F7D8093D8008091E00082608093E0002E
:1045D0008091E00081FDFCCF0895CF92DF92EF92B1
:1045E000FF920F931F93CF93DF93EC018B016A012E
:1045F0000E945024811133C0C114D10439F0F60156
:1046000080819181081B190BC80FD91FE12CF12C57
:104610000115110519F18091E80085FD16C0809102
:10462000E8008E778093E800C114D10449F0F601C8
:1046300080819181E80EF91EF182E08285E00FC051
:104640000E945024882321F30AC089918093F100AD
:1046500001501109FFEFEF1AFF0ADACF80E0DF9176
:10466000CF911F910F91FF90EF90DF90CF90089521
:1046700020917403309175032617370748F06115B0
:10468000710539F42091E8002E772093E80001C0ED
:10469000B90140E061157105A9F120916D03222354
:1046A00009F443C0253009F442C02091E80023FDFD
:1046B00040C02091E80022FD32C02091E80020FF98
:1046C000E9CF4091F3002091F20030E0342BFC015F
:1046D000CF016115710559F02830310540F4819101
:1046E0008093F100615071092F5F3F4FF1CF41E09E
:1046F0002830310509F040E02091E8002E77209322
:10470000E800C8CF4111C9CF0AC080916D0388234A
:1047100061F0853061F08091E80083FD0AC08091EE
:10472000E80082FFF2CF80E0089582E0089583E000
:10473000089581E008952091740330917503261740
:10474000370748F06115710539F42091E8002E779C
:104750002093E80001C0B901FC0120E0611571055A
:1047600091F180916D03882309F440C0853009F4EC
:104770003FC08091E80083FD3DC08091E80082FD4C
:104780002FC08091E80080FFE9CF2091F300809155
:10479000F20090E0922B6115710559F08830910577
:1047A00040F424912093F1003196615071090196F3
:1047B000F2CF21E0089709F020E08091E8008E77A1
:1047C0008093E800CBCF2111CCCF0AC080916D033C
:1047D000882361F0853061F08091E80083FD0AC094
:1047E0008091E80082FFF2CF80E0089582E0089592
:1047F00083E0089581E00895982F973058F59093BD
:10480000E900981739F07091EC002091ED0050917B
:10481000F00003C0242F762F50E021FF19C0309103
:10482000EB003E7F3093EB003091ED003D7F309305
:10483000ED003091EB0031603093EB007093EC00B1
:104840002093ED005093F0002091EE0027FF07C069
:104850009F5FD3CF8F708093E90081E0089580E05F
:10486000089580916E0387FF11C08091E80082FD5A
:1048700005C080916D038111F8CF11C08091E800CF
:104880008B770BC080916D03882349F08091E800FD
:1048900080FFF8CF8091E8008E778093E80008953C
:1048A0002091E4003091E50095E64091EC00842FE2
:1048B000817040FF22C08091E80080FD1CC0809183
:1048C0006D03882391F0853091F08091EB0085FD98
:1048D00010C04091E4005091E5004217530729F3BE
:1048E0009A01915011F784E0089582E0089583E0E1
:1048F000089581E0089580E008954091E80042FF26
:10490000DECF08950E94F0240E94F824E0EEF0E04B
:10491000808181608083E8EDF0E080818F77808303
:1049200019BCA7EDB0E08C918E7F8C9380818F7E37
:10493000808310926C0308950F931F93CF93DF939E
:104940000E94F0240E94F824C8EDD0E088818F777F
:10495000888388818068888388818F7D888319BC5B
:1049600010926D031092690310926B0310926A0308
:1049700000EE10E0F80180818B7F80838881816068
:10498000888342E060E080E00E94FC23E1EEF0E0FA
:1049900080818E7F8083E2EEF0E080818160808381
:1049A000808188608083F80180818E7F8083888108
:1049B00080618883DF91CF911F910F910895E8ED79
:1049C000F0E080818F7E8083E7EDF0E08081816080
:1049D000808384E082BF81E080936C030C949C24EC
:1049E000E8EDF0E080818E7F80831092E2000895F0
:1049F0001092DA001092E10008951F920F920FB604
:104A00000F9211242F933F934F935F936F937F9354
:104A10008F939F93AF93BF93EF93FF938091E100A8
:104A200082FF0BC08091E20082FF07C08091E1000D
:104A30008B7F8093E1000E9464278091DA0080FFE1
:104A40001FC08091D80080FF1BC08091DA008E7F4C
:104A50008093DA008091D90080FF0DC080E189BD8C
:104A600082E189BD09B400FEFDCF81E080936D0332
:104A70000E94512105C019BC10926D030E945F2154
:104A80008091E10080FF19C08091E20080FF15C095
:104A90008091E2008E7F8093E2008091E20080614D
:104AA0008093E2008091D80080628093D80019BC86
:104AB00085E080936D030E9463218091E10084FF73
:104AC00030C08091E20084FF2CC080E189BD82E18A
:104AD00089BD09B400FEFDCF8091D8008F7D809301
:104AE000D8008091E1008F7E8093E1008091E20008
:104AF0008F7E8093E2008091E20081608093E200EB
:104B000080916903882311F084E007C08091E3005D
:104B100087FD02C081E001C083E080936D030E94A5
:104B200064218091E10083FF29C08091E20083FF2E
:104B300025C08091E100877F8093E10082E080932F
:104B40006D03109269038091E1008E7F8093E100F4
:104B50008091E2008E7F8093E2008091E20080618C
:104B60008093E20042E060E080E00E94FC238091BC
:104B7000F00088608093F0000E946221FF91EF9125
:104B8000BF91AF919F918F917F916F915F914F9165
:104B90003F912F910F900FBE0F901F9018951F926D
:104BA0000F920FB60F9211242F933F934F935F9361
:104BB0006F937F938F939F93AF93BF93CF93DF9325
:104BC000EF93FF93C091E900CF708091EC00D82F54
:104BD000D17080FDD0E81092E9008091F000877FCD
:104BE0008093F00078940E9413261092E90080913F
:104BF000F00088608093F000CD2BCF70C093E90067
:104C0000FF91EF91DF91CF91BF91AF919F918F91E4
:104C10007F916F915F914F913F912F910F900FBEB8
:104C20000F901F9018951F93CF93DF93CDB7DEB7EA
:104C3000AA970FB6F894DEBF0FBECDBFEEE6F3E045
:104C400088E08E0F9091F10091938E13FBCF0E941C
:104C50007A218091E80083FF1FC180916E039091BB
:104C60006F03492F50E04A30510508F015C1FA0191
:104C7000E556FF4F0C94C528803881F0823809F042
:104C80000BC1809172038F708093E9008091EB00DB
:104C900085FB882780F91092E90006C080916A039D
:104CA00090916B03911182609091E800977F9093AF
:104CB000E8008093F1001092F100C8C0282F2D7FEA
:104CC00009F0EAC0882319F0823061F0E5C08091D4
:104CD0007003813009F0E0C0933009F080E08093E8
:104CE0006B032BC080917003811127C080917203E8
:104CF0008F7009F4D1C08093E9002091EB0020FF70
:104D00001CC0933021F48091EB00806214C090911C
:104D1000EB0090619093EB0021E030E0A90102C02C
:104D2000440F551F8A95E2F74093EA001092EA007B
:104D30008091EB0088608093EB001092E9008091F5
:104D4000E800877F86C08111A7C0109170031F778C
:104D50008091E3008078812B8093E3008091E800CC
:104D6000877F8093E8000E9431248091E80080FFD3
:104D7000FCCF8091E30080688093E300111102C0B2
:104D800082E001C083E080936D0386C0805882304A
:104D900008F082C080917003909171038C3D53E0C4
:104DA000950779F583E08A838AE289834FB7F8947F
:104DB000DE01139620E03EE051E2E32FF0E0509355
:104DC0005700E49120FF03C0E295EF703F5FEF7062
:104DD0008E2F90E0EA3010F0C79601C0C0968D93F8
:104DE0009D932F5F243149F74FBF8091E800877F63
:104DF0008093E8006AE270E0CE0101960E943823B9
:104E000014C0AE014F5F5F4F609172030E94672232
:104E1000BC01892B09F440C09091E800977F9093E2
:104E2000E80089819A810E949B238091E8008B771A
:104E30008093E80031C0803879F58091E800877F61
:104E40008093E800809169038093F1008091E800ED
:104E50008E778093E8000E9431241EC081111CC00F
:104E6000909170039230C0F48091E800877F809326
:104E7000E800909369030E943124809169038111B5
:104E800006C08091E30087FD02C081E001C084E09C
:104E900080936D030E9466218091E80083FF0AC021
:104EA0008091E800877F8093E8008091EB0080622A
:104EB0008093EB00AA960FB6F894DEBF0FBECDBF6D
:104EC000DF91CF911F9108950895CF9380916D0345
:104ED0008823A1F0C091E900CF709091EC00892F58
:104EE000817090FD80E8C82B1092E9008091E80065
:104EF00083FD0E941326CF70C093E900CF910895DF
:104F00000E9487276894B1110C94162808950E9476
:104F1000FB2788F09F5798F0B92F9927B751B0F029
:104F2000E1F0660F771F881F991F1AF0BA95C9F72D
:104F300014C0B13091F00E941528B1E008950C948E
:104F40001528672F782F8827B85F39F0B93FCCF341
:104F5000869577956795B395D9F73EF490958095AA
:104F6000709561957F4F8F4F9F4F0895E89409C0CA
:104F700097FB3EF490958095709561957F4F8F4F8C
:104F80009F4F9923A9F0F92F96E9BB279395F695A2
:104F9000879577956795B795F111F8CFFAF4BB0F20
:104FA00011F460FF1BC06F5F7F4F8F4F9F4F16C084
:104FB000882311F096E911C0772321F09EE8872F0E
:104FC000762F05C0662371F096E8862F70E060E0CA
:104FD0002AF09A95660F771F881FDAF7880F969543
:104FE000879597F9089557FD9058440F551F59F02C
:104FF0005F3F71F04795880F97FB991F61F09F3FC6
:1050000079F087950895121613061406551FF2CFEE
:105010004695F1DF08C0161617061806991FF1CF3E
:1050200086957105610508940895E894BB27662765
:105030007727CB0197F908950E942F280C94A02878
:105040000E94922838F00E94992820F0952311F0B0
:105050000C9489280C948F2811240C9416280E94F3
:10506000F32770F3959FC1F3950F50E0551F629F92
:10507000F001729FBB27F00DB11D639FAA27F00DB1
:10508000B11DAA1F649F6627B00DA11D661F829FD8
:105090002227B00DA11D621F739FB00DA11D621FBD
:1050A000839FA00D611D221F749F3327A00D611DDA
:1050B000231F849F600D211D822F762F6A2F1124BC
:1050C0009F5750409AF0F1F088234AF0EE0FFF1FEF
:1050D000BB1F661F771F881F91505040A9F79E3F46
:1050E000510580F00C9489280C9416285F3FE4F356
:1050F000983ED4F3869577956795B795F795E7959C
:105100009F5FC1F7FE2B880F911D9695879597F9A4
:10511000089597F99F6780E870E060E008959FEF39
:1051200080EC089500240A9416161706180609063E
:10513000089500240A94121613061406050608950D
:10514000092E0394000C11F4882352F0BB0F40F495
:10515000BF2B11F460FF04C06F5F7F4F8F4F9F4FD5
:10516000089597FB072E16F4009407D077FD09D019
:105170000E94CB2807FC05D03EF4909581959F4F67
:105180000895709561957F4F0895EE0FFF1F05906C
:10519000F491E02D0994AA1BBB1B51E107C0AA1F83
:1051A000BB1FA617B70710F0A61BB70B881F991FC8
:1051B0005A95A9F780959095BC01CD010895F9996C
:1051C000FECF92BD81BDF89A992780B50895A8E1D8
:1051D000B0E042E050E00C940729262FF999FECF69
:1051E00092BD81BDF89A019700B4021639F01FBA3A
:1051F00020BD0FB6F894FA9AF99A0FBE0895019659
:10520000272F0E94EE280C94ED28DC01CB01FC0135
:10521000F999FECF06C0F2BDE1BDF89A319600B40F
:0E5220000D9241505040B8F70895F894FFCF1A
:10522E000000D60CE60C000000000000000000009C
:10523E000013012F00340020FF0C0328083C071434
:10524E005F20FD20D2209C20622001000D010D0266
:10525E000D030D040D050D000C010C020C030C04C6
:10526E000C050C000B010B020B030B040B050B00C2
:10527E000A010A020A030A040A050A0009010902C0
:10528E0009030904090509000801080208030804B6
:10529E0008050800070107020703070407050700B2
:1052AE0006010602060306040605060005010502B0
:1052BE0005030504050505000401040204030404A6
:1052CE0004050400030103020303030403050300A2
:1052DE0002010202020302040205020001010102A0
:1052EE000103010401050100000100020003000496
:1052FE0000050001020304050607080900404D36AB
:10530E00390107B4067E064506D805F1050A0623BF
:02531E00060087
:00000001FF
