:100000000C94A2030C94E9030C94E9030C94E90307
:100010000C94E9030C94E9030C94E9030C94E903B0
:100020000C94E9030C94E9030C94BC230C948E24E7
:100030000C94021A0C94E9030C94E9030C94E90360
:100040000C94E9030C94E9030C94E9030C94E90380
:100050000C94E9030C946A1A0C94E9030C94E903D8
:100060000C94E9030C94E9030C94E9030C94E90360
:100070000C94E9030C94E9030C94E9030C94E90350
:100080000C94E9030C94E9030C94E9030C94E90340
:100090000C94E9030C94E9030C94E9030C94E90330
:1000A0000C94E9030C94E9030C94E90309070B078A
:1000B00016070D070F0711071307150718071A076B
:1000C0001C0727071E0720072207240726072907E2
:1000D00091109110CB10CB10001120114B128712F0
:1000E0002B118712DB11DB11431287128712821248
:1000F000E811E811E811E811E811E811E811E81138
:10010000E811E811E811E811E811E811E811E81127
:10011000FA1107120E1215121F12021302131413F2
:1001200014130B13141314131413021302131013C8
:10013000141314131013FB241D250B261D250B2649
:10014000622585250B26DA25ED25636F6D6D6974B3
:1001500020006572676F646F782F617665727269CF
:100160006E204020302E352E34302D3232382D671F
:100170003966376632390001E30116021602E3746C
:10018000FF74FF74FF74FF74FF01E0011702170290
:10019000E000751901E10111021102E101250225BA
:1001A0000115021501250225011902190104020495
:1001B00001150215010C020C01E10111021102E10D
:1001C00001250225012802280075190104020401F5
:1001D000140214011A021A0108020801150215017D
:1001E0001602160107020701090209012802280068
:1001F0000000F0A135002B00E200E10003510000F7
:100200001E00140004001D61E3004D001F001A00D1
:1002100016001B00E0024C0020000800070006004A
:1002200004012C42210015000900190029434A004D
:10023000220017000A000500000001002300010051
:100240000000E600000001002200340000002E0241
:100250000000010023001C000B0011000000010041
:10026000240018000D00100050004B0025000C0069
:100270000E00360051002C41260012000F003700FE
:100280005200280027001300334138614F004E0010
:100290002D0000573000010001000000CE5C01007D
:1002A00001000100010000003A001E0220022202AB
:1002B000003001003B001F02210223020130010037
:1002C0003C002F0226022F0001002A003D003002D0
:1002D00027023000E00001003E002E022E00350211
:1002E00000000100010031020000240200000100B2
:1002F00001001E0200003802000001003F00010062
:1003000034002D02000001004000240021001E00E6
:10031000010001004100250022001F0037000100FC
:100320004200260023002000270001004300250290
:10033000010031002E0001004400450001000100D1
:1003400001000000005CD05CBE5CC15CC05C0000D1
:100350001E01CF5C04080100010001001F01010023
:100360000230010001000100200106080E08010012
:10037000FE0001002101150119080B08FD00010014
:100380002201010007080100000001002301010013
:100390000000010000000100220101000000010036
:1003A0000000010023010100F20001000000010033
:1003B0002401F900F100FA00A900010025014A001A
:1003C000F000F600AA00F40026014D00F300010041
:1003D000A800F5000100010006011901010001005B
:1003E00001000100010001000100000035012B01A6
:1003F0000100E101010000001E01140104011D01C2
:10040000010001001F011A0116011B01010001007A
:100410002001080107010601010001002101150169
:100420000901190101000100220117010A0105015A
:1004300000000100230101000000E60100000100AE
:1004400022010100000001000000010023011C0442
:100450002A005100000001002401180128001001A9
:100460005001010025010C010E01360151012C0142
:10047000260112010F013701520101000100520053
:10048000330138014F01010001002F01300101004B
:10049000E101000000000000000000002A2B2800FD
:1004A0000000000000000000000000000000002923
:1004B000000000002C1E3420212224342627252E63
:1004C000362D3738271E1F2021222324252633339B
:1004D000362E37381F0405060708090A0B0C0D0EC7
:1004E0000F101112131415161718191A1B1C1D2F93
:1004F0003130232D350405060708090A0B0C0D0EB3
:100500000F101112131415161718191A1B1C1D2F72
:100510003130354C000000000000000000000000F9
:1005200000000000000000000000000000000000CB
:1005300000000000000101010101010001010101B1
:1005400000000000000000000000000000000100AA
:10055000010001010101010101010101010101018C
:10056000010101010101010101010101010101007C
:100570000000010100000000000000000000000079
:10058000000000000000000000000000000000016A
:100590000101010016034500720067006F0044006E
:1005A0006F007800200045005A0000001603450047
:1005B000720067006F0044006F0078002000450063
:1005C0005A0000000403090409026D00040100A0A0
:1005D000FA090400000103010100092111010001D1
:1005E0002240000705810308000A090401000103F5
:1005F000010200092111010001224D0007058203BB
:1006000008000A0904020001030000000921110189
:1006100000012236000705830308000A09040300CD
:100620000103000000092111010001223900070522
:1006300084032000011201100100000008EDFE07F4
:100640001301000102000105010906A101050719B6
:10065000E029E715002501950875018102050819B3
:100660000129059505750191029501750391010513
:1006700007190029F71500250195F875018102C0B9
:1006800005010980A10185021601002603001A81D7
:10069000002A8300751095018100C0050C0901A195
:1006A000018503160100269C021A01002A9C02758E
:1006B0001095018100C005010902A1010901A100F5
:1006C0000509190129051500250195057501810206
:1006D0009501750381010501093009311581257FD7
:1006E00095027508810609381581257F95017508E1
:1006F0008106050C0A38021581257F950175088150
:1007000006C0C005010906A101050719E029E71582
:100710000025019508750181029501750881010583
:100720000819012905950575019102950175039137
:10073000010507190029FF150026FF009506750819
:100740008100C00011241FBECFEFDAE0DEBFCDBFB5
:1007500004B603FE27C08091F4029091F502A091A7
:10076000F602B091F7028730904BA740B04BD1F41E
:100770001092F4021092F5021092F6021092F70213
:1007800014BE84B7877F84BF0FB6F894A895809174
:100790006000886180936000109260000FBEE0E00E
:1007A000FFE3099511E0A0E0B1E0ECEAFFE402C04C
:1007B00005900D92A03FB107D9F722E0A0EFB1E07C
:1007C00001C01D92A43FB207E1F70E94EB200C94F8
:1007D000D4270C9400001092B9008AE08093B800EE
:1007E000089594EA9093BC009091BC0097FFFCCFD1
:1007F0009091B900987F983021F0903111F081E00C
:1008000008958093BB0084E88093BC008091BC0075
:1008100087FFFCCF8091B900887F883111F0803448
:1008200071F780E0089584E98093BC008091BC005A
:1008300084FDFCCF08958093BB0084E88093BC00C6
:100840008091BC0087FFFCCF9091B900987F81E038
:10085000983209F480E0089584E88093BC00809188
:10086000BC0087FFFCCF8091BB00089580B38C70E3
:1008700080BB81B3836F81BB089580911601811184
:1008800015C080E40E94F1038093160181110CC011
:1008900082E10E941B0480931601811105C08FEF35
:1008A0000E941B04809316010E94130484B1807F70
:1008B00084B985B1807F85B98AB1837F8AB98BB1CC
:1008C000837F8BB93E984698089508950C94BF0590
:1008D0000E940A0B809316010E943D040E94360478
:1008E000A1EFB1E0EFEFF1E08EE08E0F11921D92DB
:1008F0008E13FCCF0C940D080E940A0B80931601F6
:100900000E943D040E943604A1EFB1E0EFEFF1E058
:100910008EE08E0F11921D928E13FCCF0895BF9220
:10092000CF92DF92EF92FF920F931F93CF93DF93BB
:1009300080911601882379F08091F0018F5F809378
:10094000F001811108C00E940A0B809316018111E9
:1009500002C00E949C0A01EF11E0C0E0D0E0EE244A
:10096000E394F12CDD24D39495E0C92EC730D10552
:1009700000F58091160181113CC080E40E94F103D2
:1009800080931601811112C082E10E941B048093A2
:10099000160181110BC0C7010C2E01C0880F0A94EB
:1009A000EAF780950E941B04809316010E941304AD
:1009B00020C0CA30A1F028F4C83059F0C93061F025
:1009C00005C0CC3089F070F0CD3089F0209A28989D
:1009D00010C0219A29980DC0229A2A980AC0239AF9
:1009E0002B9807C0529A01C0539A5B9802C03E9A56
:1009F000469880EA8A95F1F7C730D10518F58091BD
:100A00001601811144C080E40E94F1038093160115
:100A1000882311F0B12C12C083E10E941B04809343
:100A200016018111F7CF81E40E94F1038093160132
:100A30008111F0CF0E942C04B82EB0940E941304B0
:100A40008B2D26C08FB181708D25799902C092E0DF
:100A500001C090E0892B7C9902C024E001C020E015
:100A6000822B7D9902C028E001C020E0822B7E9974
:100A700002C090E101C090E0892B9FB19095991F31
:100A80009927991F9295990F907E892B01C080E03C
:100A9000F8019081981719F08083C09200010E949C
:100AA0003D0421960F5F1F4FCE30D10509F05ECF78
:100AB000809100018823A1F0815080930001882358
:100AC00029F0F5E0FA95F1F700000AC0AFEFB1E0C8
:100AD000E1EFF1E0CF01825F91919D938E13FCCF06
:100AE0000E940F0881E0DF91CF911F910F91FF903D
:100AF000EF90DF90CF90BF900895E82FF0E0E150A5
:100B0000FE4F808108950895FC01613051F018F086
:100B1000623069F012C08281882379F089EC91E01B
:100B200008958281882349F082E991E008958281C5
:100B3000882319F087E791E0089580E090E0089518
:100B40008E3C2CE5920789F020F48D3C9C4531F0D9
:100B500003C0813D9C4588F081E00895FB018281BE
:100B6000882361F00E94851908C0FB0182818823D7
:100B700029F082E591E00E94E20780E0089560910B
:100B800082027091830280918402909185020E947A
:100B9000351956985E9825982D9826982E9827985E
:100BA0002F98823039F0833041F0813041F4259A1A
:100BB0002D9A05C0269A2E9A02C0279A2F9A8091C4
:100BC0002002882379F180911E0290911F020E94D9
:100BD000401A893C910530F1109220020E944C0A83
:100BE00080911402909115020697E1F4809116020B
:100BF00090911702892BB1F48091180290911902FB
:100C0000892B81F480911A0290911B02892B51F457
:100C100080911C0290911D02892B21F48AE491E0BD
:100C20000C94E20708950F931F93CF93DF939C01D9
:100C30003A9521153F4148F5EB018C0190FF03C027
:100C400080EEFB01099511FF03C081EEFE010995BD
:100C500012FF03C082EEFE01099513FF03C083EE6D
:100C6000FE0109950115104180F084EEFE01099501
:100C700085EEFE01099586EEFE01099587EEFE01DF
:100C8000DF91CF911F910F910994DF91CF911F9127
:100C90000F910895877091E001C0990F8A95EAF746
:100CA000892F0E94CC180C940619877091E001C01E
:100CB000990F8A95EAF7892F0E94CC180C9406198F
:100CC000877091E001C0990F8A95EAF7892F0E94F9
:100CD000D2180C940619877091E001C0990F8A957B
:100CE000EAF7892F0E94D2180C940619CF93DF934C
:100CF000EC01805E9109089710F0209719F465E5E2
:100D000076E002C06AE476E0CE010E9413068C2FE2
:100D1000DF91CF910C94260FCF93DF93EC010E94CB
:100D2000F90FCE01805E9109089710F0209719F411
:100D30006BE676E002C060E676E0CE01DF91CF910F
:100D40000C94130681E008950C94A0050E94F01203
:100D50002FEF84E39CE0215080409040E1F700C0F9
:100D600000000C94901A0F931F93CF93DF938C0184
:100D7000FC01C081D181CE010E94B417BE010E9446
:100D80002608EC01B8010E94A406882309F414C1C6
:100D9000B801CE010E94DF0C882309F40DC1B8010F
:100DA000CE010E944D0A882309F406C1B801CE0184
:100DB0000E94590B882309F4FFC0C531FCE5DF0709
:100DC00008F07DC0C2308CE5D80708F452C0F801A5
:100DD0008281882309F459C00E949F19811102C0A1
:100DE0000E9485190E94B21990E09093E6028093C8
:100DF000E502FE01E350FC45E231F10530F4EA5A28
:100E0000FF4F8091E5020C9484278091E502816078
:100E100027C0826025C0846023C0806121C08062B9
:100E20001FC080641DC080681BC08460886018C0BB
:100E30008E7F16C08D7F14C08B7F12C08F7E10C036
:100E40008F7D0EC08F7B0CC08F770AC08B7F877F12
:100E500007C087FB222720F991E0922790FB87F9B2
:100E60008093E5028091E5020E94B6190E94F0127B
:100E7000A3C0C115ECE5DE0779F0C130DC45A1F077
:100E800081E08093110280931202C801DF91CF911B
:100E90001F910F910C94A206F8018281882309F416
:100EA0008BC00E94A60688C0F8018281882309F4BD
:100EB00083C08091AF0281608093AF027DC0C73C48
:100EC0008CE5D80781F5F8018281882361F01092C2
:100ED00012020E94341A9093100280930F0280E253
:100EE0000E94481069C00E94B91881FF05C081E0C6
:100EF00080931102809312028091120281110FC01F
:100F000080910F02909110020E94401A883C910536
:100F100030F487E20E94260F87E20E94F90F80E2F8
:100F20000E944F1049C0C83CECE5DE0780F5C63C86
:100F3000DC4509F0A5CFF8018281882351F0109299
:100F400011020E94341A90930E0280930D0282E0E7
:100F5000C7CF0E94B91885FF05C081E080931102B8
:100F6000809312028091110281110FC080910D02B5
:100F700090910E020E94401A883C910530F486E25E
:100F80000E94260F86E20E94F90F82E0C9CFCA3C78
:100F90008CE5D80731F4F8018281882369F080E07C
:100FA00009C0CB3CDC4509F06BCFF8018281882376
:100FB00019F082E00E947F2180E0DF91CF911F91A4
:100FC0000F9108950F931F93CF938C01F8012491F3
:100FD0002223F9F030E0F901EC56FB4FC491F901FE
:100FE000EC5EFA4F2491222359F081EE0E94260FE5
:100FF0008C2F0E94260F8C2F0E94F90F81EE04C0C7
:101000008C2F0E94260F8C2F0E94F90F0F5F1F4F0D
:10101000DDCFCF911F910F9108950C94F40A0E9497
:10102000800D0C946604282F882339F090E02A3034
:1010300010F44D9608950697089587E290E008957C
:1010400008950C9420080C942108089596E0799F47
:10105000F001112494E5899FE00DF11D1124E60FA4
:10106000F11DEE0FFF1FEC50FE4F859194910895F6
:10107000880F991FFC01E051FE4F859194910895CE
:101080000E9426080E94CE09811520E49207B0F53F
:10109000811540E3940708F0DBC0803E9105D8F449
:1010A000803C910508F069C0883A910578F4853A4A
:1010B000910508F065C08130910509F46EC108F40E
:1010C00025C18430910508F068C120C18D3B910590
:1010D00008F461C01BC18F3F910509F048F4803FBF
:1010E000910508F0AFC0883E910508F456C10EC1C5
:1010F000811560E2960708F0A7C00895811574E590
:101100009707D8F4811523E5920708F0DDC0811513
:1011100041E5940740F4811560E5960708F0A2C008
:101120009F70906A0895811572E5970708F0B6C020
:10113000982F8827816F906A0895811526E5920778
:1011400050F4811545E5940708F0D4C0982F8827FE
:10115000846F906A0895811568E5960708F4D6C0F3
:10116000811579E5970708F4CAC09C01305621150E
:10117000304208F0CBC09F71C7C0805C910965C048
:10118000853A910509F4C5C0863A910509F0C4C0B5
:1011900082E890E40895883A910509F4C0C0893A3C
:1011A000910509F4BFC08A3A910509F4BEC08B3A93
:1011B000910509F4BDC08C3A910509F4BCC08B3B84
:1011C000910509F4BBC08C3B910509F4BAC08D3A76
:1011D000910509F4B9C0803B910509F4B8C08E3A75
:1011E000910509F4B7C08F3A910509F4B6C0813B67
:1011F000910509F4B5C0823B910509F4B4C0833B65
:10120000910509F4B3C0843B910509F4B2C0853B54
:10121000910509F4B1C0863B910509F4B0C0873B44
:10122000910509F4AFC0883B910509F4AEC0893B34
:10123000910509F4ADC08A3B910509F4ACC080E08A
:1012400094E40895906508959F700E943808089569
:101250009C01332793FF03C0C901986C0895C9010D
:10126000906C0895482F437021E030E002C0220FB7
:10127000331F4A95E2F73C68AC0164E05695479508
:101280006A95E1F74370342B8F708695869560E2FE
:10129000869FC0011124822B932B0895482F4695D9
:1012A000469570E2479FA00111248370992721E0A1
:1012B00030E0B90102C0660F771F8A95E2F7CB01D3
:1012C000842B952B9C680895482F4695469570E28F
:1012D000479FA00111248370992721E030E0B901D4
:1012E00002C0660F771F8A95E2F7CB01842B952BFE
:1012F0009A6808958F719927982F882705C0982F8D
:101300008827806F906A08959062089580E090E049
:10131000089581E890E4089583E890E4089582EECA
:1013200094E4089589EE94E408958AEE94E408958F
:1013300085EB94E4089586EB94E4089583EB94E4BC
:10134000089584EB94E4089587EB94E408958CEC7D
:1013500094E408958DEC94E4089583E895E4089569
:101360008AE895E4089582E995E4089584E995E48E
:10137000089581E296E4089583E296E4089584E274
:1013800096E4089585E296E4089586E296E4089549
:1013900087E296E408958AE296E4089582389105FA
:1013A00049F1B0F48133910509F458C048F4893209
:1013B000910509F44EC08A32910509F454C008958C
:1013C0008533910509F440C08933910599F008955A
:1013D000833E910529F138F4803E910591F0823EDB
:1013E0009105A1F00895863E9105F9F0873E91059B
:1013F00031F108952091E50220FD3AC021FD38C069
:1014000008958091E50280FD35C032C08091E502EB
:1014100082FF32C08091E50284FD30C083EE39C086
:101420008091E50282FD28C0F5CF8091E50283FF1F
:1014300027C08091E50284FD21C087EE2AC08091FB
:10144000E50283FD1DC0F5CF8091E50285FD1AC040
:101450001BC08091E50285FD17C014C08091E50294
:1014600086FD14C015C08091E50286FD11C00EC036
:1014700080EE0FC089E30DC082EE0BC080E009C092
:1014800086EE07C089E205C085E303C08AE201C099
:1014900081E390E00895089508950F931F93CF93EB
:1014A000FB012281211102C0C1E041C08C01C09129
:1014B0002002C11125C085319C45B1F70E944B0A1D
:1014C00081E0809320020E94341A90931F0280933F
:1014D0001E02109213021092150210921402109222
:1014E000170210921602109219021092180210920E
:1014F0001B0210921A0210921D0210921C0217C0B9
:1015000080911E0290911F020E94401A883C910512
:1015100058F690911302E92FF0E0EE0FFF1FEC5EFA
:10152000FD4F118300839F5F90931302C0E08C2FC7
:10153000CF911F910F91089556985E9825982D98F8
:1015400026982E9827982F988FEF90E090938900F7
:101550008093880090938B0080938A0090938D00F5
:1015600080938C00259A2D9A2FEF80E792E02150EE
:1015700080409040E1F700C00000269A2E9A2FEF9D
:1015800080E792E0215080409040E1F700C00000E9
:10159000279A2F9A2FEF80E792E0215080409040C9
:1015A000E1F700C0000025982D982FEF80E792E02A
:1015B000215080409040E1F700C0000026982E980E
:1015C0002FEF80E792E0215080409040E1F700C08B
:1015D000000027982F9856985E9825982D98269861
:1015E0002E9827982F98089589EA8093800089E0A3
:1015F0008093810024982C983F988AB18F7C8AB977
:101600006E98479A8BB180638BB9769A0E949C0A38
:101610000C94650480E2809316018091210281116F
:101620000EC00E94EB0381E0809321022FEF83ED37
:1016300090E3215080409040E1F700C0000080E43A
:101640000E94F1038093160181112EC00E941B0499
:1016500080931601811128C00E941B0480931601FB
:10166000811122C08FE30E941B0480931601811117
:101670001BC00E94130480E40E94F10380931601B2
:10168000811112C08CE00E941B048093160181110D
:101690000BC00E941B0480931601811105C08FE3CB
:1016A0000E941B04809316010E941304809116016E
:1016B0000895CF93DF93813020E89207D0F0FB01AB
:1016C00022812223B1F0EC0180912202811109C014
:1016D0008CE090E00E949E270E947D0B81E0809329
:1016E00022020E94840BCE019F770E94420C0E942E
:1016F000FA0B81E0DF91CF91089580932302682F48
:101700008CE090E00C94AC27E0911801F091190165
:1017100080818093E00281FF03C081EE0E94F90F77
:101720008091E00285FF03C085EE0E94F90F809151
:10173000E00280FF03C080EE0E94F90F8091E0027A
:1017400084FF03C084EE0E94F90F8091E00282FFC3
:1017500003C082EE0E94F90F8091E00286FF03C071
:1017600086EE0E94F90F8091E00283FF03C083EEB2
:101770000E94F90F8091E00287FF03C087EE0E946C
:10178000F90F809123028130A1F078F0823011F1BD
:10179000843049F586EE0E94260F86EE0E94F90FEE
:1017A00088E10E94260F88E11CC082EE0E94260F6D
:1017B0001AC080EE0E94260F81EE0E94260F88E15B
:1017C0000E94260F88E10E94F90F81EE0E94F90F16
:1017D00080EE07C082EE0E94260F87E50E94260F4A
:1017E00087E50E94F90F8FE39CE90197F1F700C0AC
:1017F0000000089580912302813029F010F082309A
:1018000041F482EE04C08CE20E94260F8CE20E941A
:10181000F90F8091E00281FF03C081EE0E94260F44
:101820008091E00285FF03C085EE0E94260F809123
:10183000E00280FF03C080EE0E94260F8091E0024C
:1018400084FF03C084EE0E94260F8091E00282FF95
:1018500003C082EE0E94260F8091E00286FF03C043
:1018600086EE0E94260F8091E00283FF03C083EE84
:101870000E94260F8091E00287FF03C087EE0C9440
:10188000260F0895EF92FF921F93CF93DF937C0171
:10189000CCE0D0E097010C2E02C0369527950A9433
:1018A000E2F7122F1F70812F0E9413080E94260F4B
:1018B000812F0E9413080E94F90F2497CC3F8FEFCD
:1018C000D80741F7DF91CF911F91FF90EF900895D6
:1018D000CF93DF93FC012685211113C0EC0181E039
:1018E000868787810E94BC180E940619EA81FB81C5
:1018F0006F857889CE010696309719F0DF91CF91E8
:101900000994DF91CF910895FC018081813021F409
:10191000FB018081918105C0823029F4FB01828125
:1019200093810C9476060895FC018081813021F426
:10193000FB018081918105C0823029F4FB01828105
:1019400093810C948C0608950F931F93CF93DF938C
:10195000FC01278121112EC0EC0102811381175552
:1019600021E1209FC001219F900D1124DC01AF5F78
:10197000BE4F1496ED91FC9115971F966D917C9139
:101980005097895F9E4F309709F0099581E1809FBC
:10199000F001819FF00D1124EF5FFE4F87810E94BF
:1019A000C2180E94061918821E82188610922502FB
:1019B00010922402DF91CF911F910F910895EF9221
:1019C000FF920F931F93CF93DF938C01809124029A
:1019D00090912502009771F08017910759F0975563
:1019E00021E1289FF001299FF00D1124EF5FFE4FA8
:1019F00081E08487C8019755FB0142818F3F9105A3
:101A000011F008F052C020911701022E000C330B88
:101A10002817390714F48093170121E1289F7001DA
:101A2000299FF00C1124E701CF5FDE4F4D87FB01AA
:101A30008281882309F45CC0198708878E818F5FB3
:101A40008E830E94341A9B878A870E94F2188F83A4
:101A5000E881F9816F857889C701895F9E4F30974A
:101A600009F0099580912402909125020097C1F018
:101A700080179107A9F09C01375581E1829FE00111
:101A8000839FD00D1124CE018F5F9E4F21E0FC017A
:101A900024870E94680CCE01895F9E4F0E94A40C8F
:101AA000109325020093240223C0442309F180915E
:101AB00017018F3FE9F0C7E0D1E000E010E0FF241C
:101AC000F39480911701082E000C990B8017910751
:101AD0007CF08881882341F0FE82CE0106970E9427
:101AE000680CCE010E94A40C0F5F1F4F6196E9CFD6
:101AF00081E0DF91CF911F910F91FF90EF900895BA
:101B00000F931F93CF93DF93809117018F3F09F1BC
:101B1000C7E0D1E000E010E080911701082E000C32
:101B2000990B80179107ACF08881882371F08C8124
:101B30009D810E94401A893C910538F0CE0106979C
:101B40000E94680CCE010E94A40C0F5F1F4F61968B
:101B5000E3CFDF91CF911F910F91089590932B02C6
:101B600080932A020895E0912A02F0912B02309787
:101B700021F00190F081E02D099480E00895E0913A
:101B80002A02F0912B02309721F00280F381E02DA0
:101B900009940895E0912A02F0912B02309721F0E8
:101BA0000480F581E02D0994089520912802309158
:101BB00029028217930771F09093290280932802DB
:101BC000E0912A02F0912B02309721F00680F781F4
:101BD000E02D099408952091260230912702821762
:101BE000930771F09093270280932602E0912A02D6
:101BF000F0912B02309721F00084F185E02D0994BB
:101C0000089508950C94010E0E942B1A0E946804F6
:101C10000C94B21ACF92DF92EF92FF920F931F9320
:101C2000CF93DF93CDB7DEB72B970FB6F894DEBF17
:101C30000FBECDBF0E948F048DE2C82E82E0D82E49
:101C400000E010E0E02E802F0E947D05F60141911A
:101C50006F01F42EF826B1F40F5F1F4F0E301105FF
:101C600089F78FEF89838A831B820E94341A8160EF
:101C7000782F9D838C8349815A816B818D810E944D
:101C8000E90E40C09091AF0291FF04C08B870E9483
:101C900083058B8520E030E04F2D50E0922FBA0174
:101CA000022E02C0759567950A94E2F760FF24C082
:101CB0002E83EF8221E030E0690102C0CC0CDD1CF4
:101CC0009A95E2F790E08C219D21892B09F420E080
:101CD00028870E94341A8160782F9A8789874E81DD
:101CE0005F8168858A850E94E90EF801E35DFD4FFA
:101CF0008081C826C08206C02F5F3F4F2630310545
:101D000069F6AACF0E94451C10912C020E94B30DC7
:101D10001817A1F00E94B30D80932C022B960FB6DA
:101D2000F894DEBF0FBECDBFDF91CF911F910F9111
:101D3000FF90EF90DF90CF900C9423082B960FB676
:101D4000F894DEBF0FBECDBFDF91CF911F910F91F1
:101D5000FF90EF90DF90CF900895DC0111962C91C9
:101D600011978C91682F70E041E050E001C0440F62
:101D70008A95EAF712968C91129730E0882329F021
:101D8000809149028823E9F006C0F901E55CFD4F26
:101D900090819423B1F086E0829FF001839FF00D43
:101DA0001124E60FF71FEE0FFF1FE65DFE4F808147
:101DB00091818D939C93F901E55CFD4F8081482BC7
:101DC00006C0F901E55CFD4F4095808148234083C2
:101DD0000895CF93DF93CDB7DEB72B970FB6F89466
:101DE000DEBF0FBECDBF942F4F83252F5887698745
:101DF0007A878B874A855B85452B21F02F3F09F534
:101E00009F3FF9F4DE01119686E0FD0111928A955B
:101E1000E9F785E0FE01379601900D928A95E1F78A
:101E200049815A816B817C818D819E810E948815B8
:101E30002B960FB6F894DEBF0FBECDBFDF91CF91CA
:101E40000895CE0107960E94AD0EDCCFCF93882374
:101E500009F4CDC0C82F823859F40E94B30D81FD1A
:101E6000C6C089E30E9433180E94061989E30CC09A
:101E7000833879F40E94B30D80FDB9C083E50E94D8
:101E800033180E94061983E50E947518CF910C94AF
:101E90000619843859F40E94B30D82FDA8C087E466
:101EA0000E9433180E94061987E4EECF8CEF8C0F46
:101EB000813A48F48C2F0E94851E811198C08C2F86
:101EC0000E943318E3CF80E28C0F883048F4C7704B
:101ED00081E001C0880FCA95EAF70E94BC18D6CFEE
:101EE0008BE58C0F833078F4C53A29F0C63A31F08F
:101EF00083E890E005C081E890E002C082E890E0CD
:101F0000CF910C94D50D88E58C0F853108F06FC00A
:101F1000C83A61F1C93A69F1CA3A71F1CB3A79F13B
:101F2000CC3A81F1CB3B89F1CC3B91F1CD3A99F19F
:101F3000C03BA1F1CE3AA9F1CF3AB1F1C13BB9F121
:101F4000C23BC1F1C33BC9F1C43BD1F1C53BD9F19F
:101F5000C63BE1F1C73BE9F1C83BF1F1C93BF9F1FF
:101F6000CA3B09F43FC080E090E03EC082EE90E0C2
:101F70003BC089EE90E038C08AEE90E035C085EB3A
:101F800090E032C086EB90E02FC083EB90E02CC055
:101F900084EB90E029C087EB90E026C08CEC90E0C9
:101FA00023C08DEC90E020C083E891E01DC08AE85A
:101FB00091E01AC082E991E017C084E991E014C071
:101FC00081E292E011C083E292E00EC084E292E0EE
:101FD0000BC085E292E008C086E292E005C087E28D
:101FE00092E002C08AE292E0CF910C94EB0DCF9187
:101FF0000895882309F44BC0823859F40E94B30D28
:1020000081FF45C089E30E9433180E94061989E3C5
:102010000CC0833871F40E94B30D80FF38C083E593
:102020000E9433180E94061983E50E9475180C94CB
:102030000619843859F40E94B30D82FF28C087E442
:102040000E9433180E94061987E4EFCF9CEF980F87
:10205000913A58F390E2980F983050F4877091E0DD
:1020600001C0990F8A95EAF7892F0E94C218DFCF25
:102070009BE5980F933020F480E090E00C94D50D10
:10208000885A853120F480E090E00C94EB0D08959F
:10209000882321F00E94BC180C9406190895882307
:1020A00021F00E94C2180C94061908958F929F92F5
:1020B000AF92BF92CF92DF92EF92FF920F931F9356
:1020C000CF93DF931F92CDB7DEB77C01C72EFC0103
:1020D000058102950F701281112321F069830E94FE
:1020E000D918698169830E942C186981882381F03D
:1020F000112371F080E2860F883050F082E00E9458
:1021000015180E942C1891E0D82ED926698101C09B
:10211000D12CEC2DE295EF70F0E0E859FF4F0C94D4
:1021200084278C2D807F0C2D0F70882311F0029551
:10213000007F1123C1F0002309F49BC180E2860FC8
:10214000883010F0611105C0802F69830E94BC188F
:1021500004C0802F69830E94CC18698169830E9422
:102160000619698186C1862F69830E94F90F6981EA
:10217000002309F4CCC180E2860F883010F0611191
:1021800004C0802F0E94C21803C0802F0E94D21862
:102190000E940619BCC19C2D907F8C2D8F709032AF
:1021A00011F08295807F662319F06130B1F01EC076
:1021B000112349F0002309F414C1013009F011C1C1
:1021C0000E94EC18A4C1002319F0013009F49FC14A
:1021D00089830E94EF1889810AC1112321F00230FE
:1021E00008F095C1FEC0011192C101C1112321F077
:1021F000002309F4F6C03DC1002309F4F8C03FC133
:102200008C2D86958695837090E0009719F0019744
:1022100061F07DC1112321F0862F9C2D937002C0A7
:1022200080E090E00E94D50D72C1112321F0862F2D
:102230009C2D937002C080E090E00E94EB0D67C17E
:10224000862F112319F00E944D1B02C00E94B51B5E
:102250000E943A1C5CC18C2D837009F052C0111190
:1022600056C1862F829586958770880F880F962F86
:102270009F70892E912CA12CB12C082E04C0880CA3
:10228000991CAA1CBB1C0A94D2F764FF14C00FE06F
:1022900010E020E030E0B901A80104C0440F551F50
:1022A000661F771F8A95D2F7CB01BA0160957095AA
:1022B0008095909503C060E070E0CB012C2D2695B1
:1022C0002695237030E02230310569F02330310546
:1022D00089F0682979298A299B292130310571F0F3
:1022E0000E94CB1614C1682979298A299B290E944A
:1022F000DD160DC10E94CB16C501B4010E94B916AE
:1023000006C1112319F08C2D817001C08695882398
:1023100009F4FDC0862F829586958770880F880FF7
:10232000962F9F70892E912CA12CB12C082E04C0C1
:10233000880C991CAA1CBB1C0A94D2F764FF14C019
:102340000FE010E020E030E0B901A80104C0440F24
:10235000551F661F771F8A95D2F7CB01BA0160958A
:1023600070958095909503C060E070E0CB012C2DB6
:10237000269526952370422F50E04230510569F092
:102380004330510589F0682979298A299B294130F0
:10239000510571F00E948F17BAC0682979298A29DE
:1023A0009B290E94A117B3C00E948F17C501B401D9
:1023B0000E947D17ACC0862F90E0FC01E05EF10921
:1023C000E531F10508F051C0E858FF4F0C9484271F
:1023D000062F0F708C2D8F71112331F00E9416176C
:1023E000802F0E94481093C00E943717802F0E94B0
:1023F0004F108DC0112339F0011189C08C2D8F71C0
:102400000E945C1784C0023008F081C0F7CF11230E
:1024100039F08C2D8F710E94161779C01123C9F3E2
:102420008C2D8F710E94371772C0112329F08C2DCB
:102430008F710E9401176BC00E94FC1668C01123A7
:1024400051F01C2D1F71812F0E94161763E0812F00
:102450000E940C185CC081E00E941518023008F43C
:1024600056C082E00E94151852C0112331F000239B
:1024700081F2862F0E94260F4AC0002389F2862F00
:102480000E94F90F44C04C2D4F70C7010E94840573
:102490000E942C163CC0623F99F128F4603F49F03D
:1024A000613FE1F020C0643FA1F050F0653F59F07A
:1024B0001AC0112339F19091490281E0892706C0A1
:1024C00081E018271DC011111DC081E080934902D1
:1024D00019C0111117C01092490214C0002381F0D5
:1024E000111110C0E8CF002359F0862F6983112302
:1024F00019F00E94260F02C00E94F90F698102C0E4
:10250000109349024C2D4F70C7010E942508DD2011
:10251000F1F00E94081880FD1AC0F70112820E9493
:1025200002180E941617C7010E94B5120E940218D5
:102530000F90DF91CF911F910F91FF90EF90DF905F
:10254000CF90BF90AF909F908F900C9437170F90C3
:10255000DF91CF911F910F91FF90EF90DF90CF907F
:10256000BF90AF909F908F9008950F931F93CF933C
:10257000DF93EC01888199812B813C81232BB9F079
:102580009F3F11F48F3F99F0CE010E94B30688233C
:1025900071F0688179818A810E94FE178C010E9406
:1025A000B3170E94B616B801CE010E945610DF91F3
:1025B000CF911F910F9108950E94D9180E94E91898
:1025C0000E94AB180E9406190E94EA1C0E943A1C45
:1025D00080E090E00E94D50D80E090E00C94EB0D3F
:1025E0000E94C9180C94DC120E94F317E92FE2959F
:1025F000EF70F0E03297EE30F105B0F4E357FF4FA3
:102600000C948427803F91F018F4803E68F40EC04B
:10261000843F51F40BC0803E48F0813F29F406C04E
:1026200093FB882780F9089580E0089581E008955C
:10263000CF93DF9300D000D01F92CDB7DEB70F90BD
:102640000F900F900F900F90DF91CF910895CF933F
:10265000DF9300D000D000D0CDB7DEB726960FB6FE
:10266000F894DEBF0FBECDBFDF91CF9108951F93C9
:10267000CF93DF93C0914A0216E080914B02C817B6
:1026800099F0D0E01C9FF0011D9FF00D1124E45B38
:10269000FD4F4081518162817381848195810E94C7
:1026A00027132196C770E9CFDF91CF911F9108952D
:1026B00040917C0250917D0260917E0270917F0278
:1026C00080918002909181020C9427138091810265
:1026D00082958F7009F054C080917E02882309F49E
:1026E0004FC080914A02A0914B0260917C02709190
:1026F0007D0240917F0250918002B6E08A1709F472
:102700003FC090E041155105C1F17F3F11F46F3F8B
:10271000A1F1B89FF001B99FF00D1124E45BFD4FCA
:10272000218172132AC02081621327C022812111C6
:1027300024C0238134812417350710F42150310936
:10274000241B350B283C3105C0F4209181022F70E9
:1027500020612093810226E0289FF001299FF00D3F
:102760001124EF5AFD4F80818F70806180838CE748
:1027700092E00E94B5120C94371301968770BECF79
:102780000895CF92DF92EF92FF920F931F93CF9312
:10279000DF93CDB7DEB762970FB6F894DEBF0FBEFA
:1027A000CDBF8C0185E0F801DE011D9601900D92F0
:1027B0008A95E1F7D8014C9111965C911197129688
:1027C0006C9112971396CD90DC90149730917C0207
:1027D00070917D0280917F0290918002009709F4B0
:1027E0006BC17F3F19F43F3F09F466C1E0907E0260
:1027F000EE2009F4C0C020918102C816D90628F045
:10280000F601E81BF90BCF0104C0809590958C0D63
:102810009D1DFF24F394883C910578F0F12C207FD6
:1028200009F0C6C07C2DD98AC88A89890E941813EC
:102830008CE792E00E94B512B1C0822F807F09F030
:1028400046C0751314C0341312C0611110C02F702C
:102850002061209381020E9458138CE792E00E942D
:10286000B51280918102D80115968C932EC0CD2887
:1028700019F15F3F11F44F3FF9F0F62E61111CC0C2
:1028800080914A0220914B0236E0821709F45AC027
:1028900090E0389FF001399FF00D1124E45BFD4F6B
:1028A0007181571306C07081471303C07281711183
:1028B00003C001968770E9CFF62E662309F418C18C
:1028C00080918102816080938102F12C11C1751386
:1028D00008C0341306C0611104C080918102D80180
:1028E000C3C04D875E878D859E856A8B0E94F412DA
:1028F0006A898823E1F16623D1F120918102822F38
:1029000082958F7090E0029774F080917C02909194
:102910007D0298878F831986DB86CA862C87CE0135
:1029200007960E94B51286E0F801ACE7B2E001908C
:102930000D928A95E1F70E9466130E945813FF24B6
:10294000F394D6C04D875E878D859E850E94F317D0
:10295000292F22952F7030E0223031050CF0BCC0B9
:102960009F7009F0B6C0805E883008F4C1C0C8010D
:102970000E94B512E4CFC816D90608F453C0F60178
:10298000E81BF90BCF01883C910508F450C0F12CED
:102990007C2DD98AC88A89890E941813ECE7F2E055
:1029A00086E0DF011D928A95E9F70E945813A0C0C6
:1029B000751314C0341312C0611110C080918102CC
:1029C000F8018583C8010E94B51286E0ECE7F2E0C9
:1029D000DF011D928A95E9F7FE2C8AC04D875E873C
:1029E0008D859E856A8B0E94F4126A89882309F47A
:1029F000BECF662309F4BBCF20918102822F82953E
:102A00008F7090E002970CF48ECF80917C029091B1
:102A10007D029A8389831B82DD82CC822E83CE0144
:102A200001967FCF809590958C0D9D1DACCFF62E95
:102A3000662309F49CCF75132EC034132CC020914B
:102A4000810220FD1FC0822F82958F70D9F0D8019E
:102A500015962C9315978F3049F08F5F982F92958C
:102A6000907F822F8F70892B15968C93C8010E94BE
:102A7000B51286E0F801ACE7B2E001900D928A95BC
:102A8000E1F793CF86E0F801ACE7B2E001900D9258
:102A90008A95E1F72DC04D875E878D859E850E94C2
:102AA000F412811140CF8091810281608093810274
:102AB000C8010E94B5121CC0662309F458CF4D8787
:102AC0005E878D859E850E94F412882309F44FCF7E
:102AD0002ACF811148CF0CC0243031050CF047CFEC
:102AE0009F7009F440CFF8019581907F09F03BCFAA
:102AF0008F2D62960FB6F894DEBF0FBECDBFDF916B
:102B0000CF911F910F91FF90EF90DF90CF9008959C
:102B10001F93CF93DF93CDB7DEB72C970FB6F89402
:102B2000DEBF0FBECDBF4F83588769877A878B87FB
:102B30009C87CE0107960E94C113882369F08F817C
:102B400098852A853B85232BF1F19F3F09F063C0CF
:102B50008F3F09F060C037C086E0FE013796DE0186
:102B6000119601900D928A95E1F76F817885EA853B
:102B7000FB85309741F17F3F11F46F3F21F12091A8
:102B80004B0230E0C90101968770992740914A02B3
:102B900050E08417950709F447C069837A83FD8361
:102BA000EC8396E0929FD001939FB00D1124A45B1B
:102BB000BD4FFE01319601900D929A95E1F78093F9
:102BC0004B020E94371316E080914A0290914B020B
:102BD0008917C1F1189FC0011124845B9D4F0E9489
:102BE000C113882379F1E0914A021E9FF00111245C
:102BF000E45BFD4F408151816281738184819581C5
:102C00000E94271380914A0290E0019687709927CD
:102C100080934A02D9CF4F81588569857A858B8503
:102C20009C850E942713CFCF0E94F01210924B0276
:102C300010924A02ECE7F2E086E0DF011D928A95ED
:102C4000E9F7C1CF2C960FB6F894DEBF0FBECDBF0B
:102C5000DF91CF911F910895EF92FF920F931F93F1
:102C6000CF93DF938C01892B09F46CC0F12CEE24F7
:102C7000E394E8012196F8018491843740F484308C
:102C800008F051C0813081F0823019F15BC0853786
:102C900009F444C0A8F19CE7980F903708F052C09F
:102CA0008F770E94F90F41C00E5F1F4FFE01C49144
:102CB00080E28C0F883048F4C7708E2D01C0880FD9
:102CC000CA95EAF70E94DC1814C08C2F0E94260FC8
:102CD0002DC00E5F1F4FFE01C49180E28C0F883023
:102CE00058F4C7708E2D01C0880FCA95EAF70E946C
:102CF000E2180E9406191AC08C2F0E94F90F16C004
:102D00000E5F1F4FFE01C491CC2381F08FE99FE03D
:102D10000197F1F700C00000C150F6CF0E5F1F4FC2
:102D2000FE01F49003C00E94260F8E018F2D882390
:102D300009F49FCFEFE9FFE03197F1F700C0000001
:102D40008150F5CFDF91CF911F910F91FF90EF90C0
:102D5000089508950E94A9166093860270938702D1
:102D600080938802909389020C94DC1208950C944D
:102D7000AA160F931F93009186021091870220914B
:102D8000880230918902602B712B822B932B1F912B
:102D90000F910C94AA160F931F9300918602109125
:102DA0008702209188023091890260237123822357
:102DB00093231F910F910C94AA160F931F930091C8
:102DC0008602109187022091880230918902602743
:102DD0007127822793271F910F910C94AA160895AB
:102DE0000E94EF16609382027093830280938402A4
:102DF000909385020C94DC1260E070E0CB010C949F
:102E0000F0160F931F9341E050E060E070E08A01FC
:102E10009B0104C0000F111F221F331F8A95D2F798
:102E2000C901B8011F910F910C94F0160F931F93D5
:102E300041E050E060E070E004C0440F551F661FA1
:102E4000771F8A95D2F78091820290918302A09198
:102E50008402B09185028A019B01082B192B2A2B31
:102E60003B2BC901B8011F910F910C94F0160F93E1
:102E70001F9341E050E060E070E004C0440F551F34
:102E8000661F771F8A95D2F740955095609570958B
:102E90008091820290918302A0918402B091850278
:102EA0008A019B01082319232A233B23C901B80166
:102EB0001F910F910C94F0160F931F9341E050E077
:102EC00060E070E004C0440F551F661F771F8A95AD
:102ED000D2F78091820290918302A0918402B091F6
:102EE00085028A019B01082719272A273B27C90148
:102EF000B8011F910F910C94F0160F931F9300913E
:102F00008202109183022091840230918502602B0D
:102F1000712B822B932B1F910F910C94F0160F9312
:102F20001F930091820210918302209184023091BC
:102F3000850260237123822393231F910F910C94A8
:102F4000F0160F931F93009182021091830220913B
:102F500084023091850260277127822793271F9171
:102F60000F910C94F0160895CF92DF92EF92FF929A
:102F70000F931F93CF93DF938C01C0908602D09064
:102F80008702E0908802F0908902809182029091FD
:102F90008302A0918402B0918502C82AD92AEA2A24
:102FA000FB2ACFE1D0E0D701C6010C2E04C0B695B4
:102FB000A795979587950A94D2F780FF06C0B80128
:102FC0008C2F0E944008019721F4219760F780E040
:102FD00001C08C2FDF91CF911F910F91FF90EF9047
:102FE000DF90CF900895CF93DF93EC010E94B41748
:102FF000BE010E944008DF91CF910895CB010E944D
:10300000F317089580918A02859585958595089591
:1030100080918A028770089598E0899F9001112419
:10302000262B20938A020C94161720918A028095F1
:10303000822380938A02982F977069F430E0482F9A
:10304000082E000C550B2417350729F0859585951A
:1030500085950C943717089590918A02977081E0B6
:1030600009F480E0089590912901992321F090912D
:10307000E50297FD09C02091180130911901F9016D
:1030800032969FEF40E01FC0982F969596959695A3
:103090009F3150F5E0911801F0911901E90FF11DF0
:1030A000877021E030E0A90102C0440F551F8A95C6
:1030B000E2F7CA019181892B818308959F3F39F0FE
:1030C0004F5F4E3141F051915813F8CF0DC051115F
:1030D000F7CF942FF5CF9F3F39F0F901E90FF11D9C
:1030E00097FDFA9582830895089590912901992377
:1030F00021F09091E50297FD09C0209118013091CF
:103100001901F9013296205E3F4F1FC0982F969506
:10311000969596959F31F0F4E0911801F091190180
:10312000E90FF11D877021E030E0A90102C0440FD2
:10313000551F8A95E2F7CA01809591818923818381
:1031400008953196E217F30729F090819813F9CF8B
:103150001082F7CF089581E090E0E0911801F0919E
:103160001901E80FF91F1082019680329105A9F725
:1031700008958091AE0208959091AE02892B8093BC
:10318000AE02089580959091AE0289238093AE029D
:1031900008951092AE0208959091AD02892B80930C
:1031A000AD02089580959091AD0289238093AD0280
:1031B00008951092AD0208959091AC02892B8093EE
:1031C000AC02089580959091AC0289238093AC0263
:1031D00008951092AC02089580938B020895109286
:1031E0008B02089580918B0208958091180190912F
:1031F0001901FC0131969C01205E3F4F80E09191C6
:1032000091118F5FE217F307D1F70895E09118014C
:10321000F09119018091AE028083E0911801F09144
:10322000190190818091AD02892B8083E091180172
:10323000F091190190818091AC02892B808380915B
:103240008B02882361F0E0911801F09119019081BF
:10325000892B80830E94F518811110928B02809136
:103260001801909119010C94BF0DCF92DF92EF924B
:10327000FF926C01EE24FF24C114D104E104F10497
:1032800021F0C701B60120E101C020E0C72ED82EF1
:10329000E92EFF24C114D104E104F10419F0285FE0
:1032A000C701B6016B017C0154E0F694E794D79412
:1032B000C7945A95D1F7C114D104E104F10419F06F
:1032C0002C5FC701B6016B017C0142E0F694E794E4
:1032D000D794C7944A95D1F7C114D104E104F104FD
:1032E00019F02E5FC701B601DC01CB01B695A79599
:1032F00097958795892B8A2B8B2B09F02F5F822F2F
:10330000FF90EF90DF90CF9008956DEE7EEF80E01C
:1033100090E00E94BE2760E082E090E00E94AC272F
:1033200060E083E090E00E94AC2760E084E090E001
:103330000E94AC2760E085E090E00C94AC2780E030
:1033400090E00E94A62721E08D3E9E4F09F020E0EC
:10335000822F089582E090E00C949E2783E090E015
:103360000C949E2784E090E00C949E27682F84E0C4
:1033700090E00C94AC278091EB02843039F11092EC
:10338000B00220E488E190E00FB6F894A89580930D
:1033900060000FBE2093600080E00E94230883B786
:1033A000817F846083BF83B7816083BF7894889571
:1033B00083B78E7F83BF0FB6F894A8958091600085
:1033C000886180936000109260000FBE0895089598
:1033D000CF930E947C040E948F040E94E719C0E0F2
:1033E0008C2F0E947D05811104C0CF5FCE30C1F7C4
:1033F00001C081E0CF9108950E94F0120E94B30DA8
:103400000C9423081F920F920FB60F9211248F93E2
:103410009F93AF93BF938091B002811113C08091AD
:10342000E1029091E202A091E302B091E4024196A0
:10343000A11DB11D8093E1029093E202A093E302EB
:10344000B093E402BF91AF919F918F910F900FBE07
:103450000F901F90189582E084BD93E095BD9AEF80
:1034600097BD80936E0008952FB7F8948091E10284
:103470009091E202A091E302B091E4022FBF08957F
:10348000CF92DF92EF92FF920F931F932FB7F89492
:103490004091E1025091E2026091E3027091E402F6
:1034A0002FBF6A017B01EE24FF248C0120E030E075
:1034B000C016D106E206F30610F4415051099A01F4
:1034C000281B390BC9011F910F91FF90EF90DF90DE
:1034D000CF90089578941F920F920FB60F921124F7
:1034E0008F939F93AF93BF938091E1029091E202FB
:1034F000A091E302B091E4020196A11DB11D809359
:10350000E1029093E202A093E302B093E402BF9140
:10351000AF919F918F910F900FBE0F901F901895B4
:103520000E944123F8942FEF87EA91E621508040D2
:103530009040E1F700C0000087E090EBDC01809351
:10354000F4029093F502A093F602B093F7029CE088
:1035500088E10FB6F894A895809360000FBE909311
:103560006000FFCF0E949F19811102C00E9485193F
:103570000E94AA198093AF020E94B21990E0909322
:10358000E6028093E5020E94AE19682F70E080E0A9
:1035900090E00C94B7168091B40280FF0BC060914C
:1035A0001D0185E0689FB00111247595679575959B
:1035B00067952BC081FF09C060911D0185E0689F60
:1035C000B00111247595679520C082FF07C06091F6
:1035D0001D0185E0689FB001112417C09091B502CC
:1035E0009923D1F060911C01961788F720911D0155
:1035F00085E0289F90011124929FA001939F500D78
:10360000112470E0CA010E9470276038710540F4EF
:103610006115710539F002C065E070E0862F0895EC
:103620008FE7089581E008958091B40280FF08C07B
:1036300060911B0170E0759567957595679521C040
:1036400081FF06C060911B0170E07595679519C0F8
:1036500082FF04C060911B0170E010C09091B50220
:103660009923C1F060911A019617A0F780911B0170
:10367000899FC001112470E00E9470276038710595
:1036800028F46115710521F0862F08958FE70895BC
:1036900081E0089561E070E0F4CF803F21F40E9462
:1036A000CB1A819504C0813F29F40E94CB1A8093E4
:1036B000B8020895823F21F40E94CB1A819504C07C
:1036C000833F29F40E94CB1A8093B7020895893F63
:1036D00019F40E94141B05C08A3F31F40E94141B88
:1036E00081958093B90208958B3F21F40E94141BA9
:1036F000819504C08C3F29F40E94141B8093BA0268
:103700000895843F21F48091B602816017C0853FFF
:1037100021F48091B602826011C0863F21F480912D
:10372000B60284600BC0873F21F48091B6028860A6
:1037300005C0883F31F48091B60280618093B60263
:1037400008958D3F21F48091B40281600BC08E3FBB
:1037500021F48091B402826005C08F3F29F48091EA
:10376000B40284608093B4020895803F39F480915C
:10377000B80287FF6CC01092B80269C0813F29F47B
:103780008091B8021816BCF362C09091B702823FD4
:1037900029F497FF5CC01092B70259C0833F19F417
:1037A0001916CCF354C0893F41F48091B902181620
:1037B0000CF04DC01092B9024AC08A3F29F48091A2
:1037C000B90287FF44C0F6CF8B3F39F48091BA022B
:1037D00087FF3DC01092BA023AC08C3F29F4809115
:1037E000BA021816BCF333C0843F21F48091B602AC
:1037F0008E7F17C0853F21F48091B6028D7F11C066
:10380000863F21F48091B6028B7F0BC0873F21F465
:103810008091B602877F05C0883F31F48091B6025F
:103820008F7E8093B60213C08D3F21F48091B40245
:103830008E7F0BC08E3F21F48091B4028D7F05C036
:103840008F3F29F48091B4028B7F8093B4028091E2
:10385000B70281110EC08091B80281110AC0809117
:10386000B902811106C08091BA02811102C0109282
:10387000B502089586EB92E00E94CA0D0E94341AA8
:103880009093B2028093B10208951F93CF93DF9378
:103890008091B1029091B2020E94401AAC019091C5
:1038A000B502992321F020911E0130E006C020913D
:1038B000B3028AE0289F900111244217530708F4AD
:1038C00085C08091B702C091B802D091B902109121
:1038D000BA02811107C0C11175C0D11173C0111195
:1038E00071C074C09F3F19F09F5F9093B502181686
:1038F00024F40E94CB1A8093B7028091B70287FF0D
:1039000005C00E94CB1A81958093B7021C1624F43F
:103910000E94CB1A8093B8028091B80287FF05C03D
:103920000E94CB1A81958093B8026091B7026623FA
:1039300031F1C091B802CC2311F1062E000C770BA7
:10394000880B990B0E94772623E333E343E35FE37D
:103950000E94DB260E943F266093B7026C2FCC0F9B
:10396000770B880B990B0E94772623E333E343E31D
:103970005FE30E94DB260E943F266093B8021D167B
:1039800024F40E94141B8093B9028091B90287FF2E
:1039900005C00E94141B81958093B902111624F46E
:1039A0000E94141B8093BA028091BA0287FF05C05F
:1039B0000E94141B81958093BA02DF91CF911F91D1
:1039C0000C943A1C9F3F09F08FCF97CFDF91CF9196
:1039D0001F910895E6EBF2E085E0DF011D928A95E4
:1039E000E9F71092B5021092B4020895833081F184
:1039F00028F4813059F08230D1F00895853009F4EF
:103A000049C0B8F1863009F456C008958091B302D8
:103A1000262F30E0280F311D2F3F310524F4680F89
:103A20006093B30208958FEF8093B302089580915D
:103A30001E01262F30E0280F311D2F3F310524F4C1
:103A4000680F60931E0108958FEF80931E01089503
:103A500080911D01262F30E0280F311D2F3F3105A9
:103A600024F4680F60931D0108958FEF80931D016A
:103A7000089580911C01262F30E0280F311D2F3F23
:103A8000310524F4680F60931C0108958FEF809333
:103A90001C01089580911B01262F30E0280F311D55
:103AA0002F3F310524F4680F60931B0108958FEFB9
:103AB00080931B01089580911A01262F30E0280F72
:103AC000311D2F3F310524F4680F60931A010895CA
:103AD0008FEF80931A010895833011F128F481301B
:103AE00049F0823091F00895853081F120F18630DF
:103AF000C1F108958091B302681720F4861B80936A
:103B0000B30208951092B302089580911E016817C0
:103B100020F4861B80931E01089510921E010895C3
:103B200080911D01681720F4861B80931D01089564
:103B300010921D01089580911C01681720F4861BC6
:103B400080931C01089510921C01089580911B011F
:103B5000681720F4861B80931B01089510921B01A7
:103B6000089580911A01681720F4861B80931A012A
:103B7000089510921A0108950F931F93873208F049
:103B80004DC08E3108F093C0803109F47DC008F536
:103B9000873009F46BC068F4863009F0A3C08091C7
:103BA000AF02817F8E7F8093AF0281E08093BC0261
:103BB0009AC08B3009F48FC08E3009F093C0809189
:103BC000AF0282FB222720F991E0922790FB82F935
:103BD00064C0863109F47FC088F4813109F082C065
:103BE0000E94F0128091E50287FB222720F991E0E4
:103BF000922790FB87F98093E5026DC0893109F423
:103C00006AC08B3109F06EC08091AF0281FB222720
:103C100020F991E0922790FB81F93FC0883309F4A5
:103C20005AC050F4893209F458C0853309F455C09C
:103C3000873209F452C056C0833409F44EC028F4C8
:103C40008A3308F44FC0895333C0883409F04AC01E
:103C50000E94F0120FEF13ED20E3015010402040BE
:103C6000E1F700C000000E94901A35C08091AF02B9
:103C7000982F9095917090FB80F98093AF029111ED
:103C80002AC0897F877F10C08091AF0283FB2227E3
:103C900020F991E0922790FB83F98093AF0299235A
:103CA000D1F08091AF0281608093AF0214C08D513A
:103CB00041E050E060E070E08A019B0104C0000F29
:103CC000111F221F331F8A95D2F7C901B8010E9424
:103CD000B7160E94F01281E006C061E070E080E05B
:103CE00090E0F5CF80E01F910F91089580E0089556
:103CF00080E008958E518A3030F4E82FF0E0EE52E3
:103D0000FE4F8081089580E00895CF93C82F809161
:103D1000BC02813079F018F08230E9F185C0E09181
:103D20001801F09119018081813169F0823209F026
:103D30007DC009C0E0911801F091190180818131A5
:103D400011F0823261F48C2F0E94761E811104C022
:103D50008C2F0E94BC1D1DC081E090E01AC08C2FEA
:103D60000E94781E811114C0C43179F048F4CB3020
:103D700079F0C03109F05EC082E08093BC0208C0D7
:103D8000C93219F0C83321F055C01092BC0252C09C
:103D900081E0817051C0C93279F108F5C43161F117
:103DA000A0F4C73009F044C01092B30284E18093BC
:103DB0001E01C0931D018CE380931C0188E0809359
:103DC0001B0188E280931A0133C082EE8C0F86308B
:103DD00078F58C2F0E947A1E8093BB0229C0CE34C6
:103DE000E9F020F4CB3421F56AE013C0C13579F055
:103DF000C235F1F461E00DC08091BB02882319F057
:103E00001092BB0215C081E08093BC0215C061E036
:103E100006C08091BB020E94F61C0AC06AE0809135
:103E2000BB020E946C1D04C01092BC0280E004C062
:103E300081E002C080E0ADCFCF9108958091DD0296
:103E400008950F931F93CF93DF9300D01F92CDB7A8
:103E5000DEB78C010E948F21823011F0843019F579
:103E600093E099831B830A839093E9008FEF9091ED
:103E7000E800815095FD06C095ED9A95F1F7000098
:103E80008111F5CF8091E80085FF0DC040E050E042
:103E900063E070E0CE0101960E94AC218091E800C1
:103EA0008E778093E8000F900F900F90DF91CF9165
:103EB0001F910F910895CF93DF9300D01F92CDB73C
:103EC000DEB72091EB02243031F522E029838058BF
:103ED00091099B838A8383E08093E9008FEF90911F
:103EE000E800815095FD06C095ED9A95F1F7000028
:103EF0008111F5CF8091E80085FF0DC040E050E0D2
:103F000063E070E0CE0101960E94AC218091E80050
:103F10008E778093E8000F900F900F90DF91CF91F4
:103F20000895CF93DF93EC010E948F21823011F02E
:103F30008430F9F482E08093E9009FEF8091E800FB
:103F4000915085FD06C085ED8A95F1F7000091112D
:103F5000F5CF8091E80085FF0CC040E050E065E0BF
:103F600070E0CE010E94AC218091E8008E778093B2
:103F7000E800DF91CF910895CF93DF93EC010E9489
:103F80008F21823019F0843009F047C080912901D7
:103F90008823E1F08091E50287FF18C084E08093D8
:103FA000E9008FEF9091E800815095FD06C095E102
:103FB0009A95F1F700008111F5CF8091E80085FF17
:103FC0002CC040E050E060E270E017C081E08093D8
:103FD000E9008FEF9091E800815095FD06C095EDC6
:103FE0009A95F1F700008111F5CF8091E80085FFE7
:103FF00014C040E050E068E070E0CE010E94AC21C7
:104000008091E8008E778093E80080E2FE01ADEBBE
:10401000B2E001900D928A95E1F7DF91CF9108957A
:104020008091EA02811109C00E9441230E949E23CF
:104030008091E20084608093E20008951092EA0289
:104040000895089508950C94FC1942E061EC81E014
:104050000E94BB2242E061EC82E00E94BB2242E06F
:1040600061EC83E00E94BB2242E261EC84E00C94AC
:10407000BB228091ED02833009F455C030F48130C9
:1040800071F0823009F48EC008958A3009F47AC044
:104090008B3009F460C0893009F09CC020C0809149
:1040A000EC02813A09F096C08091E800877F809306
:1040B000E8008091F0029091F102892B21F460E2F6
:1040C0008DEB92E003C060E080E090E070E00E9441
:1040D000F7218091E8008B778093E8000895809124
:1040E000EC02813209F076C08091F0029091F102E9
:1040F000009719F0039709F06DC08091E800877F61
:104100008093E8008091E80082FD05C08091EB0279
:104110008111F8CF5FC08091F1008093DD02809122
:10412000E8008B7753C08091EC02813A09F052C0CD
:104130008091F0029091F102892B09F04BC080919F
:10414000E800877F8093E8008091E80080FFFCCF43
:104150008091290136C08091EC028132D9F580919D
:10416000F0029091F102892BA9F58091E800877FF8
:104170008093E8000E94F0228091EE028093290152
:104180000C94F0128091EC02813221F58091E800CC
:10419000877F8093E8000E94F0228091EF02809355
:1041A000DE0208958091EC02813AA1F48091E8004A
:1041B000877F8093E8008091E80080FFFCCF8091AA
:1041C000DE028093F1008091E8008E778093E80012
:1041D0000C94F022089584B7877F84BF0FB6F894BB
:1041E000A8958091600088618093600010926000C3
:1041F0000FBE80E880936100109261000E94020E61
:104200000E9441230E949E238091E200846080935B
:10421000E20078940E9424260E94040E8FE191E02F
:104220000E94AE0D8091EB02853069F40E94BB19AB
:104230008091E9028823B1F30E94E819882391F361
:104240000E949621EFCF0E940A0EECCF292F332730
:1042500023303105C9F064F42130310581F022307A
:10426000310509F043C08DE690E028EC35E042C00E
:1042700021323105F1F02232310541F137C082E1BE
:1042800090E025E336E036C099278130910541F072
:104290008230910541F0892B49F5E4ECF5E005C049
:1042A000ECEAF5E002C0E4E9F5E0849190E09F01DA
:1042B00021C06430D8F4E62FF0E0EE0FFF1FE85184
:1042C000FE4F2081318189E090E014C0643070F4A9
:1042D00070E0FB01EE0FFF1FE052FE4F20813181A5
:1042E000FB01E452FE4F808190E004C080E090E04A
:1042F00020E030E0FA013183208308950895CF93C0
:10430000C82F0E947E21C093DF02CF910895809133
:10431000EB02843011F081E0089582E008958091ED
:10432000DF02811102C00C948721089580E189BDCC
:1043300082E189BD09B400FEFDCF8091D8008F7D58
:104340008093D8008091E00082608093E0008091AB
:10435000E00081FDFCCF0895CF92DF92EF92FF92B3
:104360000F931F93CF93DF93EC018B016A010E949F
:104370000F23811133C0C114D10439F0F6018081BB
:104380009181081B190BC80FD91FE12CF12C0115C5
:10439000110519F18091E80085FD16C08091E800B3
:1043A0008E778093E800C114D10449F0F601808132
:1043B0009181E80EF91EF182E08285E00FC00E9433
:1043C0000F23882321F30AC089918093F1000150C3
:1043D0001109FFEFEF1AFF0ADACF80E0DF91CF91EA
:1043E0001F910F91FF90EF90DF90CF900895209153
:1043F000F2023091F3022617370748F06115710574
:1044000039F42091E8002E772093E80001C0B9012B
:1044100040E061157105A9F12091EB02222309F416
:1044200043C0253009F442C02091E80023FD40C07C
:104430002091E80022FD32C02091E80020FFE9CF62
:104440004091F3002091F20030E0342BFC01CF01C9
:104450006115710559F02830310540F48191809340
:10446000F100615071092F5F3F4FF1CF41E02830DB
:10447000310509F040E02091E8002E772093E80014
:10448000C8CF4111C9CF0AC08091EB02882361F0E7
:10449000853061F08091E80083FD0AC08091E800DA
:1044A00082FFF2CF80E0089582E0089583E00895CE
:1044B00081E008952091F2023091F3022617370728
:1044C00048F06115710539F42091E8002E772093AA
:1044D000E80001C0B901FC0120E06115710591F10E
:1044E0008091EB02882309F440C0853009F43FC075
:1044F0008091E80083FD3DC08091E80082FD2FC0DF
:104500008091E80080FFE9CF2091F3008091F200D4
:1045100090E0922B6115710559F08830910540F4B7
:1045200024912093F1003196615071090196F2CFE8
:1045300021E0089709F020E08091E8008E778093D1
:10454000E800CBCF2111CCCF0AC08091EB028823A9
:1045500061F0853061F08091E80083FD0AC08091B0
:10456000E80082FFF2CF80E0089582E0089583E0C2
:10457000089581E00895982F973058F59093E900B9
:10458000981739F07091EC002091ED005091F000F7
:1045900003C0242F762F50E021FF19C03091EB008B
:1045A0003E7F3093EB003091ED003D7F3093ED0086
:1045B0003091EB0031603093EB007093EC0020936E
:1045C000ED005093F0002091EE0027FF07C09F5FA1
:1045D000D3CF8F708093E90081E0089580E0089543
:1045E0008091EC0287FF11C08091E80082FD05C038
:1045F0008091EB028111F8CF11C08091E8008B7798
:104600000BC08091EB02882349F08091E80080FF85
:10461000F8CF8091E8008E778093E800089520918C
:10462000E4003091E50095E64091EC00842F817024
:1046300040FF22C08091E80080FD1CC08091EB0209
:10464000882391F0853091F08091EB0085FD10C0BA
:104650004091E4005091E5004217530729F39A0175
:10466000915011F784E0089582E0089583E0089561
:1046700081E0089580E008954091E80042FFDECF98
:1046800008950E94AF230E94B723E0EEF0E08081FE
:1046900081608083E8EDF0E080818F77808319BCB2
:1046A000A7EDB0E08C918E7F8C9380818F7E80838C
:1046B0001092EA0208950F931F93CF93DF930E9405
:1046C000AF230E94B723C8EDD0E088818F7788831D
:1046D00088818068888388818F7D888319BC109247
:1046E000EB021092E7021092E9021092E80200EE4B
:1046F00010E0F80180818B7F8083888181608883CE
:1047000042E060E080E00E94BB22E1EEF0E08081C8
:104710008E7F8083E2EEF0E0808181608083808103
:1047200088608083F80180818E7F808388818061AA
:104730008883DF91CF911F910F910895E8EDF0E00C
:1047400080818F7E8083E7EDF0E0808181608083CF
:1047500084E082BF81E08093EA020C945B23E8ED61
:10476000F0E080818E7F80831092E20008951092A5
:10477000DA001092E10008951F920F920FB60F9287
:1047800011242F933F934F935F936F937F938F9356
:104790009F93AF93BF93EF93FF938091E10082FFCC
:1047A0000BC08091E20082FF07C08091E1008B7F07
:1047B0008093E1000E9423268091DA0080FF1FC0D1
:1047C0008091D80080FF1BC08091DA008E7F80939B
:1047D000DA008091D90080FF0DC080E189BD82E1BF
:1047E00089BD09B400FEFDCF81E08093EB020E94F9
:1047F000102005C019BC1092EB020E941E2080916F
:10480000E10080FF19C08091E20080FF15C0809117
:10481000E2008E7F8093E2008091E20080618093CD
:10482000E2008091D80080628093D80019BC85E0B6
:104830008093EB020E9422208091E10084FF30C02F
:104840008091E20084FF2CC080E189BD82E189BDB6
:1048500009B400FEFDCF8091D8008F7D8093D800F1
:104860008091E1008F7E8093E1008091E2008F7E55
:104870008093E2008091E20081608093E200809169
:10488000E702882311F084E007C08091E30087FDF0
:1048900002C081E001C083E08093EB020E942320EC
:1048A0008091E10083FF29C08091E20083FF25C051
:1048B0008091E100877F8093E10082E08093EB02AA
:1048C0001092E7028091E1008E7F8093E100809159
:1048D000E2008E7F8093E2008091E200806180930D
:1048E000E20042E060E080E00E94BB228091F000A4
:1048F00088608093F0000E942120FF91EF91BF918A
:10490000AF919F918F917F916F915F914F913F9167
:104910002F910F900FBE0F901F9018951F920F921E
:104920000FB60F9211242F933F934F935F936F9382
:104930007F938F939F93AF93BF93CF93DF93EF9327
:10494000FF93C091E900CF708091EC00D82FD17017
:1049500080FDD0E81092E9008091F000877F80937D
:10496000F00078940E94D2241092E9008091F00027
:1049700088608093F000CD2BCF70C093E900FF9149
:10498000EF91DF91CF91BF91AF919F918F917F91E7
:104990006F915F914F913F912F910F900FBE0F90AC
:1049A0001F9018951F93CF93DF93CDB7DEB7AA97CB
:1049B0000FB6F894DEBF0FBECDBFECEEF2E088E09C
:1049C0008E0F9091F10091938E13FBCF0E943920AE
:1049D0008091E80083FF1FC18091EC029091ED026D
:1049E000492F50E04A30510508F015C1FA01E5564B
:1049F000FF4F0C948427803881F0823809F00BC176
:104A00008091F0028F708093E9008091EB0085FB2C
:104A1000882780F91092E90006C08091E802909101
:104A2000E902911182609091E800977F9093E800ED
:104A30008093F1001092F100C8C0282F2D7F09F05B
:104A4000EAC0882319F0823061F0E5C08091EE025F
:104A5000813009F0E0C0933009F080E08093E902F2
:104A60002BC08091EE02811127C08091F0028F70DF
:104A700009F4D1C08093E9002091EB0020FF1CC015
:104A8000933021F48091EB00806214C09091EB0090
:104A900090619093EB0021E030E0A90102C0440F47
:104AA000551F8A95E2F74093EA001092EA00809140
:104AB000EB0088608093EB001092E9008091E800A1
:104AC000877F86C08111A7C01091EE021F77809169
:104AD000E3008078812B8093E3008091E800877F5A
:104AE0008093E8000E94F0228091E80080FFFCCFD4
:104AF0008091E30080688093E300111102C082E09E
:104B000001C083E08093EB0286C08058823008F0B9
:104B100082C08091EE029091EF028C3D53E09507A8
:104B200079F583E08A838AE289834FB7F894DE01BE
:104B3000139620E03EE051E2E32FF0E0509357005F
:104B4000E49120FF03C0E295EF703F5FEF708E2F7E
:104B500090E0EA3010F0C79601C0C0968D939D9307
:104B60002F5F243149F74FBF8091E800877F809302
:104B7000E8006AE270E0CE0101960E94F72114C0BD
:104B8000AE014F5F5F4F6091F0020E942621BC0191
:104B9000892B09F440C09091E800977F9093E8003A
:104BA00089819A810E945A228091E8008B778093B4
:104BB000E80031C0803879F58091E800877F8093E4
:104BC000E8008091E7028093F1008091E8008E7701
:104BD0008093E8000E94F0221EC081111CC09091B9
:104BE000EE029230C0F48091E800877F8093E80065
:104BF0009093E7020E94F0228091E702811106C0A3
:104C00008091E30087FD02C081E001C084E08093D1
:104C1000EB020E9425208091E80083FF0AC080916A
:104C2000E800877F8093E8008091EB0080628093AA
:104C3000EB00AA960FB6F894DEBF0FBECDBFDF9192
:104C4000CF911F9108950895CF938091EB0288230F
:104C5000A1F0C091E900CF709091EC00892F817094
:104C600090FD80E8C82B1092E9008091E80083FD58
:104C70000E94D224CF70C093E900CF9108950E9482
:104C800046266894B1110C94D52608950E94BA2640
:104C900088F09F5798F0B92F9927B751B0F0E1F0FD
:104CA000660F771F881F991F1AF0BA95C9F714C0AD
:104CB000B13091F00E94D426B1E008950C94D4262E
:104CC000672F782F8827B85F39F0B93FCCF38695E6
:104CD00077956795B395D9F73EF490958095709543
:104CE00061957F4F8F4F9F4F0895E89409C097FBC0
:104CF0003EF490958095709561957F4F8F4F9F4FB3
:104D00009923A9F0F92F96E9BB279395F6958795F6
:104D100077956795B795F111F8CFFAF4BB0F11F4B9
:104D200060FF1BC06F5F7F4F8F4F9F4F16C0882360
:104D300011F096E911C0772321F09EE8872F762F96
:104D400005C0662371F096E8862F70E060E02AF0D7
:104D50009A95660F771F881FDAF7880F96958795C3
:104D600097F9089557FD9058440F551F59F05F3F2C
:104D700071F04795880F97FB991F61F09F3F79F07D
:104D800087950895121613061406551FF2CF4695FF
:104D9000F1DF08C0161617061806991FF1CF869581
:104DA0007105610508940895E894BB276627772765
:104DB000CB0197F908950E94EE260C945F270E947C
:104DC000512738F00E94582720F0952311F00C94B9
:104DD00048270C944E2711240C94D5260E94B22605
:104DE00070F3959FC1F3950F50E0551F629FF0013E
:104DF000729FBB27F00DB11D639FAA27F00DB11D57
:104E0000AA1F649F6627B00DA11D661F829F2227DF
:104E1000B00DA11D621F739FB00DA11D621F839F66
:104E2000A00D611D221F749F3327A00D611D231F3C
:104E3000849F600D211D822F762F6A2F11249F578A
:104E400050409AF0F1F088234AF0EE0FFF1FBB1F8D
:104E5000661F771F881F91505040A9F79E3F51054C
:104E600080F00C9448270C94D5265F3FE4F3983EDD
:104E7000D4F3869577956795B795F795E7959F5FF6
:104E8000C1F7FE2B880F911D9695879597F9089588
:104E900097F99F6780E870E060E008959FEF80ECED
:104EA000089500240A941616170618060906089590
:104EB00000240A9412161306140605060895092EF6
:104EC0000394000C11F4882352F0BB0F40F4BF2B65
:104ED00011F460FF04C06F5F7F4F8F4F9F4F0895A5
:104EE00097FB072E16F4009407D077FD09D00E9497
:104EF0008A2707FC05D03EF4909581959F4F089531
:104F0000709561957F4F0895EE0FFF1F0590F49106
:104F1000E02D0994AA1BBB1B51E107C0AA1FBB1FB0
:104F2000A617B70710F0A61BB70B881F991F5A9535
:104F3000A9F780959095BC01CD010895F999FECF10
:104F400092BD81BDF89A992780B50895A8E1B0E097
:104F500042E050E00C94C627262FF999FECF92BD6F
:104F600081BDF89A019700B4021639F01FBA20BD2E
:104F70000FB6F894FA9AF99A0FBE08950196272F62
:104F80000E94AD270C94AC27DC01CB01FC01F99900
:104F9000FECF06C0F2BDE1BDF89A319600B40D9285
:0C4FA00041505040B8F70895F894FFCF3E
:104FAC00050000840C940C000000000000000000C0
:104FBC0012012F00340020FF8C0228083C07141E1D
:104FCC001FBC1F911F5B1F211F01000D010D020D46
:104FDC00030D040D050D000C010C020C030C040C4C
:104FEC00050C000B010B020B030B040B050B000A49
:104FFC00010A020A030A040A050A00090109020946
:10500C00030904090509000801080208030804083B
:10501C000508000701070207030704070507000638
:10502C000106020603060406050600050105020535
:10503C00030504050505000401040204030404042B
:10504C000504000301030203030304030503000228
:10505C000102020203020402050200010101020125
:10506C00030104010501000001000200030004001B
:10507C00050001020304050607080900404D3639F6
:10508C000307B60680064706DA05F3050C06250667
:00000001FF
