:100000000C94AE030C94F5030C94F5030C94F503D7
:100010000C94F5030C94F5030C94F5030C94F50380
:100020000C94F5030C94F5030C9403260C94D5263C
:100030000C94601C0C94F5030C94F5030C94F503DC
:100040000C94F5030C94F5030C94F5030C94F50350
:100050000C94F5030C94C81C0C94F5030C94F50354
:100060000C94F5030C94F5030C94F5030C94F50330
:100070000C94F5030C94F5030C94F5030C94F50320
:100080000C94F5030C94F5030C94F5030C94F50310
:100090000C94F5030C94F5030C94F5030C94F50300
:1000A0000C94F5030C94F5030C94F5032F08310818
:1000B0003C0833083508370839083B083E08400833
:1000C00042084D084408460848084A084C084F08AA
:1000D0003612361270127012A512C51232146E1436
:1000E00007136E14B713B7132A146E146E14691421
:1000F000C413C413C413C413C413C413C413C41348
:10010000C413C413C413C413C413C413C413C41337
:10011000D613E313EA13F113FB13FD14FD140F15AB
:100120000F1506150F150F150F15FD14FD140B15E2
:100130000F150F150B15422769275B2869275B28C8
:10014000B527D8275B282E283D286176657272690D
:100150006E40676D61696C2E636F6D00636F6D6DCE
:10016000697420006572676F646F782F61766572BD
:1001700072696E204020302E352E3130372D3130CF
:100180002D676131366463362D64697274790001BC
:10019000E30116021602E374FF74FF74FF74FF7428
:1001A000FF01E00117021702E000751901E10111DA
:1001B000021102E101250225011502150125022582
:1001C000011902190104020401150215010C020CA7
:1001D00001E10111021102E1012502250128022895
:1001E0000075190104020401140214011A021A0113
:1001F000080208011502150116021601070207017F
:1002000009020901280228000000F0A135002B0096
:10021000E200E1001B0400001E00140004001D6148
:10022000E3004D001F001A0016001B00E0024C0006
:10023000200008000700060004012C4221001500E0
:100240000900190029434A00220017000A0005008E
:1002500000002A00230028000000E60000004604F9
:100260002200340000002E020000010023001C00C8
:100270000B00110000000100240018000D00100008
:1002800050004B0025000C000E00360051002C41A0
:10029000260012000F00370052002800270013002C
:1002A000334138614F004E002D002F003000010017
:1002B000165C0000D05C010001000100010000009C
:1002C0003A001E0220022202003001003B001F0201
:1002D00021022302013001003C002F0226022F00E0
:1002E00001002A003D00300227023000E00001003A
:1002F0003E002E022E0035020000010001003102F6
:10030000000024020000010001001E02000038026B
:10031000000001003F00010034002D020000010038
:100320004000240021001E000100010041002500C2
:1003300022001F0037000100420026002300200099
:100340002700010043002502010031002E000100BA
:10035000440045000100010001000000005CD25C87
:10036000C05CC35CC25C00001E01D15C04080100DB
:10037000010001001F011A08023001000100010004
:10038000200106080E080100FE00010021011501F0
:1003900019080B08FD0001002201010007080100F7
:1003A0000000010023010100000001000000010025
:1003B00022010100000001000000010023010100F2
:1003C000F2000100000001002401F900F100FA0030
:1003D000A900010025014A00F000F600AA00F4007F
:1003E00026014D00F3000100A800F5000100010006
:1003F00006011901010001000100010001000100D6
:100400000100000035012B010100E10101000000A5
:100410001E01140104011D01010001001F011A0148
:1004200016011B010100010020010801070106015E
:10043000010001002101150109011901010001005C
:10044000220117010A01050100000100230101003A
:100450000000E6010000010022010100000001008F
:100460000000010023011C042A00510000000100CB
:1004700024011801280010015001010025010C0180
:100480000E01360151012C01260112010F01370125
:100490005201010001005200330138014F010100F7
:1004A00001002F0130010100E10100000000000007
:1004B000000000002A2B28000000000000000000BF
:1004C0000000000000000029000000002C1E342065
:1004D000212224342627252E362D3738271E1F208B
:1004E0002122232425263333362E37381F040506D0
:1004F0000708090A0B0C0D0E0F1011121314151614
:100500001718191A1B1C1D2F3130232D3504050611
:100510000708090A0B0C0D0E0F10111213141516F3
:100520001718191A1B1C1D2F3130354C0000000004
:1005300000000000000000000000000000000000BB
:1005400000000000000000000000000000010101A8
:100550000101010001010101000000000000000094
:100560000000000000000100010001010101010183
:10057000010101010101010101010101010101016B
:100580000101010101010100000001010000000062
:10059000000000000000000000000000000000005B
:1005A00000000000000000010101010016034500E9
:1005B000720067006F0044006F0078002000450063
:1005C0005A00000016034500720067006F004400E7
:1005D0006F007800200045005A0000000403090461
:1005E00009026D00040100A0FA09040000010301E2
:1005F00001000921110100012240000705810308C3
:10060000000A09040100010301020009211101008F
:1006100001224D000705820308000A0904020001B7
:1006200003000000092111010001223600070583A3
:100630000308000A09040300010300000009211156
:100640000100012239000705840320000112011076
:100650000100000008EDFE07130100010200010582
:10066000010906A101050719E029E71500250195F3
:100670000875018102050819012905950575019183
:10068000029501750391010507190029F715002549
:100690000195F875018102C005010980A10185025B
:1006A0001601002603001A81002A830075109501A7
:1006B0008100C0050C0901A1018503160100269CDB
:1006C000021A01002A9C02751095018100C00501E3
:1006D0000902A1010901A100050919012905150057
:1006E00025019505750181029501750381010501BB
:1006F000093009311581257F950275088106093871
:100700001581257F950175088106050C0A380215AB
:1007100081257F950175088106C0C005010906A1E4
:1007200001050719E029E7150025019508750181E4
:1007300002950175088101050819012905950575BE
:100740000191029501750391010507190029FF1513
:100750000026FF00950675088100C00011241FBE09
:10076000CFEFDAE0DEBFCDBF04B603FE27C0809135
:10077000770390917803A0917903B0917A03873041
:10078000904BA740B04BD1F41092770310927803AE
:100790001092790310927A0314BE84B7877F84BFC6
:1007A0000FB6F894A89580916000886180936000EE
:1007B000109260000FBEE0E0FFE3099511E0A0E0B9
:1007C000B1E0EAEEF1E502C005900D92A23FB1075B
:1007D000D9F723E0A2EFB1E001C01D92A737B2071D
:1007E000E1F70E9432230C94F3280C94000010923D
:1007F000B9008AE08093B800089594EA9093BC0011
:100800009091BC0097FFFCCF9091B900987F9830F1
:1008100021F0903111F081E008958093BB0084E8CD
:100820008093BC008091BC0087FFFCCF8091B90011
:10083000887F883111F0803471F780E0089584E971
:100840008093BC008091BC0084FDFCCF0895809310
:10085000BB0084E88093BC008091BC0087FFFCCF84
:100860009091B900987F81E0983209F480E0089572
:1008700084E88093BC008091BC0087FFFCCF80910E
:10088000BB00089580B38C7080BB81B3836F81BB44
:10089000089580911701811115C080E40E94FD0325
:1008A0008093170181110CC082E10E94270480937C
:1008B0001701811105C08FEF0E9427048093170153
:1008C0000E941F0484B1807F84B985B1807F85B97F
:1008D0008AB1837F8AB98BB1837F8BB93E98469862
:1008E000089508950C9404060E945D0C80931701EE
:1008F0000E9449040E94420423EF31E0E7E4F2E061
:100900004EE04E0F119280E090E0D901A80FB91F80
:100910001C92019686309105C1F72A5F3F4F4E1316
:10092000F1CF0C942A090E945D0C809317010E945C
:1009300049040E944204E7E4F2E08EE08E0F119237
:100940008E13FDCF089526E0829FC0011124FC0183
:10095000ED50FE4F20E030E080E041E050E090813B
:10096000992319F09150908307C0BA01022E01C05B
:10097000660F0A94EAF7862B2F5F3F4F3196263099
:10098000310569F7089596E0699FB001112420E0D0
:1009900030E090E04FE0FC01022E02C0F595E795B3
:1009A0000A94E2F7E0FF06C0F901E60FF71FED50E9
:1009B000FE4F40832F5F3F4F2630310561F708958A
:1009C000AF92BF92CF92DF92EF92FF920F931F935D
:1009D000CF93DF9380911701882379F08091F20102
:1009E0008F5F8093F201811108C00E945D0C80939B
:1009F0001701811102C00E94EF0B87E4E82E82E00C
:100A0000F82E00E010E0CC24C394D12CAA24A394A7
:100A1000C02F0730110500F58091170181113CC0EE
:100A200080E40E94FD0380931701811112C082E1CE
:100A30000E9427048093170181110BC0C601002E6C
:100A400001C0880F0A94EAF780950E9427048093DA
:100A500017010E941F0420C00A30A1F028F40830BA
:100A600059F0093061F005C00C3089F070F00D309C
:100A700089F0209A289810C0219A29980DC0229AAE
:100A80002A980AC0239A2B9807C0529A01C0539AF9
:100A90005B9802C03E9A469880EA8A95F1F78C2FBF
:100AA0000E94A304D82F0730110518F58091170173
:100AB000811144C080E40E94FD03809317018823C4
:100AC00011F0B12C12C083E10E942704809317011A
:100AD0008111F7CF81E40E94FD03809317018111FA
:100AE000F0CF0E943804B82EB0940E941F049B2DB2
:100AF00026C08FB181708A25799902C092E001C029
:100B000090E0892B7C9902C094E001C090E0982B82
:100B10007D9902C038E001C030E0932B7E9902C07D
:100B200020E101C020E0922B2FB12095221F222727
:100B3000221F2295220F207E922B01C090E0F70108
:100B400080819D23D095D823D92B6C2F8D270E948F
:100B5000C304F701D1937F010E9449040F5F1F4F27
:100B60000E30110509F054CF0E942C0981E0DF916D
:100B7000CF911F910F91FF90EF90DF90CF90BF909A
:100B8000AF900895E82FF0E0E95BFD4F8081089574
:100B90000895FC01613051F018F0623069F012C024
:100BA0008281882379F081EE91E008958281882303
:100BB00049F08AEA91E008958281882319F08FE84C
:100BC00091E0089580E090E00895803D2CE5920743
:100BD00089F020F48F3C9C4531F003C0833D9C4557
:100BE00088F081E00895FB018281882361F00E94F2
:100BF000691B08C0FB018281882329F084E691E00B
:100C00000E94270980E00895609103037091040316
:100C100080910503909106030E94191B56985E98D7
:100C200025982D9826982E9827982F98823039F05D
:100C3000833041F0813041F4259A2D9A05C0269ADF
:100C40002E9A02C0279A2F9A80916902882309F46C
:100C5000B2C080916702909168020E949E1C893CFC
:100C6000910508F4A8C0109269020E949F0B809120
:100C70005D0290915E020697E1F480915F0290918F
:100C80006002892BB1F48091610290916202892BFC
:100C900081F48091630290916402892B51F48091D8
:100CA000650290916602892B21F48CE591E00E9407
:100CB000270980915D0290915E024097E1F4809156
:100CC0005F0290916002892BB1F480916102909152
:100CD0006202892B81F48091630290916402892BD6
:100CE00051F48091650290916602892B21F48AE487
:100CF00091E00E94270980915D0290915E024E97DB
:100D000051F580915F0290916002892B21F58091CD
:100D1000610290916202892BF1F4809163029091BB
:100D20006402892BC1F48091650290916602892B3F
:100D300091F482EE0E94981080EE0E9498108AE34F
:100D40000E9498108AE30E948C1180EE0E948C1100
:100D500082EE0E948C1180915D0290915E028497D8
:100D600051F580915F0290916002892B21F580916D
:100D7000610290916202892BF1F48091630290915B
:100D80006402892BC1F48091650290916602892BDF
:100D900091F482EE0E94981080EE0E94981080E4F8
:100DA0000E94981080E40E948C1180EE0E948C11A9
:100DB00082EE0C948C1108950F931F93CF93DF93C1
:100DC0009C013A9521153F4148F5EB018C0190FFBC
:100DD00003C080EEFB01099511FF03C081EEFE0107
:100DE000099512FF03C082EEFE01099513FF03C0AF
:100DF00083EEFE0109950115104180F084EEFE019D
:100E0000099585EEFE01099586EEFE01099587EEAE
:100E1000FE01DF91CF911F910F910994DF91CF9146
:100E20001F910F910895877091E001C0990F8A95E5
:100E3000EAF7892F0E94F01A0C94AA1A877091E0A1
:100E400001C0990F8A95EAF7892F0E94F01A0C9435
:100E5000AA1A877091E001C0990F8A95EAF7892F45
:100E60000E94F61A0C94AA1A877091E001C0990F9B
:100E70008A95EAF7892F0E94F61A0C94AA1ACF9342
:100E8000DF93EC01805E9109089710F0209719F428
:100E90006EE177E002C063E177E0CE010E94DC06FC
:100EA0008C2FDF91CF910C949810CF93DF93EC01AE
:100EB0000E948C11CE01805E9109089710F0209756
:100EC00019F464E377E002C069E277E0CE01DF91D4
:100ED000CF910C94DC0681E008950C94E5050E9406
:100EE000EB142FEF84E39CE0215080409040E1F729
:100EF00000C000000C94EE1CFF920F931F93CF9341
:100F0000DF938C01FC01C081D1818091920281111B
:100F100013C08281882349F0CE010E940C1AF82E5A
:100F2000682FCE010E94AF1904C0CE010E94DF19C4
:100F3000F82EBE018F2D04C0CE010E940C1ABE01F6
:100F40000E944309EC01B8010E946D07882309F44F
:100F50003FC1B801CE010E94320E882309F438C186
:100F6000B801CE010E94A00B882309F431C1B80159
:100F7000CE010E94AC0C882309F42AC1C531FCE5DE
:100F8000DF0799F50E94DD1A282FF8018281409130
:100F9000190150911A01882379F02A7A91E009F415
:100FA00090E090935502911102C069E201C065E39F
:100FB000CA010E94FB1B0AC080915502811102C028
:100FC00069E201C065E3CA010E94061C0E94AA1AD8
:100FD00081E080935A0280935B02C801DF91CF9138
:100FE0001F910F91FF900C946B07C6318CE5D807C9
:100FF00008F071C0C130ECE5DE0759F4F8018281D8
:10100000882309F4E5C08091300381608093300328
:10101000DFC0C230FCE5DF0708F451C0F80182816F
:101020008823D9F20E94831B811102C00E94691B90
:101030000E94961B90E09093690380936803FE01E1
:10104000E350FC45E231F10530F4EA5AFF4F80915C
:1010500068030C94A32880916803816027C0826094
:1010600025C0846023C0806121C080621FC080646D
:101070001DC080681BC08460886018C08E7F16C049
:101080008D7F14C08B7F12C08F7E10C08F7D0EC0ED
:101090008F7B0CC08F770AC08B7F877F07C087FB51
:1010A000222720F991E0922790FB87F9809368032B
:1010B000809168030E949A1B0E94EB1489C0C1159D
:1010C000DC4509F085CFF8018281882309F480C0CE
:1010D0000E946F077DC0C93CECE5DE0781F5F80191
:1010E0008281882361F010925B020E94921C90938F
:1010F00059028093580280E20E94EB1169C00E945D
:10110000DD1A81FF05C081E080935A0280935B0263
:1011100080915B0281110FC0809158029091590219
:101120000E949E1C883C910530F487E20E94981032
:1011300087E20E948C1180E20E94F21149C0CA3CF1
:10114000FCE5DF0780F5C83CDC4509F041CFF8013C
:101150008281882351F010925A020E94921C90932F
:1011600057028093560282E0C7CF0E94DD1A85FFA6
:1011700005C081E080935A0280935B0280915A02FD
:1011800081110FC080915602909157020E949E1CBF
:10119000883C910530F486E20E94981086E20E9415
:1011A0008C1182E0C9CFCC3CECE5DE0731F4F801CC
:1011B0008281882369F080E009C0CD3CDC4509F0DC
:1011C00007CFF8018281882319F082E00E94C623AC
:1011D00080E0DF91CF911F910F91FF9008950F93C1
:1011E0001F93CF93DF938C01D62FF80124912223F4
:1011F00049F130E0F901E455FB4FC491F901E45D98
:10120000FA4F2491222359F081EE0E9498108C2FDE
:101210000E9498108C2F0E948C1181EE04C08C2F9C
:101220000E9498108C2F0E948C110F5F1F4F8D2FE2
:101230008823D9F2EFE9FFE03197F1F700C0000011
:101240008150F6CFDF91CF911F910F91089560E00B
:101250000C94EF080C94470C0E94D30E0C9472046B
:10126000282F882339F090E02A3010F44D96089505
:101270000697089587E290E0089508950C943D093B
:101280000C943E09089596E0799FF001112494E5AD
:10129000899FE00DF11D1124E60FF11DEE0FFF1FD8
:1012A000E45FFD4F859194910895880F991FFC018B
:1012B000E85FFD4F859194910895CF93DF930E944D
:1012C00043090E94F50AEC01811520E49207B0F56C
:1012D000811540E3940708F0E1C0803E9105D0F409
:1012E000803C910508F06FC0883A910570F4853A0A
:1012F000910508F06BC08130910509F472C108F4C2
:1013000029C1049708F06DC125C18D3B910508F4F2
:1013100068C020C18F3F910509F048F4803F9105D6
:1013200008F0B6C0883E910508F45BC113C1811571
:1013300050E2950708F455C19F70ACC0811564E573
:101340009607D8F4C11583E5D80708F0E2C0C115A7
:1013500021E5D20740F4C11540E5D40708F0A7C045
:10136000DF70D06A3EC1C11552E5D50708F0BBC099
:10137000DC2FCC27C16FD06A34C1811566E5960792
:1013800050F4C11585E5D80708F0D9C0DC2FCC276B
:10139000C46FD06A26C1811528E5920708F4DAC027
:1013A000811549E5940708F4D0C090568115904204
:1013B00008F0D0C08D2F8F710E94720BDD27D06294
:1013C0008F71D82B0EC1805C910964C0853A91055C
:1013D00009F4C3C0863A910509F0C2C0C2E8D0E45E
:1013E00000C1883A910509F4BEC0893A910509F413
:1013F000BDC08A3A910509F4BCC08B3A910509F445
:10140000BBC08C3A910509F4BAC08B3B910509F435
:10141000B9C08C3B910509F4B8C08D3A910509F427
:10142000B7C0803B910509F4B6C08E3A910509F426
:10143000B5C08F3A910509F4B4C0813B910509F418
:10144000B3C0823B910509F4B2C0833B910509F416
:10145000B1C0843B910509F4B0C0853B910509F406
:10146000AFC0863B910509F4AEC0873B910509F4F6
:10147000ADC0883B910509F4ACC0893B910509F4E6
:10148000ABC08A3B910509F4AAC0C0E0D4E4A9C06E
:10149000D065A7C00E945509EC01A3C09927D3FFCE
:1014A00003C0EC01D86C9DC0EC01D06C9AC02C2F0D
:1014B000237081E090E002C0880F991F2A95E2F71F
:1014C0009C689E0144E0369527954A95E1F7237084
:1014D000922BCF70C695C69560E2C69FE00111249D
:1014E000C82BD92B7EC02C2F2695269580E2289FCD
:1014F00090011124C370DD2781E090E0AC0102C0AF
:10150000440F551FCA95E2F7EA01C22BD32BDC68C2
:1015100068C02C2F2695269580E2289F90011124E3
:10152000C370DD2781E090E0AC0102C0440F551F7D
:10153000CA95E2F7EA01C22BD32BDA6852C0CF7109
:10154000DD27DC2FCC27D0624CC0DC2FCC27C06F2E
:10155000D06A47C0C0E0D0E044C0C1E8D0E441C098
:10156000C3E8D0E43EC0C2EED4E43BC0C9EED4E44C
:1015700038C0CAEED4E435C0C5EBD4E432C0C6EB03
:10158000D4E42FC0C3EBD4E42CC0C4EBD4E429C012
:10159000C7EBD4E426C0CCECD4E423C0CDECD4E437
:1015A00020C0C3E8D5E41DC0CAE8D5E41AC0C2E92A
:1015B000D5E417C0C4E9D5E414C0C1E2D6E411C033
:1015C000C3E2D6E40EC0C4E2D6E40BC0C5E2D6E462
:1015D00008C0C6E2D6E405C0C7E2D6E402C0CAE24B
:1015E000D6E4CE01DF91CF9108958238910549F17B
:1015F000B0F48133910509F458C048F4893291055B
:1016000009F44EC08A32910509F454C00895853317
:10161000910509F440C08933910599F00895833EFE
:10162000910529F138F4803E910591F0823E9105B3
:10163000A1F00895863E9105F9F0873E910531F1BC
:1016400008952091680320FD3AC021FD38C0089517
:101650008091680380FD35C032C08091680382FFAD
:1016600032C08091680384FD30C083EE39C0809120
:10167000680382FD28C0F5CF8091680383FF27C0EF
:101680008091680384FD21C087EE2AC080916803A1
:1016900083FD1DC0F5CF8091680385FD1AC01BC076
:1016A0008091680385FD17C014C08091680386FD92
:1016B00014C015C08091680386FD11C00EC080EE75
:1016C0000FC089E30DC082EE0BC080E009C086EE3A
:1016D00007C089E205C085E303C08AE201C081E357
:1016E00090E00895CF93C82F0E94961B90E09093AE
:1016F00069038093680382FF0DC09C2F9871983016
:1017000019F4C77FC46006C09C2F9471943011F403
:10171000CB7FC86083FF0DC09C2F9871983119F45E
:10172000C77EC46106C09C2F9471943111F4CB7EA6
:10173000C86184FDC77E8C2FCF91089508950895C8
:101740000F931F93CF93FB012281211102C0C1E0AF
:1017500041C08C01C0916902C11125C086319C45F0
:10176000B1F70E949E0B81E0809369020E94921C57
:10177000909368028093670210925C0210925E025E
:1017800010925D021092600210925F02109262024B
:10179000109261021092640210926302109266022B
:1017A0001092650217C080916702909168020E94B2
:1017B0009E1C883C910558F690915C02E92FF0E060
:1017C000EE0FFF1FE35AFD4F118300839F5F90933D
:1017D0005C02C0E08C2FCF911F910F910895569815
:1017E0005E9825982D9826982E9827982F988FEFF9
:1017F00090E0909389008093880090938B00809371
:101800008A0090938D0080938C00259A2D9A2FEF5B
:1018100080E792E0215080409040E1F700C0000056
:10182000269A2E9A2FEF80E792E021508040904038
:10183000E1F700C00000279A2F9A2FEF80E792E08F
:10184000215080409040E1F700C0000025982D987D
:101850002FEF80E792E0215080409040E1F700C0F8
:10186000000026982E982FEF80E792E021508040CC
:101870009040E1F700C0000027982F9856985E9896
:1018800025982D9826982E9827982F98089589EABC
:101890008093800089E08093810024982C983F9861
:1018A0008AB18F7C8AB96E98479A8BB180638BB965
:1018B000769A0E94EF0B0C94710480E280931701DA
:1018C00080916A0281110EC00E94F70381E080932B
:1018D0006A022FEF83ED90E3215080409040E1F7C2
:1018E00000C0000080E40E94FD0380931701811175
:1018F0002EC00E94270480931701811128C00E94E6
:10190000270480931701811122C08FE30E942704CE
:101910008093170181111BC00E941F0480E40E9464
:10192000FD0380931701811112C08CE00E942704EF
:101930008093170181110BC00E9427048093170127
:10194000811105C08FE30E942704809317010E9434
:101950001F04809117010895CF93DF93813020E811
:101960009207D0F0FB0122812223B1F0EC0180919B
:101970006B02811109C08CE090E00E94BD280E949A
:10198000D00C81E080936B020E94D70CCE019F7730
:101990000E94950D0E944D0D81E0DF91CF91089539
:1019A00080936C02682F8CE090E00C94CB28E0913F
:1019B0001901F0911A0180818093610381FF03C0B6
:1019C00081EE0E948C118091610385FF03C085EE3A
:1019D0000E948C118091610380FF03C080EE0E9401
:1019E0008C118091610384FF03C084EE0E948C11EE
:1019F0008091610382FF03C082EE0E948C1180916E
:101A0000610386FF03C086EE0E948C118091610302
:101A100083FF03C083EE0E948C118091610387FFD6
:101A200003C087EE0E948C1180916C028130A1F07E
:101A300078F0823011F1843049F586EE0E949810DA
:101A400086EE0E948C1188E10E94981088E11CC0EB
:101A500082EE0E9498101AC080EE0E94981081EECB
:101A60000E94981088E10E94981088E10E948C11D1
:101A700081EE0E948C1180EE07C082EE0E949810C9
:101A800087E50E94981087E50E948C118FE39CE9FE
:101A90000197F1F700C00000089580916C02813039
:101AA00029F010F0823041F482EE04C08CE20E94F2
:101AB00098108CE20E948C118091610381FF03C019
:101AC00081EE0E9498108091610385FF03C085EE2E
:101AD0000E9498108091610380FF03C080EE0E94F5
:101AE00098108091610384FF03C084EE0E949810D7
:101AF0008091610382FF03C082EE0E949810809162
:101B0000610386FF03C086EE0E94981080916103F6
:101B100083FF03C083EE0E9498108091610387FFCA
:101B200003C087EE0C9498100895EF92FF921F93D4
:101B3000CF93DF937C01CCE0D0E097010C2E02C064
:101B4000369527950A94E2F7122F1F70812F0E9475
:101B500030090E949810812F0E9430090E948C1138
:101B60002497CC3F8FEFD80741F7DF91CF911F919A
:101B7000FF90EF900895CF93DF93FC01268521110C
:101B800013C0EC0181E0868787810E94E01A0E94E1
:101B9000AA1AEA81FB8169897A89CE010696309773
:101BA00019F0DF91CF910994DF91CF910895FC0155
:101BB0008081813021F4FB018081918105C08230D8
:101BC00029F4FB01828193810C943F070895FC0165
:101BD0008081813021F4FB018081918105C08230B8
:101BE00029F4FB01828193810C94550708950F938A
:101BF0001F93CF93DF93FC01278121112EC0EC01AD
:101C000002811381175523E1209FC001219F900D70
:101C10001124DC01A050BF4F1496ED91FC91159753
:101C200051966D917C9152978A5F9E4F309709F043
:101C3000099583E1809FF001819FF00D1124E05010
:101C4000FF4F87810E94E61A0E94AA1A18821E82FC
:101C5000188610926E0210926D02DF91CF911F9143
:101C60000F910895EF92FF920F931F93CF93DF93FD
:101C70008C0180916D0290916E02009771F0801737
:101C8000910759F0975523E1289FF001299FF00D06
:101C90001124E050FF4F81E08487C8019755FB0174
:101CA00042818F3F910511F008F052C02091180138
:101CB000022E000C330B2817390714F480931801F7
:101CC00023E1289F7001299FF00C1124E701C050E7
:101CD000DF4F4D87FB018281882309F45CC019879F
:101CE00008878E818F5F8E830E94921C9B878A87D4
:101CF0000E94161B8F83E881F98169897A89C7015F
:101D00008A5F9E4F309709F0099580916D029091FE
:101D10006E020097C1F080179107A9F09C0137551A
:101D200083E1829FE001839FD00D1124CE0180507A
:101D30009F4F21E0FC0124870E94BB0DCE018A5FEA
:101D40009E4F0E94F70D10936E0200936D0223C008
:101D5000442309F1809118018F3FE9F0C6E0D1E0FA
:101D600000E010E0FF24F39480911801082E000C8D
:101D7000990B801791077CF08881882341F0FE82BF
:101D8000CE0106970E94BB0DCE010E94F70D0F5F9A
:101D90001F4F6396E9CF81E0DF91CF911F910F91A3
:101DA000FF90EF900895CF92DF92EF92FF920F9302
:101DB0001F93CF93DF93809118018F3FC1F1C0E053
:101DC000D3E12C2F30E080911801082E000C990BE4
:101DD0008217930764F1D29FF001D39FF00D112475
:101DE000E050FF4FE784F088E114F10419F488EC27
:101DF000E82EF12CD29F6001D39FD00C11248601D4
:101E000000501F4FF8018681882379F082859385E1
:101E10000E949E1CE816F90640F4C8010E94BB0D02
:101E2000C6018A5F9E4F0E94F70DCF5FCACFDF9138
:101E3000CF911F910F91FF90EF90DF90CF90089579
:101E400090937402809373020895E0917302F0916D
:101E50007402309721F00190F081E02D099480E028
:101E60000895E0917302F0917402309721F002809E
:101E7000F381E02D09940895E0917302F0917402CA
:101E8000309721F00480F581E02D09940895209188
:101E90007102309172028217930771F0909372026F
:101EA00080937102E0917302F0917402309721F0F7
:101EB0000680F781E02D0994089520916F023091FA
:101EC00070028217930771F09093700280936F02F3
:101ED000E0917302F0917402309721F00084F18553
:101EE000E02D0994089508950C94730F0E94891CA5
:101EF0000E9474040C94101DCF92DF92EF92FF9217
:101F00000F931F93CF93DF93CDB7DEB72B970FB609
:101F1000F894DEBF0FBECDBF0E94E00486E7C82E56
:101F200082E0D82E00E010E0E02E802F0E94C20553
:101F3000F60141916F01F42EF826B1F40F5F1F4FA7
:101F40000E30110589F78FEF89838A831B820E94E7
:101F5000921C8160782F9D838C8349815A816B818B
:101F60008D810E945B1040C09091300391FF04C0AE
:101F70008B870E94C8058B8520E030E04F2D50E014
:101F8000922FBA01022E02C0759567950A94E2F766
:101F900060FF24C02E83EF8221E030E0690102C09F
:101FA000CC0CDD1C9A95E2F790E08C219D21892BC9
:101FB00009F420E028870E94921C8160782F9A877C
:101FC00089874E815F8168858A850E945B10F80150
:101FD000EA58FD4F8081C826C08206C02F5F3F4F60
:101FE0002630310569F6AACF0E94A31E1091750212
:101FF0000E94250F1817A1F00E94250F80937502EB
:102000002B960FB6F894DEBF0FBECDBFDF91CF91F8
:102010001F910F91FF90EF90DF90CF900C944009AB
:102020002B960FB6F894DEBF0FBECDBFDF91CF91D8
:102030001F910F91FF90EF90DF90CF900895DC01FA
:1020400011962C9111978C91682F70E041E050E02F
:1020500001C0440F8A95EAF712968C91129730E0EE
:10206000882329F0809193028823E9F006C0F901C2
:10207000EC57FD4F90819423B1F086E0829FF001F0
:10208000839FF00D1124E60FF71FEE0FFF1FE55D94
:10209000FE4F808191818D939C93F901EC57FD4F08
:1020A0008081482B06C0F901EC57FD4F4095808197
:1020B000482340830895CF93DF93CDB7DEB72B97A6
:1020C0000FB6F894DEBF0FBECDBF942F4F83252FE0
:1020D000588769877A878B874A855B85452B21F0EE
:1020E0002F3F09F59F3FF9F4DE01119686E0FD01CF
:1020F00011928A95E9F785E0FE01379601900D92DD
:102100008A95E1F749815A816B817C818D819E811D
:102110000E9483172B960FB6F894DEBF0FBECDBF7B
:10212000DF91CF910895CE0107960E941F10DCCF5A
:10213000CF93DF931F92CDB7DEB7882309F4E8C0B1
:10214000682F823879F40E94250F81FDE1C069E390
:102150008091190190911A010E94FB1B0E94AA1AFA
:1021600069E310C08338C9F40E94250F80FDD0C0F8
:1021700063E58091190190911A010E94FB1B0E9456
:10218000AA1A63E58091190190911A010E94061C18
:102190000F90DF91CF910C94AA1A843879F40E94A1
:1021A000250F82FDB5C067E48091190190911A0155
:1021B0000E94FB1B0E94AA1A67E4E4CF8CEF860FF3
:1021C000813A70F4862F69830E94CC206981811145
:1021D0009FC08091190190911A010E94FB1BD8CFDA
:1021E00080E2860F883048F4677081E001C0880F74
:1021F0006A95EAF70E94E01ACBCF8BE5860F833011
:1022000088F4653A29F0663A31F083E890E005C039
:1022100081E890E002C082E890E00F90DF91CF91DA
:102220000C94470F88E5860F853108F071C0683A35
:1022300061F1693A69F16A3A71F16B3A79F16C3A94
:1022400081F16B3B89F16C3B91F16D3A99F1603B07
:10225000A1F16E3AA9F16F3AB1F1613BB9F1623B7C
:10226000C1F1633BC9F1643BD1F1653BD9F1663BF8
:10227000E1F1673BE9F1683BF1F1693BF9F16A3B58
:1022800009F43FC080E090E03EC082EE90E03BC0A9
:1022900089EE90E038C08AEE90E035C085EB90E0A2
:1022A00032C086EB90E02FC083EB90E02CC084EB33
:1022B00090E029C087EB90E026C08CEC90E023C032
:1022C0008DEC90E020C083E891E01DC08AE891E0A9
:1022D0001AC082E991E017C084E991E014C081E25C
:1022E00092E011C083E292E00EC084E292E00BC063
:1022F00085E292E008C086E292E005C087E292E0C3
:1023000002C08AE292E00F90DF91CF910C945D0FB2
:102310000F90DF91CF910895882309F45BC0682F57
:10232000823879F40E94250F81FF54C069E38091BF
:10233000190190911A010E94FB1B0E94AA1A69E3DD
:1023400010C08338B1F40E94250F80FF43C063E5BD
:102350008091190190911A010E94FB1B0E94AA1AF8
:1023600063E58091190190911A010E94061C0C945A
:10237000AA1A843879F40E94250F82FF2BC067E4E3
:102380008091190190911A010E94FB1B0E94AA1AC8
:1023900067E4E7CF8CEF860F813A18F380E2860F6F
:1023A000883048F4677081E001C0880F6A95EAF7C9
:1023B0000E94E61ADCCF8BE5860F833020F480E0A4
:1023C00090E00C94470F685A653120F480E090E06B
:1023D0000C945D0F0895882321F00E94E01A0C945C
:1023E000AA1A0895882321F00E94E61A0C94AA1ACA
:1023F00008958F929F92AF92BF92CF92DF92EF9209
:10240000FF920F931F93CF93DF931F92CDB7DEB749
:102410007C01C72EFC01058102950F7012811123EA
:1024200021F069830E94FD1A698169830E94A31AC1
:102430006981882381F0112371F080E2860F883052
:1024400050F082E00E948C1A0E94A31A91E0D82ECC
:10245000D926698101C0D12CAC2CA2948FE0A8228E
:10246000B12CF501E859FF4F0C94A3288C2D807FE7
:102470000C2D0F70882311F00295007F1123C1F0FD
:10248000002309F4D2C180E2860F883010F0611178
:1024900005C0802F69830E94E01A04C0802F6983E1
:1024A0000E94F01A698169830E94AA1A6981BDC1DC
:1024B000862F69830E948C116981002309F40EC262
:1024C00080E2860F883010F0611104C0802F0E94D6
:1024D000E61A03C0802F0E94F61A0E94AA1AFEC1B3
:1024E0009C2D907F8C2D8F70903211F08295807F83
:1024F000662319F06130B1F01EC0112349F00023AA
:1025000009F44BC1013009F048C10E94101BE6C11B
:10251000002319F0013009F4E1C189830E94131BE3
:10252000898141C1112321F0023008F0D7C135C1A2
:102530000111D4C138C1112321F0002309F42DC1A8
:1025400074C1002309F42FC181C18C2D8695869515
:10255000837090E0009719F0019761F0BFC11123DB
:1025600021F0862F9C2D937002C080E090E00E94A5
:10257000470FC4C1112321F0862F9C2D937002C0F8
:1025800080E090E00E945D0FB9C11123F9F0653F32
:1025900051F0663F71F0643FA9F48091620390911D
:1025A000630381600BC0809162039091630382603A
:1025B00005C08091620390916303846090936303EC
:1025C00080936203862F0E94AB1D1EC0653F51F0B1
:1025D000663F71F0643FA9F48091620390916303B8
:1025E0008E7F0BC080916203909163038D7F05C045
:1025F00080916203909163038B7F90936303809338
:102600006203862F0E94131E0E94981E77C18C2D94
:10261000837009F052C011116DC1862F8295869585
:102620008770880F880F962F9F70892E912CA12C70
:10263000B12C082E04C0880C991CAA1CBB1C0A943F
:10264000D2F764FF14C00FE010E020E030E0B901E1
:10265000A80104C0440F551F661F771F8A95D2F743
:10266000CB01BA01609570958095909503C060E0AC
:1026700070E0CB012C2D26952695237030E022307A
:10268000310569F02330310589F0682979298A29D3
:102690009B292130310571F00E94C6182BC1682991
:1026A00079298A299B290E94D81824C10E94C6181A
:1026B000C501B4010E94B4181DC1112319F08C2D5D
:1026C000817001C08695882309F414C1862F8295F4
:1026D00086958770880F880F962F9F70892E912C72
:1026E000A12CB12C082E04C0880C991CAA1CBB1C60
:1026F0000A94D2F764FF14C00FE010E020E030E04D
:10270000B901A80104C0440F551F661F771F8A95A1
:10271000D2F7CB01BA01609570958095909503C072
:1027200060E070E0CB012C2D269526952370422F7A
:1027300050E04230510569F04330510589F0682975
:1027400079298A299B294130510571F00E948A1903
:10275000D1C0682979298A299B290E949C19CAC05D
:102760000E948A19C501B4010E947819C3C0862F3E
:1027700090E0FC01E05EF109E531F10508F051C09F
:10278000E858FF4F0C94A328062F0F708C2D8F71E3
:10279000112331F00E941119802F0E94EB119EC06D
:1027A0000E943219802F0E94F21198C0112339F033
:1027B000011194C08C2D8F710E9457198FC0023067
:1027C00008F08CC0F7CF112339F08C2D8F710E9447
:1027D000111984C01123C9F38C2D8F710E943219F5
:1027E0007DC0112329F08C2D8F710E94FC1876C0BA
:1027F0000E94F71873C0112351F01C2D1F71812FF7
:102800000E94111963E0812F0E94831A67C081E042
:102810000E948C1A023008F461C082E00E948C1A77
:102820005DC0112331F0002381F2862F0E949810A1
:1028300055C0002389F2693349F45FEF77EE83E0F6
:10284000515070408040E1F700C00000862F0E9488
:102850008C1144C04C2D4F70C7010E94C9050E94C5
:1028600027184CC0623F99F128F4603F49F0613F5E
:10287000E1F020C0643FA1F050F0653F59F01AC06C
:10288000112339F19091930281E0892706C081E0FC
:1028900018271DC011111DC081E08093930219C03B
:1028A000111117C01092930214C0002381F011116E
:1028B00010C0E8CF002359F0862F6983112319F047
:1028C0000E94981002C00E948C11698102C010936E
:1028D00093024C2D4F70C7010E94420998E0A9163F
:1028E000B10441F05CF0FAE0AF1AB10822E0A216A0
:1028F000B10420F40E94250F0E944009DD20F1F070
:102900000E947F1A80FD1AC0F70112820E94791A74
:102910000E941119C7010E94AC140E94791A0F90ED
:10292000DF91CF911F910F91FF90EF90DF90CF90AB
:10293000BF90AF909F908F900C9432190F90DF91C1
:10294000CF911F910F91FF90EF90DF90CF90BF90AC
:10295000AF909F908F9008950F931F93CF93DF9325
:10296000EC01888199812B813C81232BB9F09F3F19
:1029700011F48F3F99F0CE010E947C07882371F0FB
:10298000688179818A810E94561A8C010E94AE1951
:102990000E94B118B801CE010E94F911DF91CF91C8
:1029A0001F910F9108950E94FD1A0E940D1B8091A6
:1029B000190190911A010E94111C0E94AA1A0E94EA
:1029C000311F0E94981E80E090E00E94470F80E037
:1029D00090E00C945D0F0E94ED1A0C94D3140E94A9
:1029E0004B1AE92FE295EF70F0E03297EE30F105E7
:1029F000B0F4E357FF4F0C94A328803F91F018F4F4
:102A0000803E68F40EC0843F51F40BC0803E48F015
:102A1000813F29F406C093FB882780F9089580E060
:102A2000089581E00895CF93DF9300D000D01F92E6
:102A3000CDB7DEB70F900F900F900F900F90DF91F2
:102A4000CF910895CF93DF9300D000D000D0CDB7C1
:102A5000DEB726960FB6F894DEBF0FBECDBFDF916E
:102A6000CF9108951F93CF93DF93C091940216E006
:102A700080919502C81799F0D0E01C9FF0011D9F2E
:102A8000F00D1124EA56FD4F40815181628173811E
:102A9000848195810E9422152196C770E9CFDF912C
:102AA000CF911F9108954091C6025091C702609145
:102AB000C8027091C9028091CA029091CB020C9415
:102AC00022158091CB0282958F7009F054C08091BD
:102AD000C802882309F44FC080919402A091950206
:102AE0006091C6027091C7024091C9025091CA021A
:102AF000B6E08A1709F43FC090E041155105C1F1D5
:102B00007F3F11F46F3FA1F1B89FF001B99FF00D25
:102B10001124EA56FD4F218172132AC020816213CD
:102B200027C02281211124C0238134812417350735
:102B300010F421503109241B350B283C3105C0F419
:102B40002091CB022F7020612093CB0226E0289F9A
:102B5000F001299FF00D1124E556FD4F80818F7003
:102B60008061808386EC92E00E94AC140C94321554
:102B700001968770BECF0895CF92DF92EF92FF92B9
:102B80000F931F93CF93DF93CDB7DEB762970FB646
:102B9000F894DEBF0FBECDBF8C0185E0F801DE01E9
:102BA0001D9601900D928A95E1F7D8014C911196EE
:102BB0005C91119712966C9112971396CD90DC90C0
:102BC00014973091C6027091C7028091C90290910A
:102BD000CA02009709F46BC17F3F19F43F3F09F423
:102BE00066C1E090C802EE2009F4C0C02091CB027B
:102BF000C816D90628F0F601E81BF90BCF0104C06E
:102C0000809590958C0D9D1DFF24F394883C910533
:102C100078F0F12C207F09F0C6C07C2DD98AC88AB3
:102C200089890E94131586EC92E00E94AC14B1C011
:102C3000822F807F09F046C0751314C0341312C070
:102C4000611110C02F7020612093CB020E94531598
:102C500086EC92E00E94AC148091CB02D8011596CC
:102C60008C932EC0CD2819F15F3F11F44F3FF9F03E
:102C7000F62E61111CC0809194022091950236E0DD
:102C8000821709F45AC090E0389FF001399FF00D87
:102C90001124EA56FD4F7181571306C07081471306
:102CA00003C07281711103C001968770E9CFF62EBF
:102CB000662309F418C18091CB0281608093CB0216
:102CC000F12C11C1751308C0341306C0611104C082
:102CD0008091CB02D801C3C04D875E878D859E85CC
:102CE0006A8B0E94EF146A898823E1F16623D1F18F
:102CF0002091CB02822F82958F7090E0029774F022
:102D00008091C6029091C70298878F831986DB86CF
:102D1000CA862C87CE0107960E94AC1486E0F80183
:102D2000A6ECB2E001900D928A95E1F70E94611540
:102D30000E945315FF24F394D6C04D875E878D857E
:102D40009E850E944B1A292F22952F7030E0223049
:102D500031050CF0BCC09F7009F0B6C0805E8830B1
:102D600008F4C1C0C8010E94AC14E4CFC816D9064B
:102D700008F453C0F601E81BF90BCF01883C91051C
:102D800008F450C0F12C7C2DD98AC88A89890E9408
:102D90001315E6ECF2E086E0DF011D928A95E9F773
:102DA0000E945315A0C0751314C0341312C06111D2
:102DB00010C08091CB02F8018583C8010E94AC1439
:102DC00086E0E6ECF2E0DF011D928A95E9F7FE2C41
:102DD0008AC04D875E878D859E856A8B0E94EF1421
:102DE0006A89882309F4BECF662309F4BBCF2091FA
:102DF000CB02822F82958F7090E002970CF48ECFD9
:102E00008091C6029091C7029A8389831B82DD82DA
:102E1000CC822E83CE0101967FCF809590958C0D2C
:102E20009D1DACCFF62E662309F49CCF75132EC0E2
:102E300034132CC02091CB0220FD1FC0822F82951D
:102E40008F70D9F0D80115962C9315978F3049F0D3
:102E50008F5F982F9295907F822F8F70892B159678
:102E60008C93C8010E94AC1486E0F801A6ECB2E095
:102E700001900D928A95E1F793CF86E0F801A6ECD8
:102E8000B2E001900D928A95E1F72DC04D875E87E3
:102E90008D859E850E94EF14811140CF8091CB02D9
:102EA00081608093CB02C8010E94AC141CC06623D1
:102EB00009F458CF4D875E878D859E850E94EF145B
:102EC000882309F44FCF2ACF811148CF0CC024307A
:102ED00031050CF047CF9F7009F440CFF801958180
:102EE000907F09F03BCF8F2D62960FB6F894DEBF2E
:102EF0000FBECDBFDF91CF911F910F91FF90EF904B
:102F0000DF90CF9008951F93CF93DF93CDB7DEB7B7
:102F10002C970FB6F894DEBF0FBECDBF4F835887F6
:102F200069877A878B879C87CE0107960E94BC159C
:102F3000882369F08F8198852A853B85232BF1F1C1
:102F40009F3F09F063C08F3F09F060C037C086E043
:102F5000FE013796DE01119601900D928A95E1F7F8
:102F60006F817885EA85FB85309741F17F3F11F4C9
:102F70006F3F21F12091950230E0C90101968770E1
:102F800099274091940250E08417950709F447C0AF
:102F900069837A83FD83EC8396E0929FD001939FAF
:102FA000B00D1124AA56BD4FFE01319601900D922D
:102FB0009A95E1F7809395020E94321516E0809170
:102FC0009402909195028917C1F1189FC0011124B4
:102FD0008A569D4F0E94BC15882379F1E091940296
:102FE0001E9FF0011124EA56FD4F408151816281FC
:102FF0007381848195810E9422158091940290E0D2
:1030000001968770992780939402D9CF4F81588574
:1030100069857A858B859C850E942215CFCF0E9479
:10302000EB141092950210929402E6ECF2E086E026
:10303000DF011D928A95E9F7C1CF2C960FB6F8945F
:10304000DEBF0FBECDBFDF91CF911F910895EF92EC
:10305000FF920F931F93CF93DF938C01892B09F479
:103060006CC0F12CEE24E394E8012196F8018491E0
:10307000843740F4843008F051C0813081F08230D0
:1030800019F15BC0853709F444C0A8F19CE7980F9B
:10309000903708F052C08F770E948C1141C00E5FAC
:1030A0001F4FFE01C49180E28C0F883048F4C77036
:1030B0008E2D01C0880FCA95EAF70E94001B14C02C
:1030C0008C2F0E9498102DC00E5F1F4FFE01C491DF
:1030D00080E28C0F883058F4C7708E2D01C0880FA5
:1030E000CA95EAF70E94061B0E94AA1A1AC08C2FE2
:1030F0000E948C1116C00E5F1F4FFE01C491CC239D
:1031000081F08FE99FE00197F1F700C00000C15006
:10311000F6CF0E5F1F4FFE01F49003C00E9498107F
:103120008E018F2D882309F49FCFEFE9FFE03197BF
:10313000F1F700C000008150F5CFDF91CF911F91D2
:103140000F91FF90EF90089508950E94A418609346
:103150000703709308038093090390930A030C9468
:10316000D31408950C94A5180F931F93009107038F
:10317000109108032091090330910A03602B712BF1
:10318000822B932B1F910F910C94A5180F931F93D3
:1031900000910703109108032091090330910A035D
:1031A00060237123822393231F910F910C94A51800
:1031B0000F931F93009107031091080320910903B7
:1031C00030910A0360277127822793271F910F915F
:1031D0000C94A51808950E94EA1860930303709355
:1031E000040380930503909306030C94D31460E0CA
:1031F00070E0CB010C94EB180F931F9341E050E06B
:1032000060E070E08A019B0104C0000F111F221FC3
:10321000331F8A95D2F7C901B8011F910F910C9401
:10322000EB180F931F9341E050E060E070E004C0A2
:10323000440F551F661F771F8A95D2F780910303AD
:1032400090910403A0910503B09106038A019B01AC
:10325000082B192B2A2B3B2BC901B8011F910F9169
:103260000C94EB180F931F9341E050E060E070E086
:1032700004C0440F551F661F771F8A95D2F74095EB
:103280005095609570958091030390910403A091EF
:103290000503B09106038A019B01082319232A2301
:1032A0003B23C901B8011F910F910C94EB180F93A8
:1032B0001F9341E050E060E070E004C0440F551FF0
:1032C000661F771F8A95D2F78091030390910403BC
:1032D000A0910503B09106038A019B0108271927D5
:1032E0002A273B27C901B8011F910F910C94EB18B5
:1032F0000F931F9300910303109104032091050382
:1033000030910603602B712B822B932B1F910F9111
:103310000C94EB180F931F93009103031091040377
:1033200020910503309106036023712382239323A8
:103330001F910F910C94EB180F931F9300910303AF
:103340001091040320910503309106036027712733
:10335000822793271F910F910C94EB180895292F22
:10336000220F920F990F890FA82FA695A695A695C3
:10337000877051E001C0550F8A95EAF785E0A89F54
:10338000D001112420E030E070E0F901EA0FFB1FCA
:10339000E453FD4F4081CB01022E02C096958795E4
:1033A0000A94E2F7817099278195842785238427E1
:1033B00080832F5F3F4F2530310539F70895292F3E
:1033C000220F920F990F890F682F66956695669563
:1033D000982F977085E0689FB001112440E050E07D
:1033E00080E0FA01E60FF71FE453FD4F208130E043
:1033F000092E02C0369527950A94E2F721703327EB
:10340000042E01C0220F0A94EAF7822B4F5F5F4F10
:103410004530510531F70895CF92DF92EF92FF9238
:103420000F931F93CF93DF938C01C0900703D0902D
:103430000803E0900903F0900A0380910303909140
:103440000403A0910503B0910603C82AD92AEA2AE9
:10345000FB2ACFE1D0E0D701C6010C2E04C0B695FF
:10346000A795979587950A94D2F780FF06C0B80173
:103470008C2F0E945D09019721F4219760F780E06D
:1034800001C08C2FDF91CF911F910F91FF90EF9092
:10349000DF90CF900895CF93DF93EC010E940C1A38
:1034A000BE010E945D09DF91CF9108951F93CF93D4
:1034B000DF93EB0190919202992321F0CB010E94BE
:1034C0004B1A13C0882349F0CB010E940C1A182F05
:1034D000682FCE010E94AF1904C0CB010E94DF19F2
:1034E000182FBE01812F0E945D09DF91CF911F919E
:1034F000089580910B038595859585950895809114
:103500000B038770089598E0899F90011124262B62
:1035100020930B030C94111920910B0380958223A7
:1035200080930B03982F977069F430E0482F082E92
:10353000000C550B2417350729F085958595859541
:103540000C943219089590910B03977081E009F45F
:1035500080E00895E0911901F0911A0180912F0304
:103560008083E0911901F0911A01908180912E03DE
:10357000892B8083E0911901F0911A01908180914B
:103580002D03892B808380910C03882381F0E091A7
:103590001901F0911A019081892B80838091190182
:1035A00090911A010E949F1B811110920C0380912F
:1035B000190190911A010C94310F80912F030895F5
:1035C00090912F03892B80932F03089580959091DC
:1035D0002F03892380932F03089510922F030895BA
:1035E00090912E03892B80932E03089580959091BE
:1035F0002E03892380932E03089510922E0308959D
:1036000090912D03892B80932D030895809590919F
:103610002D03892380932D03089510922D0308957F
:1036200080930C03089510920C03089580910C036D
:103630000895CF92DF92EF92FF926C01EE24FF2467
:10364000C114D104E104F10421F0C701B60120E165
:1036500001C020E0C72ED82EE92EFF24C114D104CA
:10366000E104F10419F0285FC701B6016B017C0188
:1036700054E0F694E794D794C7945A95D1F7C114BF
:10368000D104E104F10419F02C5FC701B6016B010C
:103690007C0142E0F694E794D794C7944A95D1F719
:1036A000C114D104E104F10419F02E5FC701B60181
:1036B000DC01CB01B695A79597958795892B8A2B29
:1036C0008B2B09F02F5F822FFF90EF90DF90CF9030
:1036D00008956DEE7EEF80E090E00E94DD2860E0CE
:1036E00082E090E00E94CB2860E083E090E00E94BE
:1036F000CB2860E084E090E00E94CB2860E085E089
:1037000090E00C94CB2880E090E00E94C52821E056
:103710008D3E9E4F09F020E0822F089582E090E0D8
:103720000C94BD2883E090E00C94BD2884E090E0E8
:103730000C94BD28682F84E090E00C94CB28FC0109
:1037400031969C01205E3F4F80E0919191118F5FF7
:10375000E217F307D1F708959C01FC0132969FEF21
:1037600080E04191461789F09F3F19F4411101C053
:10377000982F8F5F8E31A9F79F3F39F0F901E90F3C
:10378000F11D97FDFA95628308950895FC01329624
:1037900080962081261301C010823196E817F90720
:1037A000C1F70895262F2695269526952F3168F482
:1037B000FC01E20FF11D677021E030E001C0220F33
:1037C0006A95EAF78181282B21830895262F269573
:1037D000269526952F3170F4FC01E20FF11D6770DC
:1037E00021E030E001C0220F6A95EAF7209581813F
:1037F00028232183089520912A01222329F0209152
:10380000680327FD0C94D21B0C94AC1B20912A0159
:10381000222329F02091680327FD0C94E61B0C94C9
:10382000C61BFC01319680961192E817F907E1F763
:10383000089580916E03843039F11092310320E4B1
:1038400088E190E00FB6F894A895809360000FBED1
:103850002093600080E00E94400983B7817F8460EC
:1038600083BF83B7816083BF7894889583B78E7F49
:1038700083BF0FB6F894A89580916000886180930B
:103880006000109260000FBE08950895CF930E94CB
:1038900093040E94E0040E94451CC0E08C2F0E940B
:1038A000C205811104C0CF5FCE30C1F701C081E0F5
:1038B000CF9108950E94EB140E94250F0C944009AB
:1038C0001F920F920FB60F9211248F939F93AF9375
:1038D000BF9380913103811113C080916403909153
:1038E0006503A0916603B09167034196A11DB11DC8
:1038F0008093640390936503A0936603B09367037A
:10390000BF91AF919F918F910F900FBE0F901F901D
:10391000189582E084BD93E095BD9AEF97BD8093A2
:103920006E0008952FB7F894809164039091650319
:10393000A0916603B09167032FBF0895CF92DF92E5
:10394000EF92FF920F931F932FB7F8944091640367
:103950005091650360916603709167032FBF6A0100
:103960007B01EE24FF248C0120E030E0C016D1065C
:10397000E206F30610F4415051099A01281B390B55
:10398000C9011F910F91FF90EF90DF90CF900895A4
:1039900078941F920F920FB60F9211248F939F93DA
:1039A000AF93BF938091640390916503A0916603E8
:1039B000B09167030196A11DB11D8093640390939C
:1039C0006503A0936603B0936703BF91AF919F9186
:1039D0008F910F900FBE0F901F9018950E94882511
:1039E000F8942FEF87EA91E6215080409040E1F76C
:1039F00000C0000087E090EBDC0180937703909398
:103A00007803A0937903B0937A039CE088E10FB622
:103A1000F894A895809360000FBE90936000FFCF4C
:103A20000E94831B811102C00E94691B0E948E1B91
:103A3000809330030E94961B90E0909369038093DB
:103A400068030E94921B682F70E080E090E00C9465
:103A5000B2188091350380FF0BC060911E0185E094
:103A6000689FB001112475956795759567952BC072
:103A700081FF09C060911E0185E0689FB00111249B
:103A80007595679520C082FF07C060911E0185E093
:103A9000689FB001112417C0909136039923D1F08B
:103AA00060911D01961788F720911E0185E0289FDF
:103AB00090011124929FA001939F500D112470E05A
:103AC000CA010E948F286038710540F461157105A4
:103AD00039F002C065E070E0862F08958FE7089501
:103AE00081E008958091350380FF08C060911C013A
:103AF00070E0759567957595679521C081FF06C043
:103B000060911C0170E07595679519C082FF04C033
:103B100060911C0170E010C0909136039923C1F0B0
:103B200060911B019617A0F780911C01899FC0012D
:103B3000112470E00E948F286038710528F4611507
:103B4000710521F0862F08958FE7089581E008958B
:103B500061E070E0F4CF803F21F40E94291D81953F
:103B600004C0813F29F40E94291D809339030895E0
:103B7000823F21F40E94291D819504C0833F29F4CE
:103B80000E94291D809338030895893F19F40E94EB
:103B9000721D05C08A3F31F40E94721D8195809389
:103BA0003A0308958B3F21F40E94721D819504C051
:103BB0008C3F29F40E94721D80933B030895843F3B
:103BC00021F480913703816017C0853F21F48091F3
:103BD0003703826011C0863F21F4809137038460EF
:103BE0000BC0873F21F480913703886005C0883F70
:103BF00031F48091370380618093370308958D3FBE
:103C000021F48091350381600BC08E3F21F48091B7
:103C10003503826005C08F3F29F4809135038460AD
:103C2000809335030895803F39F48091390387FFED
:103C30006CC01092390369C0813F29F48091390327
:103C40001816BCF362C090913803823F29F497FFA5
:103C50005CC01092380359C0833F19F41916CCF395
:103C600054C0893F41F480913A0318160CF04DC0BE
:103C700010923A034AC08A3F29F480913A0387FFA1
:103C800044C0F6CF8B3F39F480913B0387FF3DC0A2
:103C900010923B033AC08C3F29F480913B031816E5
:103CA000BCF333C0843F21F4809137038E7F17C06B
:103CB000853F21F4809137038D7F11C0863F21F429
:103CC000809137038B7F0BC0873F21F480913703AE
:103CD000877F05C0883F31F4809137038F7E8093C2
:103CE000370313C08D3F21F4809135038E7F0BC0C5
:103CF0008E3F21F4809135038D7F05C08F3F29F4DD
:103D0000809135038B7F8093350380913803811137
:103D10000EC08091390381110AC080913A0381114C
:103D200006C080913B03811102C0109236030895B2
:103D300087E393E00E943C0F0E94921C9093330310
:103D40008093320308951F93CF93DF9380913203C2
:103D5000909133030E949E1CAC01909136039923ED
:103D600021F020911F0130E006C0209134038AE049
:103D7000289F900111244217530708F46EC08091C8
:103D80003803C0913903D0913A0310913B0381115C
:103D900007C0C1115EC0D1115CC011115AC05DC015
:103DA0009F3F19F09F5F90933603181624F40E94EA
:103DB000291D809338038091380387FF05C00E9436
:103DC000291D8195809338031C1624F40E94291D17
:103DD000809339038091390387FF05C00E94291D14
:103DE00081958093390340913803442379F03091D1
:103DF0003903332359F025EB4203A00111245093DA
:103E000038033203C0011124909339031D1624F4A2
:103E10000E94721D80933A0380913A0387FF05C088
:103E20000E94721D819580933A03111624F40E941A
:103E3000721D80933B0380913B0387FF05C00E9466
:103E4000721D819580933B03DF91CF911F910C945C
:103E5000981E9F3F09F0A6CFAECFDF91CF911F9163
:103E60000895E7E3F3E085E0DF011D928A95E9F725
:103E700010923603109235030895833081F128F4AF
:103E8000813059F08230D1F00895853009F449C06D
:103E9000B8F1863009F456C0089580913403262F76
:103EA00030E0280F311D2F3F310524F4680F609357
:103EB000340308958FEF80933403089580911F0198
:103EC000262F30E0280F311D2F3F310524F4680FD5
:103ED00060931F0108958FEF80931F0108958091D3
:103EE0001E01262F30E0280F311D2F3F310524F40D
:103EF000680F60931E0108958FEF80931E0108954F
:103F000080911D01262F30E0280F311D2F3F3105F4
:103F100024F4680F60931D0108958FEF80931D01B5
:103F2000089580911C01262F30E0280F311D2F3F6E
:103F3000310524F4680F60931C0108958FEF80937E
:103F40001C01089580911B01262F30E0280F311DA0
:103F50002F3F310524F4680F60931B0108958FEF04
:103F600080931B010895833011F128F4813049F0CA
:103F7000823091F00895853081F120F18630C1F1D1
:103F8000089580913403681720F4861B80933403CE
:103F9000089510923403089580911F01681720F44A
:103FA000861B80931F01089510921F010895809130
:103FB0001E01681720F4861B80931E01089510923D
:103FC0001E01089580911D01681720F4861B8093BF
:103FD0001D01089510921D01089580911C0168171C
:103FE00020F4861B80931C01089510921C010895F3
:103FF00080911B01681720F4861B80931B01089594
:1040000010921B0108950F931F93873208F04DC043
:104010008E3108F093C0803109F47DC008F58730F7
:1040200009F46BC068F4863009F0A3C080913003B6
:10403000817F8E7F8093300381E080933D039AC01F
:104040008B3009F48FC08E3009F093C0809130031B
:1040500082FB222720F991E0922790FB82F964C02D
:10406000863109F47FC088F4813109F082C00E9452
:10407000EB148091680387FB222720F991E09227B7
:1040800090FB87F9809368036DC0893109F46AC099
:104090008B3109F06EC08091300381FB222720F91B
:1040A00091E0922790FB81F93FC0883309F45AC010
:1040B00050F4893209F458C0853309F455C0873269
:1040C00009F452C056C0833409F44EC028F48A3330
:1040D00008F44FC0895333C0883409F04AC00E94A5
:1040E000EB140FEF13ED20E3015010402040E1F7F7
:1040F00000C000000E94EE1C35C080913003982F54
:104100009095917090FB80F98093300391112AC0B3
:10411000897F877F10C08091300383FB222720F99D
:1041200091E0922790FB83F9809330039923D1F09B
:104130008091300381608093300314C08D5141E041
:1041400050E060E070E08A019B0104C0000F111F85
:10415000221F331F8A95D2F7C901B8010E94B218F5
:104160000E94EB1481E006C061E070E080E090E026
:10417000F5CF80E01F910F91089580E0089580E0D1
:1041800008958E518A3030F4E82FF0E0ED52FE4F62
:104190008081089580E00895CF93C82F80913D03DA
:1041A000813079F018F08230E9F185C0E091190191
:1041B000F0911A018081813169F0823209F07DC06D
:1041C00009C0E0911901F0911A018081813111F04B
:1041D000823261F48C2F0E94BD20811104C08C2F8B
:1041E0000E9403201DC081E090E01AC08C2F0E9425
:1041F000BF20811114C0C43179F048F4CB3079F07C
:10420000C03109F05EC082E080933D0308C0C9322E
:1042100019F0C83321F055C010923D0352C081E01F
:10422000817051C0C93279F108F5C43161F1A0F44F
:10423000C73009F044C01092340384E180931F0119
:10424000C0931E018CE380931D0188E080931C01C4
:1042500088E280931B0133C082EE8C0F863078F5A4
:104260008C2F0E94C12080933C0329C0CE34E9F0FA
:1042700020F4CB3421F56AE013C0C13579F0C235A2
:10428000F1F461E00DC080913C03882319F0109295
:104290003C0315C081E080933D0315C061E006C07A
:1042A00080913C030E943D1F0AC06AE080913C035C
:1042B0000E94B31F04C010923D0380E004C081E05F
:1042C00002C080E0ADCFCF91089580915E03089544
:1042D0000F931F93CF93DF9300D01F92CDB7DEB71C
:1042E0008C010E94D623823011F0843019F593E0BE
:1042F00099831B830A839093E9008FEF9091E800E4
:10430000815095FD06C095ED9A95F1F70000811159
:10431000F5CF8091E80085FF0DC040E050E063E0FC
:1043200070E0CE0101960E94F3238091E8008E7721
:104330008093E8000F900F900F90DF91CF911F9125
:104340000F910895CF93DF9300D01F92CDB7DEB7C2
:1043500020916E03243031F522E0298380589109A1
:104360009B838A8383E08093E9008FEF9091E8003C
:10437000815095FD06C095ED9A95F1F700008111E9
:10438000F5CF8091E80085FF0DC040E050E063E08C
:1043900070E0CE0101960E94F3238091E8008E77B1
:1043A0008093E8000F900F900F90DF91CF910895C8
:1043B000CF93DF93EC010E94D623823011F084303A
:1043C000F9F482E08093E9009FEF8091E80091503A
:1043D00085FD06C085ED8A95F1F700009111F5CFB6
:1043E0008091E80085FF0CC040E050E065E070E09F
:1043F000CE010E94F3238091E8008E778093E8003D
:10440000DF91CF910895CF93DF93EC010E94D623E3
:10441000823019F0843009F047C080912A01882346
:10442000E1F08091680387FF18C084E08093E90081
:104430008FEF9091E800815095FD06C095E19A9527
:10444000F1F700008111F5CF8091E80085FF2CC0C5
:1044500040E050E060E270E017C081E08093E90046
:104460008FEF9091E800815095FD06C095ED9A95EB
:10447000F1F700008111F5CF8091E80085FF14C0AD
:1044800040E050E068E070E0CE010E94F3238091AC
:10449000E8008E778093E80080E2FE01AEE3B3E0AF
:1044A00001900D928A95E1F7DF91CF910895809167
:1044B0006D03811109C00E9488250E94E525809125
:1044C000E20084608093E200089510926D030895E5
:1044D000089508950C945A1C42E061EC81E00E941A
:1044E000022542E061EC82E00E94022542E061EC9C
:1044F00083E00E94022542E261EC84E00C940225F4
:1045000080917003833009F455C030F4813071F02C
:10451000823009F48EC008958A3009F47AC08B3055
:1045200009F460C0893009F09CC020C080916F03FD
:10453000813A09F096C08091E800877F8093E80077
:104540008091730390917403892B21F460E28EE3D0
:1045500093E003C060E080E090E070E00E943E24C1
:104560008091E8008B778093E800089580916F0335
:10457000813209F076C080917303909174030097A3
:1045800019F0039709F06DC08091E800877F809350
:10459000E8008091E80082FD05C080916E038111E2
:1045A000F8CF5FC08091F10080935E038091E800B6
:1045B0008B7753C080916F03813A09F052C080918C
:1045C000730390917403892B09F04BC08091E8002C
:1045D000877F8093E8008091E80080FFFCCF809186
:1045E0002A0136C080916F038132D9F5809173031F
:1045F00090917403892BA9F58091E800877F8093BF
:10460000E8000E9437258091710380932A010C9461
:10461000EB1480916F03813221F58091E800877F50
:104620008093E8000E9437258091720380935F0396
:10463000089580916F03813AA1F48091E800877F0B
:104640008093E8008091E80080FFFCCF80915F03B9
:104650008093F1008091E8008E778093E8000C94BD
:104660003725089584B7877F84BF0FB6F894A8953F
:1046700080916000886180936000109260000FBE9E
:1046800080E880936100109261000E94740F0E9484
:1046900088250E94E5258091E20084608093E200F5
:1046A00078940E9474280E94760F80E291E00E9424
:1046B000200F80916E03853069F40E94191C80914F
:1046C0006C038823B1F30E94461C882391F30E9457
:1046D000DD23EFCF0E947C0FECCF292F332723302F
:1046E0003105C9F064F42130310581F02230310503
:1046F00009F043C08DE690E020EE35E042C0213263
:104700003105F1F02232310541F137C082E190E00C
:104710002DE436E036C099278130910541F0823092
:10472000910541F0892B49F5ECEDF5E005C0E4EC8D
:10473000F5E002C0ECEAF5E0849190E09F0121C031
:1047400064307105D0F4660F771FFB01E751FE4F0F
:104750002081318189E090E014C06430710568F4F3
:10476000FB01EE0FFF1FEF51FE4F20813181FB0156
:10477000E352FE4F808190E004C080E090E020E0B2
:1047800030E0FA013183208308950895CF93C82F34
:104790000E94C523C0936003CF91089580916E035A
:1047A000843011F081E0089582E0089580916003E3
:1047B000811102C00C94CE23089580E189BD82E16D
:1047C00089BD09B400FEFDCF8091D8008F7D809314
:1047D000D8008091E00082608093E0008091E0004A
:1047E00081FDFCCF0895CF92DF92EF92FF920F935D
:1047F0001F93CF93DF93EC018B016A010E94562532
:10480000811133C0C114D10439F0F6018081918146
:10481000081B190BC80FD91FE12CF12C011511052C
:1048200019F18091E80085FD16C08091E8008E772F
:104830008093E800C114D10449F0F6018081918190
:10484000E80EF91EF182E08285E00FC00E94562535
:10485000882321F30AC089918093F1000150110946
:10486000FFEFEF1AFF0ADACF80E0DF91CF911F91BF
:104870000F91FF90EF90DF90CF90089520917503F6
:10488000309176032617370748F06115710539F422
:104890002091E8002E772093E80001C0B90140E0A4
:1048A00061157105A9F120916E03222309F443C01B
:1048B000253009F442C02091E80023FD40C020913A
:1048C000E80022FD32C02091E80020FFE9CF4091AE
:1048D000F3002091F20030E0342BFC01CF01611590
:1048E000710559F02830310540F481918093F10031
:1048F000615071092F5F3F4FF1CF41E02830310502
:1049000009F040E02091E8002E772093E800C8CF1E
:104910004111C9CF0AC080916E03882361F08530B0
:1049200061F08091E80083FD0AC08091E80082FF79
:10493000F2CF80E0089582E0089583E0089581E059
:10494000089520917503309176032617370748F0B4
:104950006115710539F42091E8002E772093E80065
:1049600001C0B901FC0120E06115710591F1809150
:104970006E03882309F440C0853009F43FC080915C
:10498000E80083FD3DC08091E80082FD2FC080914A
:10499000E80080FFE9CF2091F3008091F20090E0E1
:1049A000922B6115710559F08830910540F42491DE
:1049B0002093F1003196615071090196F2CF21E008
:1049C000089709F020E08091E8008E778093E80056
:1049D000CBCF2111CCCF0AC080916E03882361F028
:1049E000853061F08091E80083FD0AC08091E80085
:1049F00082FFF2CF80E0089582E0089583E0089579
:104A000081E00895982F973058F59093E900981712
:104A100039F07091EC002091ED005091F00003C04E
:104A2000242F762F50E021FF19C03091EB003E7FFC
:104A30003093EB003091ED003D7F3093ED003091ED
:104A4000EB0031603093EB007093EC002093ED00AD
:104A50005093F0002091EE0027FF07C09F5FD3CF57
:104A60008F708093E90081E0089580E0089580913F
:104A70006F0387FF11C08091E80082FD05C080911F
:104A80006E038111F8CF11C08091E8008B770BC0C5
:104A900080916E03882349F08091E80080FFF8CF71
:104AA0008091E8008E778093E80008952091E400DB
:104AB0003091E50095E64091EC00842F817040FF35
:104AC00022C08091E80080FD1CC080916E03882385
:104AD00091F0853091F08091EB0085FD10C0409100
:104AE000E4005091E5004217530729F39A019150D1
:104AF00011F784E0089582E0089583E0089581E04D
:104B0000089580E008954091E80042FFDECF0895C7
:104B10000E94F6250E94FE25E0EEF0E08081816093
:104B20008083E8EDF0E080818F77808319BCA7ED6A
:104B3000B0E08C918E7F8C9380818F7E80831092E9
:104B40006D0308950F931F93CF93DF930E94F62573
:104B50000E94FE25C8EDD0E088818F778883888108
:104B60008068888388818F7D888319BC10926E034A
:104B700010926A0310926C0310926B0300EE10E027
:104B8000F80180818B7F808388818160888342E007
:104B900060E080E00E940225E1EEF0E080818E7FFF
:104BA0008083E2EEF0E08081816080838081886094
:104BB0008083F80180818E7F8083888180618883F3
:104BC000DF91CF911F910F910895E8EDF0E0808182
:104BD0008F7E8083E7EDF0E080818160808384E0D8
:104BE00082BF81E080936D030C94A225E8EDF0E094
:104BF00080818E7F80831092E20008951092DA0007
:104C00001092E10008951F920F920FB60F92112497
:104C10002F933F934F935F936F937F938F939F93C4
:104C2000AF93BF93EF93FF938091E10082FF0BC09E
:104C30008091E20082FF07C08091E1008B7F80932A
:104C4000E1000E9473288091DA0080FF1FC08091EC
:104C5000D80080FF1BC08091DA008E7F8093DA003D
:104C60008091D90080FF0DC080E189BD82E189BDBE
:104C700009B400FEFDCF81E080936E030E945722AD
:104C800005C019BC10926E030E9465228091E1005C
:104C900080FF19C08091E20080FF15C08091E20082
:104CA0008E7F8093E2008091E20080618093E20039
:104CB0008091D80080628093D80019BC85E08093F1
:104CC0006E030E9469228091E10084FF30C08091D0
:104CD000E20084FF2CC080E189BD82E189BD09B476
:104CE00000FEFDCF8091D8008F7D8093D800809109
:104CF000E1008F7E8093E1008091E2008F7E8093BF
:104D0000E2008091E20081608093E20080916A037A
:104D1000882311F084E007C08091E30087FD02C082
:104D200081E001C083E080936E030E946A2280913B
:104D3000E10083FF29C08091E20083FF25C08091BC
:104D4000E100877F8093E10082E080936E03109200
:104D50006A038091E1008E7F8093E1008091E20000
:104D60008E7F8093E2008091E20080618093E20078
:104D700042E060E080E00E9402258091F0008860BF
:104D80008093F0000E946822FF91EF91BF91AF9154
:104D90009F918F917F916F915F914F913F912F9153
:104DA0000F900FBE0F901F9018951F920F920FB685
:104DB0000F9211242F933F934F935F936F937F93A1
:104DC0008F939F93AF93BF93CF93DF93EF93FF9313
:104DD000C091E900CF708091EC00D82FD17080FD98
:104DE000D0E81092E9008091F000877F8093F00076
:104DF00078940E9419271092E9008091F000886051
:104E00008093F000CD2BCF70C093E900FF91EF911C
:104E1000DF91CF91BF91AF919F918F917F916F91D2
:104E20005F914F913F912F910F900FBE0F901F9068
:104E300018951F93CF93DF93CDB7DEB7AA970FB620
:104E4000F894DEBF0FBECDBFEFE6F3E088E08E0F33
:104E50009091F10091938E13FBCF0E94802280915C
:104E6000E80083FF28C180916F0390917003492F60
:104E700050E04A30510508F01EC1FA01E556FF4FD7
:104E80000C94A328803821F0823809F014C108C09E
:104E900080916B0390916C03992389F082600FC01D
:104EA000809173038F70873008F005C18093E9000B
:104EB0008091EB0085FB882780F91092E9009091A2
:104EC000E800977F9093E8008093F1001092F10042
:104ED000D0C0282F2D7F09F0EEC0882319F0823032
:104EE00061F0E9C080917103813009F0E4C0933032
:104EF00009F080E080936C032EC0809171038111D2
:104F00002AC0809173038F702FEF280F263008F08E
:104F1000D2C08093E9002091EB0020FF1CC09330A9
:104F200021F48091EB00806214C09091EB009061BD
:104F30009093EB0021E030E0A90102C0440F551F1F
:104F40008A95E2F74093EA001092EA008091EB0024
:104F500088608093EB001092E9008091E800877FE1
:104F60008093E8000E943725A6C08111A4C010914B
:104F700071031F778091E3008078812B8093E30099
:104F80008091E800877F8093E8000E943725809118
:104F9000E80080FFFCCF8091E30080688093E3000D
:104FA000111102C082E001C083E080936E0383C0D0
:104FB0008058823008F07FC0809171039091720315
:104FC0008C3D53E0950779F583E08A838AE28983F3
:104FD0004FB7F894DE01139620E03EE051E2E32F54
:104FE000F0E050935700E49120FF03C0E295EF708A
:104FF0003F5FEF708E2F90E0EA3010F0C79601C04F
:10500000C0968D939D932F5F243149F74FBF8091B8
:10501000E800877F8093E8006AE270E0CE010196A5
:105020000E943E2415C06091730370917403AE0119
:105030004F5F5F4F0E946D23BC01892BE1F190917E
:10504000E800977F9093E80089819A810E94A124CB
:105050008091E8008B778093E8002DC0803859F567
:105060008091E800877F8093E80080916A038093B5
:10507000F1008091E8008E7773CF81111CC0909170
:1050800071039230C0F48091E800877F8093E8003C
:1050900090936A030E94372580916A03811106C0AC
:1050A0008091E30087FD02C081E001C084E080932D
:1050B0006E030E946C228091E80083FF0AC08091F9
:1050C000E800877F8093E8008091EB008062809306
:1050D000EB00AA960FB6F894DEBF0FBECDBFDF91EE
:1050E000CF911F9108950895CF9380916E038823E7
:1050F000A1F0C091E900CF709091EC00892F8170F0
:1051000090FD80E8C82B1092E9008091E80083FDB3
:105110000E941927CF70C093E900CF91089597FBA3
:10512000072E16F4009407D077FD09D00E94A92815
:1051300007FC05D03EF4909581959F4F089570959A
:1051400061957F4F0895EE0FFF1F0590F491E02DBC
:105150000994AA1BBB1B51E107C0AA1FBB1FA617BE
:10516000B70710F0A61BB70B881F991F5A95A9F710
:1051700080959095BC01CD010895F999FECF92BD1F
:1051800081BDF89A992780B50895A8E1B0E042E082
:1051900050E00C94E528262FF999FECF92BD81BDF1
:1051A000F89A019700B4021639F01FBA20BD0FB665
:1051B000F894FA9AF99A0FBE08950196272F0E9443
:1051C000CC280C94CB28DC01CB01FC01F999FECF53
:1051D00006C0F2BDE1BDF89A319600B40D9241507F
:0A51E0005040B8F70895F894FFCF8F
:1051EA000000D70DE70D00000000000000000000DD
:1051FA000013012F00340020FF0D0328083C071478
:10520A0065210322D821A221682101000D010D0286
:10521A000D030D040D050D000C010C020C030C040A
:10522A000C050C000B010B020B030B040B050B0006
:10523A000A010A020A030A040A050A000901090204
:10524A0009030904090509000801080208030804FA
:10525A0008050800070107020703070407050700F6
:10526A0006010602060306040605060005010502F4
:10527A0005030504050505000401040204030404EA
:10528A0004050400030103020303030403050300E6
:10529A0002010202020302040205020001010102E4
:1052AA0001030104010501000001000200030004DA
:1052BA0000050001020304050607080900404D36EF
:1052CA00391B07CE0698065F06F2050B0624063D33
:0252DA000600CC
:00000001FF
