:100000000C943B040C9466060C9482040C948204B9
:100010000C9482040C9482040C9482040C94820448
:100020000C9482040C9482040C94A8280C947A29D1
:100030000C943A1F0C9482040C9482040C94820455
:100040000C9482040C9482040C9482040C94820418
:100050000C9482040C94A21F0C9482040C948204CD
:100060000C9482040C9482040C9482040C948204F8
:100070000C9482040C9482040C9482040C948204E8
:100080000C9482040C9482040C9482040C948204D8
:100090000C9482040C9482040C9482040C948204C8
:1000A0000C9482040C9482040C948204970899089E
:1000B000A4089B089D089F08A108A308A608A808F3
:1000C000AA08B508AC08AE08B008B208B408B7086A
:1000D000341634166E166E16AD16CD16401840182E
:1000E0000F174018BF17BF173218401840183A189A
:1000F000CC17CC17CC17CC17CC17CC17CC17CC17E8
:10010000CC17CC17CC17CC17CC17CC17CC17CC17D7
:10011000DE17EC17F317FA170418CF18CF18E118E9
:10012000E118D818E118E118E118CF18CF18DD1838
:10013000E118E118DD18E729092AF72A092AF72A20
:100140004E2A712AF72AC62AD92A617177657273F5
:10015000646600018C2AA128A22CA32B0014001A8B
:1001600000080015001700296104001600070009A7
:10017000000A0000571D001B0006001900050006BC
:10018000510007E200E300012003202A00130012BF
:10019000000C0018001C00340033000F000E000D8E
:1001A000000B002872380037003600100011004F95
:1001B000005200510050780220032035021E021F19
:1001C0000220022102220201003A003B003C003DD5
:1001D000003E000100400041004200430044000492
:1001E00053000F0100010001000100010027022659
:1001F00002250224022302310230022F022E022D98
:10020000023F000100010001000100010045004D16
:10021000004B004E004A000100010035001E001F87
:1002200000200021002200010021002200230037CD
:100230000001000100240025002600270001000520
:1002400053000F01000100010001000100270026FA
:1002500000250024002300310030002F002E002D47
:10026000000100010001003700010001000100BB96
:1002700000A900AA000257010001000100010000CE
:10028000300100210A210B010001000130010001B1
:100290000001000100010002300100010001000125
:1002A00000010001000100010001004C0001004DAF
:1002B0000052004A000100010001004F00510050AF
:1002C000004B00005C010001000100100A4E00011B
:1002D0000001000100010001000100010001000116
:1002E0000001000100010001000100010001000106
:1002F00000010001000100010001000100010001F6
:1003000000010001000100010001002A0056006107
:100310000060005F000100530057005E005D005C5C
:10032000000100280063005B005A00590001000131
:100330000001000100010062000100010014001A28
:1003400000070009000E0001000400160008001755
:10035000000A0001001D001B000600190005000135
:100360000001000100010001000100010033000F45
:1003700000150018000D0034000B0012000C0011D5
:10038000001C002800010037003600100013000197
:100390000001000100010001000100010001000155
:1003A0000001000100010001000100010001000145
:1003B0000001000100BE5CBF5CC15CC05CC35C01AD
:1003C0000001000100010001000100010001000125
:1003D0000001000100010001000100010001000115
:1003E000000100010001000100C45CC55CC25C01A9
:1003F00000010001000100010001000000000000F8
:100400000000002A2B28000000000000000000006F
:1004100000000000000029000000002C1E342021F4
:100420002224342627252E362D3738271E1F20213B
:1004300022232425263333362E37381F040506079A
:1004400008090A0B0C0D0E0F1011121314151617B4
:1004500018191A1B1C1D2F3130232D3504050607D2
:1004600008090A0B0C0D0E0F101112131415161794
:1004700018191A1B1C1D2F3130354C0000000000CC
:10048000000000000000000000000000000000006C
:100490000000000000000000000000000101010158
:1004A0000101000101010100000000000000000046
:1004B0000000000000010001000101010101010133
:1004C000010101010101010101010101010101011C
:1004D0000101010101010000000101000000000014
:1004E000000000000000000000000000000000000C
:1004F00000000000000001010101006801F000B4EB
:100500000078005A00643214643214783C1E1E14C1
:100510000A050000000001010102020304050506AE
:1005200007090A0B0C0E0F1112141517191B1D1FAA
:10053000212325282A2C2F313436393B3E4143468E
:10054000494C4F5255585A5D6164676A6D707376B5
:10055000797C7F8386898C8F9295989B9EA2A5A794
:10056000AAADB0B3B6B9BCBEC1C4C6C9CBCED0D398
:10057000D5D7DADCDEE0E2E4E6E8EAEBEDEEF0F136
:10058000F3F4F5F6F8F9FAFAFBFCFDFDFEFEFEFFCA
:10059000FFFFFFFFFFFFFEFEFEFDFDFCFBFAFAF989
:1005A000F8F6F5F4F3F1F0EEEDEBEAE8E6E4E2E07C
:1005B000DEDCDAD7D5D3D0CECBC9C6C4C1BEBCB978
:1005C000B6B3B0ADAAA7A5A29E9B9895928F8C8931
:1005D0008683807C797673706D6A6764615D5A5832
:1005E00055524F4C494643413E3B393634312F2C0E
:1005F0002A282523211F1D1B1917151412110F0E50
:100600000C0B0A090706050504030202010101009B
:1006100000000000000000010101010101010101D1
:1006200002020202020202020203030303030303A3
:10063000030404040404040505050505060606066E
:100640000607070707080808080909090A0A0A0A25
:100650000B0B0B0C0C0C0D0D0D0E0E0F0F0F1010C5
:100660001111111212131314141515161617171849
:100670001819191A1A1B1C1C1D1D1E1F1F202021B2
:1006800022222324252526272728292A2B2B2C2DF7
:100690002E2F2F30313233343536363738393A3B16
:1006A0003C3D3E3F4041424344464748494A4B4C0B
:1006B0004D4F50515253555657585A5B5C5E5F60D0
:1006C0006263646667696A6C6D6E70717374767864
:1006D000797B7C7E8081838486888A8B8D8F9192C2
:1006E0009496989A9B9D9FA1A3A5A7A9ABADAFB1E6
:1006F000B3B5B7B9BBBDBFC1C4C6C8CACCCFD1D3CF
:10070000D6D8DADCDFE1E4E6E8EBEDF0F2F5F7FA73
:10071000FCFF1C034C0065007400730020005300B4
:1007200070006C0069007400200076003200000048
:10073000160357006F006F007400700061007400B2
:100740006F006F00740000000403090409025400E4
:10075000030100A0FA0904000001030101000921BE
:10076000110100012240000705810308000A090465
:1007700001000103010200092111010001224D00C5
:100780000705820308000A090402000103000000B3
:100790000921110100012236000705830308000A20
:1007A0001201100100000008EDFE6030010001029E
:1007B000000105010980A101850216010026030040
:1007C0001A81002A8300751095018100C0050C096B
:1007D00001A1018503160100269C021A01002A9C32
:1007E00002751095018100C005010902A1010901EE
:1007F000A1000509190129051500250195057501B7
:1008000081029501750381010501093009311581C6
:10081000257F95027508810609381581257F950188
:1008200075088106050C0A38021581257F9501752A
:10083000088106C0C005010906A101050719E029C4
:10084000E71500250195087501810295017508815C
:100850000105081901290595057501910295017594
:100860000391010507190029FF150026FF009506D1
:1008700075088100C00011241FBECFEFDAE0DEBF93
:10088000CDBF04B603FE27C0809175029091760219
:10089000A0917702B09178028730904BA740B04B7F
:1008A000D1F4109275021092760210927702109293
:1008B000780214BE84B7877F84BF0FB6F894A895DA
:1008C00080916000886180936000109260000FBE8C
:1008D000E0E0F8E3099511E0A0E0B1E0E8EAF9E52D
:1008E00002C005900D92A238B107D9F722E0A2E824
:1008F000B1E001C01D92A537B207E1F70E94D525EE
:100900000C94D22C0C940000A0E6B1E041E050E041
:100910008D91E82FE295EF70F0E021A18F70BA0180
:1009200002C0660F771F8A95E2F7CB01962F90954C
:10093000922391A392A1892B82A371E0A436B707D9
:1009400039F70895089508950C94A3048091220224
:1009500083608860809322020E948404AAE5B1E04B
:1009600041E050E08D91E82FE295EF70F0E021A199
:100970008F70BA0102C0660F771F8A95E2F7CB012C
:10098000962F9095922391A392A1892B82A371E037
:10099000A036B70739F7559A209AA2E8B1E0EAE8FD
:1009A000F1E088E08E0F11921D928E13FCCF0C9413
:1009B000D3099F92AF92BF92CF92DF92EF92FF92B4
:1009C0000F931F93CF93DF9380910101811103C097
:1009D00004E010E002C000E010E0A8014E575E4FB6
:1009E0007A01EA0180E6C82E81E0D82EAA24A394D9
:1009F000B12C25E0922E84E6C81681E0D80609F4D1
:100A000048C0F60181916F01E82FE295EF70F0E0A8
:100A100021A18F70A50102C0440F551F8A95E2F7EE
:100A2000CA01922F982B91A392A18095892382A32A
:100A300050EA5A95F1F7EAE5F1E020E040E050E0B5
:100A40003191A32FA295AF70B0E090968C9190E079
:100A50003F7002C0959587953A95E2F780FD07C0F3
:100A6000C501042E01C0880F0A94EAF702C080E095
:100A700090E0282B4F5F5F4F4630510509F7888182
:100A8000821719F02883909200010E948404219615
:100A9000B2CF809100018823E1F081508093000162
:100AA000882339F0EFE9FFE03197F1F700C000004B
:100AB00010C080E090E0FC01E00FF11FE657FE4F10
:100AC000D701A80FB91F2C9120830196843091057E
:100AD00091F781E0DF91CF911F910F91FF90EF90FF
:100AE000DF90CF90BF90AF909F900895CF93DF930A
:100AF00080910101811103C0C0E0D0E002C0C4E0D8
:100B0000D0E00E94D906009779F4C657DE4F20E066
:100B100030E0F901EB56FE4F408149932F5F3F4F84
:100B200024303105B1F702C081E090E0DF91CF9130
:100B30000895CF930E94D904C82F0E947605892B6F
:100B4000C1F05D98909192019F5F909392019630D1
:100B500098F080910101811103C0E0E0F0E002C053
:100B6000E4E0F0E0E657FE4F108211821282138219
:100B700003C05D9A109292010E94D5098C2FCF91EB
:100B800008950E94D90480910101811103C0E4E01D
:100B9000F0E002C0E0E0F0E0E657FE4F80E090E0D9
:100BA0002191DC01AB56BE4F2C9301968430910508
:100BB000B9F70895E82FF0E0E657FE4F80810895D9
:100BC0000895E8EDF0E08081806180838AE18A9574
:100BD000F1F700C08091D900817008958AE090E01B
:100BE0000E948A2C91E0811101C090E09093010154
:100BF0000E94E105882319F00E94590602C00E9454
:100C00005D06789408950E94A6040E94C105FDCF58
:100C10000E94EE050E94E105811102C00E940306B8
:100C20000895509A08955098589A0895589A08959A
:100C30000E941106589880E88A95F1F70C941606E0
:100C40000E941306489BFECF80E88A95F1F708952D
:100C50000E94130698E080E029B12170880F822B52
:100C600020E82A95F1F725E02A95F1F70000915048
:100C700099F708950F931F93CF93082F0E941106A1
:100C8000C8E010E0C15088F0C8010C2E02C0959554
:100C900087950A94E2F780FF03C00E94160601C000
:100CA000589880E88A95F1F7EDCFCF911F910F9179
:100CB00008950E9411060C9416060E941306E89AE5
:100CC000E9E6F0E080818C7F808308951F920F9287
:100CD0000FB60F921124CF92DF92EF92FF921F93E3
:100CE0002F933F934F935F936F937F938F939F9334
:100CF000AF93BF93EF93FF93CF93DF931F92CDB743
:100D0000DEB70E941806C12CD12C10E0C6018B560C
:100D10009E4F7C01FC0180810E943A060E941806C9
:100D2000F7018081180FFFEFCF1ADF0A84E0C816A1
:100D3000D10461F7812F0E943A060E94180690E8BC
:100D40009A95F1F7E0E4EA95F1F70E94280680937E
:100D500094010E941806109194010E94280689832C
:100D60000E9418060E9413068981181721F08091AD
:100D70009301816003C0809193018E7F80939301E2
:100D80000F90DF91CF91FF91EF91BF91AF919F9124
:100D90008F917F916F915F914F913F912F911F9113
:100DA000FF90EF90DF90CF900F900FBE0F901F90AD
:100DB0001895CF92DF92EF92FF921F93CF93DF931C
:100DC0001F92CDB7DEB7F8940E941106589825E01F
:100DD0002A95F1F700000E9413060E94160630E8DB
:100DE0003A95F1F7489934C00E942006C12CD12CC5
:100DF00010E00E942806F601EB56FE4F7F0180832B
:100E00000E942006F7018081180FFFEFCF1ADF0A3A
:100E100024E0C216D10469F70E94280689830E9443
:100E200020068981181314C0809194010E943A060B
:100E30000E942006809194010E943A060E9420069A
:100E40000E9411060E941606789480E090E003C08C
:100E5000789481E090E00F90DF91CF911F91FF9007
:100E6000EF90DF90CF900895CF93FC012091840004
:100E700030918500613069F018F0623041F14BC06B
:100E80008281882309F447C08AE491E00E94A8097E
:100E900042C0409102015091030165EB649FC00183
:100EA000659F900D112487589A4D67EA70E00E9463
:100EB0005C2C90930301809302014281442359F1F9
:100EC00082276AE070E00E945C2CCEE11DC0409158
:100ED00002015091030165EB649FC001659F900D75
:100EE000112487589A4D67EA70E00E945C2C909319
:100EF0000301809302014281442369F082276AE161
:100F000070E00E945C2CC4E0C80F8C2F0E94C514B6
:100F10008C2F0E94981580E090E0CF9108950F9358
:100F20001F93CF93DF939C013A9521153F4148F5DC
:100F3000EB018C0190FF03C080EEFB01099511FFCE
:100F400003C081EEFE01099512FF03C082EEFE018F
:100F5000099513FF03C083EEFE01099501151041A9
:100F600080F084EEFE01099585EEFE01099586EE7E
:100F7000FE01099587EEFE01DF91CF911F910F9140
:100F80000994DF91CF911F910F910895877091E09F
:100F900001C0990F8A95EAF7892F0E944C1E0C9484
:100FA000861E877091E001C0990F8A95EAF7892F14
:100FB0000E944C1E0C94861E877091E001C0990F10
:100FC0008A95EAF7892F0E94521E0C94861E87701C
:100FD00091E001C0990F8A95EAF7892F0E94521E6D
:100FE0000C94861ECF93DF93EC01805E91090897E5
:100FF00010F0209719F461ED77E002C066EC77E01D
:10100000CE010E948F078C2FDF91CF910C94C514D5
:10101000CF93DF93EC010E949815CE01805E910979
:10102000089710F0209719F467EE77E002C06CED96
:1010300077E0CE01DF91CF910C948F0781E0089586
:1010400081E008950C9420080E94BD182FEF84E3DE
:101050009CE0215080409040E1F700C0000087E70D
:1010600097E790930108809300080C94C81F0F9392
:101070001F93CF93DF938C01FC01C081D181CE01FE
:101080000E94811DBE010E94DF09EC01B8010E948F
:101090002208882309F456C1B801CE010E94A91282
:1010A000882309F44FC1B801CE010E94050C8823A2
:1010B00009F448C1C13CFCE5DF0741F4F801828135
:1010C000882309F43FC10E944F0E3CC1C23C8CE50D
:1010D000D80708F0A5C0C5319CE5D90708F07DC048
:1010E000C230ECE5DE0708F452C0F80182818823A3
:1010F00009F459C00E94D61E811102C00E94B51E7B
:101100000E94E91E90E09093670280936602FE01C0
:10111000E350FC45E231F10530F4EA5AFF4F80918B
:1011200066020C94842C80916602816027C08260E4
:1011300025C0846023C0806121C080621FC080649C
:101140001DC080681BC08460886018C08E7F16C078
:101150008D7F14C08B7F12C08F7E10C08F7D0EC01C
:101160008F7B0CC08F770AC08B7F877F07C087FB80
:10117000222720F991E0922790FB87F9809366025D
:10118000809166020E94ED1E0E94BD18DBC0C11551
:10119000FCE5DF0779F0C130DC45A1F081E0809308
:1011A0009D0180939E01C801DF91CF911F910F9106
:1011B0000C941E08F8018281882309F4C3C00E94A0
:1011C0002408C0C0F8018281882309F4BBC0809143
:1011D0002202816080932202B5C0CF3B9CE5D907F3
:1011E00041F4F8018281882309F4ACC00E94530FB6
:1011F000A9C0C03CECE5DE0740F0F80182818823FD
:1012000009F4A0C00E94370E9DC0CE3BDC4531F6EC
:10121000F8018281882309F495C00E945D0F92C075
:10122000C53C8CE5D80741F4F8018281882309F494
:1012300089C00E94BE0E86C0C63C9CE5D907D8F482
:10124000F8018281C33CFCE5DF0731F4882309F40F
:1012500079C00E94890E76C0C43CDC4530F48823F6
:1012600009F470C00E946E0E6DC0882309F46AC034
:101270000E94A30E67C0C73CECE5DE0739F5F80114
:101280008281882361F010929E010E946C1F9093CE
:101290009C0180939B0180E20E94E71553C08091DE
:1012A0009E0181110FC080919B0190919C010E9431
:1012B000781F883C910530F487E20E94C51487E2CC
:1012C0000E94981580E20E94EE153CC0C73CFCE5E8
:1012D000DF0718F5F8018281882351F010929D01F3
:1012E0000E946C1F90939A018093990182E0D4CF61
:1012F00080919D0181110FC08091990190919A0177
:101300000E94781F883C910530F486E20E94C51443
:1013100086E20E94981582E0D6CFCA3C8CE5D807B9
:1013200031F4F8018281882369F080E009C0CB3C68
:10133000DC4509F033CFF8018281882319F082E07F
:101340000E946B2680E0DF91CF911F910F9108954D
:101350000F931F93CF938C01F80124912223F9F06E
:1013600030E0F901E550FC4FC491F901E558FB4F1D
:101370002491222359F081EE0E94C5148C2F0E94E3
:10138000C5148C2F0E94981581EE04C08C2F0E94EA
:10139000C5148C2F0E9498150F5F1F4FDDCFCF9182
:1013A0001F910F9108950C94540C0E944A130C94B1
:1013B000A40408950C94D9090C94DA09089596E0D0
:1013C000799FF001112490E3899FE00DF11D112414
:1013D000E60FF11DEE0FFF1FE55AFE4F8591949128
:1013E0000895880F991FFC01ED5AFE4F8591949145
:1013F00008950E94DF090E94870B811520E492075F
:10140000B0F5811540E3940708F0DBC0803E9105FC
:10141000D8F4803C910508F069C0883A910578F4C9
:10142000853A910508F065C08130910509F46EC1D7
:1014300008F425C18430910508F068C120C18D3BB6
:10144000910508F461C01BC18F3F910509F048F474
:10145000803F910508F0AFC0883E910508F456C161
:101460000EC1811560E2960708F0A7C008958115A6
:1014700074E59707D8F4811523E5920708F0DDC0DD
:10148000811541E5940740F4811560E5960708F061
:10149000A2C09F70906A0895811572E5970708F0C1
:1014A000B6C0982F8827816F906A0895811526E528
:1014B000920750F4811545E5940708F0D4C0982FA1
:1014C0008827846F906A0895811568E5960708F467
:1014D000D6C0811579E5970708F4CAC09C0130563B
:1014E0002115304208F0CBC09F71C7C0805C9109C4
:1014F00065C0853A910509F4C5C0863A910509F0A1
:10150000C4C082E890E40895883A910509F4C0C007
:10151000893A910509F4BFC08A3A910509F4BEC021
:101520008B3A910509F4BDC08C3A910509F4BCC011
:101530008B3B910509F4BBC08C3B910509F4BAC003
:101540008D3A910509F4B9C0803B910509F4B8C002
:101550008E3A910509F4B7C08F3A910509F4B6C0E7
:10156000813B910509F4B5C0823B910509F4B4C0F3
:10157000833B910509F4B3C0843B910509F4B2C0E3
:10158000853B910509F4B1C0863B910509F4B0C0D3
:10159000873B910509F4AFC0883B910509F4AEC0C3
:1015A000893B910509F4ADC08A3B910509F4ACC0B3
:1015B00080E094E40895906508959F700E94F10979
:1015C00008959C01332793FF03C0C901986C0895C7
:1015D000C901906C0895482F437021E030E002C0AB
:1015E000220F331F4A95E2F73C68AC0164E0569540
:1015F00047956A95E1F74370342B8F7086958695F1
:1016000060E2869FC0011124822B932B0895482FFE
:101610004695469570E2479FA00111248370992753
:1016200021E030E0B90102C0660F771F8A95E2F72A
:10163000CB01842B952B9C680895482F46954695A1
:1016400070E2479FA00111248370992721E030E0C8
:10165000B90102C0660F771F8A95E2F7CB01842B90
:10166000952B9A6808958F719927982F882705C020
:10167000982F8827806F906A08959062089580E07F
:1016800090E0089581E890E4089583E890E4089557
:1016900082EE94E4089589EE94E408958AEE94E449
:1016A000089585EB94E4089586EB94E4089583EB24
:1016B00094E4089584EB94E4089587EB94E408950A
:1016C0008CEC94E408958DEC94E4089583E895E41B
:1016D00008958AE895E4089582E995E4089584E9F7
:1016E00095E4089581E296E4089583E296E40895EE
:1016F00084E296E4089585E296E4089586E296E40D
:10170000089587E296E408958AE296E4089582387F
:10171000910549F1B0F48133910509F458C048F4BA
:101720008932910509F44EC08A32910509F454C0FA
:1017300008958533910509F440C08933910599F0E6
:101740000895833E910529F138F4803E910591F08A
:10175000823E9105A1F00895863E9105F9F0873EFD
:10176000910531F108952091660220FD3AC021FDD6
:1017700038C008958091660280FD35C032C08091E6
:10178000660282FF32C08091660284FD30C083EE23
:1017900039C08091660282FD28C0F5CF8091660233
:1017A00083FF27C08091660284FD21C087EE2AC096
:1017B0008091660283FD1DC0F5CF8091660285FD94
:1017C0001AC01BC08091660285FD17C014C08091AD
:1017D000660286FD14C015C08091660286FD11C0A8
:1017E0000EC080EE0FC089E30DC082EE0BC080E01A
:1017F00009C086EE07C089E205C085E303C08AE21E
:1018000001C081E390E0089508950F931F93CF9353
:10181000FB012281211102C0C1E041C08C01C091B5
:10182000AC01C11125C085319C45B1F70E94040C63
:1018300081E08093AC010E946C1F9093AB01809378
:10184000AA0110929F011092A1011092A001109282
:10185000A3011092A2011092A5011092A40110926E
:10186000A7011092A6011092A9011092A80117C019
:101870008091AA019091AB010E94781F883C91054C
:1018800058F690919F01E92FF0E0EE0FFF1FE05610
:10189000FE4F118300839F5F90939F01C0E08C2FC8
:1018A000CF911F910F9108950C94A2042BB1342F66
:1018B000309523233BB1432B3FB7F894FC01680FCD
:1018C000791FE617F70789F0819198E04BB900007E
:1018D00000C087FF2BB9880F000000C000C000C007
:1018E0002BB900C09A9591F7ECCF3FBF08952AB16C
:1018F000242B2AB99B01220F331F620F731F0E94F2
:10190000560C87EC90E00197F1F700C000000895B5
:1019100048E00C94770CEF92FF920F931F93CF93B4
:10192000DF93E901662309F44BC0242F30E0EFEF89
:10193000F0E0E61BF109B901E69F9001E79F300D49
:10194000F69F300D1124232F8B01031B11095CE33B
:10195000E52EF12CB7010E945C2CFB01BC01069F17
:10196000C001079F900D169F900D1124B7010E9492
:101970005C2CE230F105B1F040F4309779F031970A
:1019800011F5832F242F461B21C0E430F105A1F06F
:1019900068F03597C1F4842F861B18C0832F262F3B
:1019A000230F14C0862F830FE42F03C0E42FE61B00
:1019B000842F432F2E2F0AC0842F462F430F06C09B
:1019C000842F242F03C080E020E040E0E42FF0E0EB
:1019D000EE5EF94F4491E22FF0E0EE5EF94F949104
:1019E000E82FF0E0EE5EF94FE49149839883EA83B3
:1019F000DF91CF911F910F91FF90EF90089588E0B4
:101A000090E00C94922CAB01BC0188E090E00C9427
:101A1000B02CEAE3F2E083E0808310923B028FEF88
:101A20008283838360913A0270913B0280913C02F1
:101A300090913D020C94030D80913A0280FF06C004
:101A40006AE070E082E492E00C94880C80E090E020
:101A5000FC01EE5BFD4F11821082128203968E31E3
:101A60009105B1F7EDCF20E030E0F901EE5BFD4FDD
:101A70008183608342832D5F3F4F2E313105A9F76B
:101A80000C941C0DEF92FF920F931F93CF93DF9353
:101A900000D01F92CDB7DEB700913A0210913B0201
:101AA00020913C0230913D0200933E0210933F0290
:101AB000209340023093410220913A0220FF21C03E
:101AC000042FF62EE92E182F9E012F5F3F4F0E9404
:101AD0008B0C80913E0210FB87F980933E02169595
:101AE00080913F028078182BE0FA17F910933F029B
:101AF000F0924002009341024B8169818A810E94E9
:101B0000330D0F900F900F90DF91CF911F910F9198
:101B1000FF90EF9008958F929F92AF92BF92CF92D5
:101B2000DF92EF92FF920F931F93CF93DF93EC011D
:101B3000062F142F80913A0280FF8CC0982F9E7739
:101B4000923021F4CE010E94420D5AC0E82FE69552
:101B5000EF739EE39E0F9F73943018F410913D0233
:101B60004FC09AE39E0F9F73993070F4881F8827A7
:101B7000881F90913B02292F220FC22FC82B97FB61
:101B8000992790F9D92F3CC087E28E0F8F738A3046
:101B9000B8F5F0E07997E0FD02C021E001C02FEF39
:101BA000EE7FE550FB4F859194916AE070E00E94D2
:101BB0005C2C26036001279FD00C11244E0188E97C
:101BC000881A8EEF980A82E4E82E82E0F82E98E6D2
:101BD000A92EBB24B394C401B5010E945C2C9701CB
:101BE000412F602F0E948B0C8C0C9D1C93E0E90E02
:101BF000F11C80E6E81682E0F80669F70E941C0DE9
:101C000080913A029C2FC0FB87F980933A02969507
:101C100080913B028078892BD0FB87F980933B022F
:101C200000933C0210933D0260913A0270913B0296
:101C300080913C0290913D02DF91CF911F910F91D5
:101C4000FF90EF90DF90CF90BF90AF909F908F90DC
:101C50000C94030DDF91CF911F910F91FF90EF90A6
:101C6000DF90CF90BF90AF909F908F900895EAE360
:101C7000F2E02081221F2227221F30913B02432FB6
:101C8000440F842F822B37FB992790F90A9668E638
:101C900071E00E94702C438162810C948B0D209125
:101CA0003A02221F2227221F30913B02432F440F6A
:101CB000842F822B37FB992790F98A3091051CF4E9
:101CC000825A9E4F01C00A9768E671E00E94702C0C
:101CD00040913D0260913C020C948B0D60913C025E
:101CE000862F90E08F3E910514F46F5E01C06FEF78
:101CF00080913A02881F8827881F90913B02292FE4
:101D0000220F97FB992790F940913D02822B0C946A
:101D10008B0D60913C02862F90E0419714F0615149
:101D200001C060E080913A02881F8827881F909147
:101D30003B02292F220F97FB992790F940913D02F2
:101D4000822B0C948B0D40913D02842F90E08F3EAE
:101D5000910514F44F5E01C04FEF80913A02881F45
:101D60008827881F90913B02292F220F97FB9927E4
:101D700090F960913C02822B0C948B0D40913D02B6
:101D8000842F90E0419714F0415101C040E08091D0
:101D90003A02881F8827881F90913B02292F220F23
:101DA00097FB992790F960913C02822B0C948B0D44
:101DB00090913A0290FF42C09178811102C09260E6
:101DC00007C0833210F0946403C08F73880F982B80
:101DD00090933A0260913A0270913B0280913C02EA
:101DE00090913D020E94030D80913A02982F9E77B8
:101DF000923019F41092C20110C0982F96959F73DB
:101E00002EE3290F2F73273120F491E09093C20124
:101E100004C0995D9F739A3068F3881F8827881FD4
:101E200090913B02292F220F97FB992790F940911F
:101E30003D0260913C02822B0C948B0D08958091A1
:101E4000220281608093220281E08093C3010E947C
:101E5000D61E811104C00E94B51E0E94090D0E9469
:101E6000FF0C60933A0270933B0280933C02909384
:101E70003D026E7761F40E94090D0E94FF0C609391
:101E80003A0270933B0280933C0290933D0281E0C2
:101E90008093C20180913A0280FF04C086958F73BF
:101EA0000C94D80E089580913A0286958F738F5FB7
:101EB000833208F081E00C94D80E80913A02982F7A
:101EC000909590FB80F980933A0260913A0270916C
:101ED0003B0280913C0290913D020E94030D809153
:101EE0003A0280FF04C086958F730C94D80E10922E
:101EF000C2012FEF80E792E0215080409040E1F74F
:101F000000C000000C941C0DCF93C82F8091C0011D
:101F10009091C1010E94781FEC2FF0E0E25FFA4F30
:101F2000E491F0E08E179F0718F10E946C1F9093C8
:101F3000C1018093C001E091BF01F0E0EE5EFA4F75
:101F4000449180913A02881F8827881F90913B0214
:101F5000292F220F97FB992790F960913C02822B41
:101F60000E94420D8091BF0190E001968093BF01D5
:101F7000CF910895CF93C82F8091BD019091BE015C
:101F80000E94781FEC2FF0E0E55FFA4FE491F0E05B
:101F90008E179F07E8F00E946C1F9093BE018093FC
:101FA000BD0140913D0260913C028091BB01909146
:101FB000BC010E94420D8091BB019091BC01019631
:101FC00068E671E00E945C2C9093BC018093BB0199
:101FD000CF910895CF92DF92FF920F931F93CF93EB
:101FE000DF93F82E8091B9019091BA010E94781F79
:101FF000EF2DE695F0E0E55FFA4FE491F0E08E1703
:102000009F07E8F10E946C1F9093BA018093B90179
:1020100002E412E0C0E0D0E088E6C82EDD24D394CC
:102020008091B7019091B8018C0F9D1FB6010E945D
:102030005C2C980140913D0260913C020E948B0C07
:10204000A4960D5F1F4FC83681E0D80749F70E945C
:102050001C0D2091B7013091B801F0FE0AC0C901F2
:102060000196BE010E945C2C9093B8018093B70149
:1020700006C0215031093093B8012093B701DF9198
:10208000CF911F910F91FF90DF90CF9008958F9285
:102090009F92AF92BF92CF92DF92EF92FF920F93F7
:1020A0001F93CF93DF93C82F80FF03C0DD24DA9402
:1020B00002C0DD24D3948091B5019091B6010E94B5
:1020C000781FC695EC2FF0E0E85FFA4FE491F0E05E
:1020D0008E179F0708F467C00E946C1F9093B6018B
:1020E0008093B50192E4E92E92E0F92E04E412E027
:1020F000C0E0D0E027E0822E912CF80131971082C9
:10210000F7011082F801108287E0A82EB12CC12CB3
:102110008091B4018C0D87FD865F082E000C990B11
:10212000C817D907E9F420913D022A9DC0012B9DD3
:10213000900D1124B4010E94702C462F80913A0218
:10214000881F8827881F90913B02592F550F97FBB6
:10215000992790F9970160913C02852B0E948B0C86
:10216000CD0CF1E0AF1AB10899F6219683E0E80EA4
:10217000F11C0D5F1F4FCA30D10509F0BECF0E9480
:102180001C0D8091B40191E0D91206C0811102C0EA
:1021900089E007C0815005C090E00196BE010E9411
:1021A000702C8093B401DF91CF911F910F91FF901C
:1021B000EF90DF90CF90BF90AF909F908F90089559
:1021C0009F92AF92BF92CF92DF92EF92FF920F93C6
:1021D0001F93CF93DF93CDB7DEB76E970FB6F8940A
:1021E000DEBF0FBECDBF182F8091B2019091B30119
:1021F0000E94781FE12FF0E0EB5FFA4FE491F0E0EE
:102200008E179F0708F495C00E946C1F9093B3012E
:102210008093B201CE0101967C015E0193E0A90E8C
:10222000B11CC12CD12C8701F50131971082F70127
:102230001082F5011082912C909145018091B1019D
:10224000999E800D112487FD04C08A301CF089E01E
:1022500001C080E0082E000C990BC816D906A1F425
:1022600080913A02881F8827881F90913B02592F3E
:10227000550F97FB992790F9970140913D02609186
:102280003C02852B0E948B0C9394F7E09F12D4CFD5
:102290008FEFC81AD80A93E0E90EF11CE3E0AE0E06
:1022A000B11CFAE0CF16D10409F0BECF24E432E02D
:1022B00059E0E52EF12C6AE0C62ED12CC701B601FB
:1022C0000E94702CD9011197FC01EE0FFF1FE80F3F
:1022D000F91FE00FF11F81818C93119780818C93FE
:1022E0008281F9018083FFEFEF1AFF0A2D5F3F4FD4
:1022F00083E1E816F10411F70E941C0D909145014D
:102300008091B101913049F48A3F2CF489EF809398
:10231000B1018FEF08C081500AC081313CF080E1EB
:102320008093B10181E08093450103C08F5F80936A
:10233000B1016E960FB6F894DEBF0FBECDBFDF9130
:10234000CF911F910F91FF90EF90DF90CF90BF90B2
:10235000AF909F900895EF92FF920F931F93CF93AA
:10236000DF938091AF019091B0010E94781F883E69
:102370009340D0F10E946C1F9093B0018093AF0105
:10238000C091AD01D091AE012196C170DD27D093EF
:10239000AE01C093AD0182E4E82E82E0F82E10E099
:1023A00008E7812F8695FE01E80FF11DCF018170AE
:1023B0009927970140913D0260913C02FC010E9FDC
:1023C000C0010F9F900D11240E948B0C1F5FF3E042
:1023D000EF0EF11C1A3029F7DF91CF911F910F9169
:1023E000FF90EF900C941C0DDF91CF911F910F91F6
:1023F000FF90EF9008958091C201882391F1909110
:102400003A02892F86958F732EE3280F2F7324307D
:1024100018F482500C94840F2AE3280F2F73233072
:1024200018F486500C94BA0F27E3280F2F73263028
:1024300018F489500C94EA0F21E3280F2F732630EB
:1024400018F48F500C9447102BE2280F2F73233071
:1024500018F485510C94E0109E77903311F40C948D
:10246000AB110895CF93DF93FC012685211113C092
:10247000EC0181E0868787810E943C1E0E94861EB7
:10248000EA81FB8169897A89CE010696309719F035
:10249000DF91CF910994DF91CF910895FC01808164
:1024A000813021F4FB018081918105C0823029F4C3
:1024B000FB01828193810C94F2070895FC018081D5
:1024C000813021F4FB018081918105C0823029F4A3
:1024D000FB01828193810C94080808950F931F9348
:1024E000CF93DF93FC01278121112EC0EC010281E3
:1024F0001381175523E1209FC001219F900D1124C6
:10250000DC01AC5FBE4F1496ED91FC91159751968E
:102510006D917C915297865F9E4F309709F0099597
:1025200083E1809FF001819FF00D1124EC5FFE4F4D
:1025300087810E94421E0E94861E18821E82188673
:102540001092C5011092C401DF91CF911F910F919C
:102550000895EF92FF920F931F93CF93DF938C0117
:102560008091C4019091C501009771F08017910787
:1025700059F0975523E1289FF001299FF00D112470
:10258000EC5FFE4F81E08487C8019755FB014281D3
:102590008F3F910511F008F052C020914601022EA4
:1025A000000C330B2817390714F48093460123E1FC
:1025B000289F7001299FF00C1124E701CC5FDE4FAA
:1025C0004D87FB018281882309F45CC01987088745
:1025D0008E818F5F8E830E946C1F9B878A870E94EB
:1025E000721E8F83E881F98169897A89C701865FC4
:1025F0009E4F309709F009958091C4019091C501D3
:102600000097C1F080179107A9F09C01375583E12D
:10261000829FE001839FD00D1124CE018C5F9E4FDD
:1026200021E0FC0124870E943212CE01865F9E4F7A
:102630000E946E121093C5010093C40123C044236D
:1026400009F1809146018F3FE9F0CAE0D1E000E056
:1026500010E0FF24F39480914601082E000C990BA2
:10266000801791077CF08881882341F0FE82CE019B
:1026700006970E943212CE010E946E120F5F1F4F0A
:102680006396E9CF81E0DF91CF911F910F91FF9089
:10269000EF900895CF92DF92EF92FF920F931F93E6
:1026A000CF93DF93809146018F3FC1F1C0E0D3E12A
:1026B0002C2F30E080914601082E000C990B8217D8
:1026C000930764F1D29FF001D39FF00D1124EC5FCA
:1026D000FE4FE784F088E114F10419F488ECE82E49
:1026E000F12CD29F6001D39FD00C112486010C5F86
:1026F0001E4FF8018681882379F0828593850E9498
:10270000781FE816F90640F4C8010E943212C6018B
:10271000865F9E4F0E946E12CF5FCACFDF91CF912E
:102720001F910F91FF90EF90DF90CF9008959093BD
:10273000CB018093CA010895E091CA01F091CB01C9
:10274000309721F00190F081E02D099480E0089508
:10275000E091CA01F091CB01309721F00280F38122
:10276000E02D09940895E091CA01F091CB013097D2
:1027700021F00480F581E02D099408952091C8018D
:102780003091C9018217930771F09093C90180932A
:10279000C801E091CA01F091CB01309721F0068089
:1027A000F781E02D099408952091C6013091C70169
:1027B0008217930771F09093C7018093C601E0914F
:1027C000CA01F091CB01309721F00084F185E02D12
:1027D000099408950C9408060E94631F0E94A604A1
:1027E0000E94D91F0C941F0FCF92DF92EF92FF929D
:1027F0000F931F93CF93DF93CDB7DEB72B970FB611
:10280000F894DEBF0FBECDBF0E9499058DECC82E97
:1028100081E0D82E00E010E0E02E802F0E94DA0543
:10282000F60141916F01F42EF826B1F40F5F1F4FAE
:102830000830110589F78FEF89838A831B820E94F4
:102840006C1F8160782F9D838C8349815A816B81B5
:102850008D810E94971440C09091220291FF04C084
:102860008B870E94E0058B8520E030E04F2D50E003
:10287000922FBA01022E02C0759567950A94E2F76D
:1028800060FF24C02E83EF8221E030E0690102C0A6
:10289000CC0CDD1C9A95E2F790E08C219D21892BD0
:1028A00009F420E028870E946C1F8160782F9A87A6
:1028B00089874E815F8168858A850E949714F80117
:1028C000E353FE4F8081C826C08206C02F5F3F4F72
:1028D0002630310569F6AACF0E946C211091CC01F7
:1028E0000E949C131817A1F00E949C138093CC01A6
:1028F0002B960FB6F894DEBF0FBECDBFDF91CF9100
:102900001F910F91FF90EF90DF90CF900C94DC0916
:102910002B960FB6F894DEBF0FBECDBFDF91CF91DF
:102920001F910F91FF90EF90DF90CF900895CF937C
:10293000DF93CDB7DEB72B970FB6F894DEBF0FBE8F
:10294000CDBF4F83588769877A878B87DE011196C1
:1029500086E0FD0111928A95E9F785E0FE01379640
:1029600001900D928A95E1F749815A816B817C81B2
:102970008D819E810E94551B2B960FB6F894DEBF69
:102980000FBECDBFDF91CF910895CF93882309F477
:10299000CDC0C82F823859F40E949C1381FDC6C057
:1029A00089E30E94001E0E94861E89E30CC08338C2
:1029B00079F40E949C1380FDB9C083E50E94001E3B
:1029C0000E94861E83E50E941D1ECF910C94861ED8
:1029D000843859F40E949C1382FDA8C087E40E94A9
:1029E000001E0E94861E87E4EECF8CEF8C0F813A8A
:1029F00048F48C2F0E949923811198C08C2F0E943B
:102A0000001EE3CF80E28C0F883048F4C77081E06D
:102A100001C0880FCA95EAF70E943C1ED6CF8BE50D
:102A20008C0F833078F4C53A29F0C63A31F083E848
:102A300090E005C081E890E002C082E890E0CF918C
:102A40000C94BE1388E58C0F853108F06FC0C83A2E
:102A500061F1C93A69F1CA3A71F1CB3A79F1CC3AEC
:102A600081F1CB3B89F1CC3B91F1CD3A99F1C03B5F
:102A7000A1F1CE3AA9F1CF3AB1F1C13BB9F1C23BD4
:102A8000C1F1C33BC9F1C43BD1F1C53BD9F1C63B50
:102A9000E1F1C73BE9F1C83BF1F1C93BF9F1CA3BB0
:102AA00009F43FC080E090E03EC082EE90E03BC081
:102AB00089EE90E038C08AEE90E035C085EB90E07A
:102AC00032C086EB90E02FC083EB90E02CC084EB0B
:102AD00090E029C087EB90E026C08CEC90E023C00A
:102AE0008DEC90E020C083E891E01DC08AE891E081
:102AF0001AC082E991E017C084E991E014C081E234
:102B000092E011C083E292E00EC084E292E00BC03A
:102B100085E292E008C086E292E005C087E292E09A
:102B200002C08AE292E0CF910C94D413CF91089521
:102B3000882309F44BC0823859F40E949C1381FF0A
:102B400045C089E30E94001E0E94861E89E30CC0D6
:102B5000833871F40E949C1380FF38C083E50E9483
:102B6000001E0E94861E83E50E941D1E0C94861E78
:102B7000843859F40E949C1382FF28C087E40E9485
:102B8000001E0E94861E87E4EFCF9CEF980F913ABB
:102B900058F390E2980F983050F4877091E001C09C
:102BA000990F8A95EAF7892F0E94421EDFCF9BE595
:102BB000980F933020F480E090E00C94BE13885A74
:102BC000853120F480E090E00C94D413089588239C
:102BD00021F00E943C1E0C94861E0895882321F04B
:102BE0000E94421E0C94861E08954F925F926F922F
:102BF0007F92AF92BF92CF92DF92EF92FF920F93AC
:102C00001F93CF93DF931F92CDB7DEB77C01A72E22
:102C1000FC01058102950F701281112321F0698357
:102C20000E94591E698169830E94F91D6981882368
:102C300081F0112371F080E2860F883050F082E03D
:102C40000E94E21D0E94F91D91E0B82EB92669810B
:102C500001C0B12CCA2CC2948FE0C822D12CF6013D
:102C6000E859FF4F0C94842C8A2D807F0A2D0F7019
:102C7000882311F00295007F1123C1F0002309F48D
:102C8000DCC180E2860F883010F0611105C0802F12
:102C900069830E943C1E04C0802F69830E944C1EE1
:102CA000698169830E94861E6981C7C1862F6983F5
:102CB0000E9498156981002309F4E2C180E2860F21
:102CC000883010F0611104C0802F0E94421E03C0A2
:102CD000802F0E94521E0E94861ED2C18A2D807FA4
:102CE0009A2D9F70803211F4892F03C0892F82950D
:102CF000807F662319F06130B1F01FC0112349F0C5
:102D0000002309F452C1013009F04FC10E946C1E2A
:102D1000B7C1002319F0013009F4B2C189830E94C0
:102D20006F1E898148C1112321F0063008F0A8C127
:102D30003CC1053008F0A4C13EC1112351F000236D
:102D400009F433C1F701958190FF77C19F70958396
:102D50002CC1002309F42FC181C18A2D8695869547
:102D6000837090E0009719F0019761F089C11123F9
:102D700021F0862F9A2D937002C080E090E00E948F
:102D8000BE138EC1112321F0862F9A2D937002C09D
:102D900080E090E00E94D41383C11123F9F0653FD5
:102DA00051F0663F71F0643FA9F480916002909108
:102DB000610281600BC0809160029091610282602B
:102DC00005C08091600290916102846090936102DD
:102DD00080936002862F0E9474201EC0653F51F0D0
:102DE000663F71F0643FA9F48091600290916102A6
:102DF0008E7F0BC080916002909161028D7F05C033
:102E000080916002909161028B7F90936102809328
:102E10006002862F0E94DC200E94612141C18A2D20
:102E2000837009F052C0111137C1862F82958695A3
:102E30008770880F880F962F9F70492E512C612C18
:102E4000712C082E04C0440C551C661C771C0A9477
:102E5000D2F764FF14C00FE010E020E030E0B901C9
:102E6000A80104C0440F551F661F771F8A95D2F72B
:102E7000CB01BA01609570958095909503C060E094
:102E800070E0CB012A2D26952695237030E0223064
:102E9000310569F02330310589F0642975298629C7
:102EA00097292130310571F00E94981CF5C06429E2
:102EB0007529862997290E94AA1CEEC00E94981C99
:102EC000C301B2010E94861CE7C0112319F08A2DAC
:102ED000817001C08695882309F4DEC0862F829513
:102EE00086958770880F880F962F9F70492E512CDA
:102EF000612C712C082E04C0440C551C661C771CD8
:102F00000A94D2F764FF14C00FE010E020E030E034
:102F1000B901A80104C0440F551F661F771F8A9589
:102F2000D2F7CB01BA01609570958095909503C05A
:102F300060E070E0CB012A2D269526952370422F64
:102F400050E04230510569F04330510589F0642961
:102F50007529862997294130510571F00E945C1D21
:102F60009BC064297529862997290E946E1D94C0EB
:102F70000E945C1DC301B2010E944A1D8DC0862FB4
:102F800090E0FC01E05EF109E531F10508F051C087
:102F9000E858FF4F0C94842C062F0F708A2D8F71E8
:102FA000112331F00E94E31C802F0E94E71568C0B6
:102FB0000E94041D802F0E94EE1562C0112341F073
:102FC000053008F05DC08A2D8F710E94291D58C000
:102FD000063008F055C0F7CF112339F08A2D8F71D4
:102FE0000E94E31C4DC01123C9F38A2D8F710E94EA
:102FF000041D46C0112329F08A2D8F710E94CE1C1A
:103000003FC00E94C91C3CC0112351F01A2D1F71F2
:10301000812F0E94E31C63E0812F0E94D91D30C0E4
:1030200081E00E94E21D023058F182E00E94E21D20
:1030300027C0112331F0002389F2862F0E94C51486
:103040001FC0002391F2693349F45FEF77EE83E00C
:10305000515070408040E1F700C00000862F0E9470
:1030600098150EC04A2D4F70C7010E9434070E9468
:10307000F91B16C04A2D4F70C7010E94DE0910C00F
:1030800098E0C916D10441F05CF0FAE0CF1AD108FB
:1030900022E0C216D10420F40E949C130E94DC0995
:1030A000BB2001F10E94D51D80FD1CC0F7011282DA
:1030B0000E94CF1D0E94E31CC7010E9482180E943B
:1030C000CF1D0F90DF91CF911F910F91FF90EF9047
:1030D000DF90CF90BF90AF907F906F905F904F90B8
:1030E0000C94041D0F90DF91CF911F910F91FF90D1
:1030F000EF90DF90CF90BF90AF907F906F905F90F8
:103100004F9008950F931F93CF93DF93EC01888125
:1031100099812B813C81232BB9F09F3F11F48F3F84
:1031200099F0CE010E943708882371F06881798177
:103130008A810E94CB1D8C010E94801D0E94831CED
:10314000B801CE010E94F515DF91CF911F910F912B
:1031500008950E94591E0E94691E0E942E1E0E9400
:10316000861E0E9411220E94612180E090E00E9450
:10317000BE1380E090E00C94D4130E94491E0C947E
:10318000A9180E94C01DE92FE295EF70F0E0329778
:10319000EE30F105B0F4E357FF4F0C94842C803FE0
:1031A00091F018F4803E68F40EC0843F51F40BC0D7
:1031B000803E48F0813F29F406C093FB882780F9C0
:1031C000089580E0089581E00895CF93DF9300D0C3
:1031D00000D01F92CDB7DEB70F900F900F900F90D9
:1031E0000F90DF91CF910895CF93DF9300D000D05F
:1031F00000D0CDB7DEB726960FB6F894DEBF0FBE6F
:10320000CDBFDF91CF9108951F93CF93DF93C091EE
:10321000D50116E08091D601C81799F0D0E01C9F27
:10322000F0011D9FF00D1124E952FE4F40815181A4
:1032300062817381848195810E94F4182196C77000
:10324000E9CFDF91CF911F910895409107025091EE
:1032500008026091090270910A0280910B0290911C
:103260000C020C94F41880910C0282958F7009F076
:1032700054C080910902882309F44FC08091D50180
:10328000A091D601609107027091080240910A0254
:1032900050910B02B6E08A1709F43FC090E0411547
:1032A0005105C1F17F3F11F46F3FA1F1B89FF001CB
:1032B000B99FF00D1124E952FE4F218172132AC0EB
:1032C0002081621327C02281211124C023813481EF
:1032D0002417350710F421503109241B350B283CE5
:1032E0003105C0F420910C022F70206120930C0254
:1032F00026E0289FF001299FF00D1124E452FE4F93
:1033000080818F708061808387E092E00E948218C4
:103310000C94041901968770BECF0895CF92DF9266
:10332000EF92FF920F931F93CF93DF93CDB7DEB74A
:1033300062970FB6F894DEBF0FBECDBF8C0185E05B
:10334000F801DE011D9601900D928A95E1F7D801F2
:103350004C9111965C91119712966C91129713965D
:10336000CD90DC9014973091070270910802809103
:103370000A0290910B02009709F46BC17F3F19F488
:103380003F3F09F466C1E0900902EE2009F4C0C095
:1033900020910C02C816D90628F0F601E81BF90B9B
:1033A000CF0104C0809590958C0D9D1DFF24F39452
:1033B000883C910578F0F12C207F09F0C6C07C2D67
:1033C000D98AC88A89890E94E51887E092E00E941C
:1033D0008218B1C0822F807F09F046C0751314C0D7
:1033E000341312C0611110C02F70206120930C02A1
:1033F0000E94251987E092E00E94821880910C02B9
:10340000D80115968C932EC0CD2819F15F3F11F489
:103410004F3FF9F0F62E61111CC08091D50120912B
:10342000D60136E0821709F45AC090E0389FF001C7
:10343000399FF00D1124E952FE4F7181571306C0D8
:103440007081471303C07281711103C001968770A8
:10345000E9CFF62E662309F418C180910C02816031
:1034600080930C02F12C11C1751308C0341306C0EF
:10347000611104C080910C02D801C3C04D875E87E2
:103480008D859E856A8B0E94C1186A898823E1F127
:103490006623D1F120910C02822F82958F7090E0EB
:1034A000029774F0809107029091080298878F83A9
:1034B0001986DB86CA862C87CE0107960E94821861
:1034C00086E0F801A7E0B2E001900D928A95E1F75D
:1034D0000E9433190E942519FF24F394D6C04D870A
:1034E0005E878D859E850E94C01D292F22952F7095
:1034F00030E0223031050CF0BCC09F7009F0B6C03E
:10350000805E883008F4C1C0C8010E948218E4CFF0
:10351000C816D90608F453C0F601E81BF90BCF0111
:10352000883C910508F450C0F12C7C2DD98AC88ABA
:1035300089890E94E518E7E0F2E086E0DF011D924C
:103540008A95E9F70E942519A0C0751314C0341399
:1035500012C0611110C080910C02F8018583C8016E
:103560000E94821886E0E7E0F2E0DF011D928A9572
:10357000E9F7FE2C8AC04D875E878D859E856A8B14
:103580000E94C1186A89882309F4BECF662309F412
:10359000BBCF20910C02822F82958F7090E0029712
:1035A0000CF48ECF80910702909108029A83898350
:1035B0001B82DD82CC822E83CE0101967FCF809547
:1035C00090958C0D9D1DACCFF62E662309F49CCFF3
:1035D00075132EC034132CC020910C0220FD1FC087
:1035E000822F82958F70D9F0D80115962C9315975C
:1035F0008F3049F08F5F982F9295907F822F8F7038
:10360000892B15968C93C8010E94821886E0F801D8
:10361000A7E0B2E001900D928A95E1F793CF86E0A2
:10362000F801A7E0B2E001900D928A95E1F72DC074
:103630004D875E878D859E850E94C118811140CF80
:1036400080910C02816080930C02C8010E94821854
:103650001CC0662309F458CF4D875E878D859E85F3
:103660000E94C118882309F44FCF2ACF811148CF77
:103670000CC0243031050CF047CF9F7009F440CFC7
:10368000F8019581907F09F03BCF8F2D62960FB6A0
:10369000F894DEBF0FBECDBFDF91CF911F910F9188
:1036A000FF90EF90DF90CF9008951F93CF93DF931B
:1036B000CDB7DEB72C970FB6F894DEBF0FBECDBFE7
:1036C0004F83588769877A878B879C87CE010796B7
:1036D0000E948E19882369F08F8198852A853B8501
:1036E000232BF1F19F3F09F063C08F3F09F060C0C9
:1036F00037C086E0FE013796DE01119601900D92EB
:103700008A95E1F76F817885EA85FB85309741F1ED
:103710007F3F11F46F3F21F12091D60130E0C901C4
:103720000196877099274091D50150E0841795073D
:1037300009F447C069837A83FD83EC8396E0929F06
:10374000D001939FB00D1124A952BE4FFE013196B6
:1037500001900D929A95E1F78093D6010E94041989
:1037600016E08091D5019091D6018917C1F1189F7B
:10377000C001112489529E4F0E948E19882379F12D
:10378000E091D5011E9FF0011124E952FE4F4081C6
:10379000518162817381848195810E94F4188091A6
:1037A000D50190E00196877099278093D501D9CFF4
:1037B0004F81588569857A858B859C850E94F41890
:1037C000CFCF0E94BD181092D6011092D501E7E02C
:1037D000F2E086E0DF011D928A95E9F7C1CF2C96D1
:1037E0000FB6F894DEBF0FBECDBFDF91CF911F9112
:1037F0000895EF92FF920F931F93CF93DF938C0165
:10380000892B09F46CC0F12CEE24E394E801219695
:10381000F8018491843740F4843008F051C081303D
:1038200081F0823019F15BC0853709F444C0A8F1FA
:103830009CE7980F903708F052C08F770E94981538
:1038400041C00E5F1F4FFE01C49180E28C0F883093
:1038500048F4C7708E2D01C0880FCA95EAF70E9400
:103860005C1E14C08C2F0E94C5142DC00E5F1F4F0C
:10387000FE01C49180E28C0F883058F4C7708E2D01
:1038800001C0880FCA95EAF70E94621E0E94861E38
:103890001AC08C2F0E94981516C00E5F1F4FFE0194
:1038A000C491CC2381F08FE99FE00197F1F700C02C
:1038B0000000C150F6CF0E5F1F4FFE01F49003C011
:1038C0000E94C5148E018F2D882309F49FCFEFE944
:1038D000FFE03197F1F700C000008150F5CFDF9194
:1038E000CF911F910F91FF90EF90089508950E943E
:1038F000761C6093110270931202809313029093CE
:1039000014020C94A91808950C94771C0F931F931C
:1039100000911102109112022091130230911402B1
:10392000602B712B822B932B1F910F910C94771C82
:103930000F931F9300911102109112022091130214
:103940003091140260237123822393231F910F91DE
:103950000C94771C0F931F93009111021091120287
:103960002091130230911402602771278227932738
:103970001F910F910C94771C08950E94BC1C6093BA
:103980000D0270930E0280930F02909310020C941C
:10399000A91860E070E0CB010C94BD1C0F931F933D
:1039A00041E050E060E070E08A019B0104C0000F3C
:1039B000111F221F331F8A95D2F7C901B8011F9129
:1039C0000F910C94BD1C0F931F9341E050E060E0F9
:1039D00070E004C0440F551F661F771F8A95D2F709
:1039E00080910D0290910E02A0910F02B0911002F1
:1039F0008A019B01082B192B2A2B3B2BC901B801EB
:103A00001F910F910C94BD1C0F931F9341E050E048
:103A100060E070E004C0440F551F661F771F8A9551
:103A2000D2F7409550956095709580910D029091D8
:103A30000E02A0910F02B09110028A019B0108238F
:103A400019232A233B23C901B8011F910F910C941C
:103A5000BD1C0F931F9341E050E060E070E004C094
:103A6000440F551F661F771F8A95D2F780910D026C
:103A700090910E02A0910F02B09110028A019B0159
:103A8000082719272A273B27C901B8011F910F9141
:103A90000C94BD1C0F931F9300910D0210910E0208
:103AA00020910F0230911002602B712B822B932BEF
:103AB0001F910F910C94BD1C0F931F9300910D0249
:103AC00010910E0220910F02309110026023712399
:103AD000822393231F910F910C94BD1C0F931F936E
:103AE00000910D0210910E0220910F0230911002F0
:103AF00060277127822793271F910F910C94BD1C7B
:103B00000895CF92DF92EF92FF920F931F93CF937E
:103B1000DF938C01C0901102D0901202E09013024A
:103B2000F090140280910D0290910E02A0910F026C
:103B3000B0911002C82AD92AEA2AFB2ACFE1D0E0A4
:103B4000D701C6010C2E04C0B695A7959795879509
:103B50000A94D2F780FF06C0B8018C2F0E94F909A1
:103B6000019721F4219760F780E001C08C2FDF914D
:103B7000CF911F910F91FF90EF90DF90CF9008951C
:103B8000CF93DF93EC010E94811DBE010E94F909D1
:103B9000DF91CF910895CB010E94C01D08958091BF
:103BA00015028595859585950895809115028770F4
:103BB000089598E0899F90011124262B20931502E7
:103BC0000C94E31C209115028095822380931502AA
:103BD000982F977069F430E0482F082E000C550B91
:103BE0002417350729F08595859585950C94041D36
:103BF000089590911502977081E009F480E008958E
:103C00002091470130914801F90132969FEF40E041
:103C10005191581789F09F3F19F4511101C0942F09
:103C20004F5F4630A9F79F3F39F0F901E90FF11DC9
:103C300097FDFA9582830895089520914701309168
:103C40004801F9013296285F3F4F9081981301C0D7
:103C500010823196E217F307C1F7089581E090E0F2
:103C6000E0914701F0914801E80FF91F1082019699
:103C700088309105A9F7089590912102892B8093AE
:103C80002102089580959091210289238093210239
:103C9000089510922102089590912002892B80931B
:103CA000200208958095909120028923809320021C
:103CB000089510922002089590911F02892B8093FD
:103CC0001F020895809590911F02892380931F02FF
:103CD000089510921F02089580931602089510927D
:103CE00016020895809116020895809147019091DF
:103CF0004801FC0131969C01285F3F4F80E0919183
:103D000091118F5FE217F307D1F70895E091470112
:103D1000F0914801809121028083E0914701F09168
:103D20004801908180912002892B8083E091470196
:103D3000F0914801908180911F02892B80838091AE
:103D40001602882361F0E0914701F09148019081CB
:103D5000892B80830E94751E81111092160280911A
:103D60004701909148010C94A8136DEE7EEF80E01E
:103D700090E00E94BC2C60E082E090E00E949E2CCB
:103D800060E083E090E00E949E2C60E084E090E0A0
:103D90000E949E2C60E085E090E00E949E2C40E016
:103DA00050E0BA0188E090E00C94B02C80E090E004
:103DB0000E94982C21E08D3E9E4F09F020E0822F3A
:103DC000089582E090E00C948A2C83E090E00C94BB
:103DD0008A2C84E090E00C948A2C682F84E090E098
:103DE0000C949E2C80916C02843039F11092230245
:103DF00020E488E190E00FB6F894A89580936000E5
:103E00000FBE2093600080E00E94DC0983B7817FB1
:103E1000846083BF83B7816083BF7894889583B7BC
:103E20008E7F83BF0FB6F894A8958091600088615B
:103E300080936000109260000FBE08950895089569
:103E4000CF930E941E1F0E9499050E941F1FC0E071
:103E50008C2F0E94DA05811104C0CF5FC830C1F7F2
:103E600001C081E0CF9108950E94BD180E949C136B
:103E70000C94DC091F920F920FB60F9211248F93AE
:103E80009F93AF93BF9380912302811113C08091C0
:103E9000620290916302A0916402B0916502419622
:103EA000A11DB11D8093620290936302A0936402EE
:103EB000B0936502BF91AF919F918F910F900FBE0C
:103EC0000F901F90189582E084BD93E095BD9AEF06
:103ED00097BD80936E0008952FB7F8948091620289
:103EE00090916302A0916402B09165022FBF089582
:103EF000CF92DF92EF92FF920F931F932FB7F89418
:103F00004091620250916302609164027091650277
:103F10002FBF6A017B01EE24FF248C0120E030E0FA
:103F2000C016D106E206F30610F4415051099A0179
:103F3000281B390BC9011F910F91FF90EF90DF9063
:103F4000CF90089578941F920F920FB60F9211247C
:103F50008F939F93AF93BF9380916202909163027E
:103F6000A0916402B09165020196A11DB11D8093DC
:103F7000620290936302A0936402B0936502BF91C2
:103F8000AF919F918F910F900FBE0F901F9018953A
:103F900087E797E790930108809300089AE088E10B
:103FA0000FB6F894A895809360000FBE90936000C0
:103FB000FFCF0E94D61E811102C00E94B51E0E9432
:103FC000E11E809322020E94E91E90E09093670216
:103FD000809366020E94E51E682F70E080E090E00A
:103FE0000C94841C8091260280FF0BC060914C01D0
:103FF00085E0689FB0011124759567957595679563
:104000002BC081FF09C060914C0185E0689FB00121
:1040100011247595679520C082FF07C060914C01FF
:1040200085E0689FB001112417C090912702992361
:10403000D1F060914B01961788F720914C0185E0F3
:10404000289F90011124929FA001939F500D11244D
:1040500070E0CA010E94702C6038710540F461154F
:10406000710539F002C065E070E0862F08958FE792
:10407000089581E008958091260280FF08C0609134
:104080004A0170E0759567957595679521C081FF28
:1040900006C060914A0170E07595679519C082FF6E
:1040A00004C060914A0170E010C0909127029923EA
:1040B000C1F0609149019617A0F780914A01899F4C
:1040C000C001112470E00E94702C6038710528F442
:1040D0006115710521F0862F08958FE7089581E01D
:1040E000089561E070E0F4CF803F21F40E94F21F58
:1040F000819504C0813F29F40E94F21F80932A0217
:104100000895823F21F40E94F21F819504C0833FED
:1041100029F40E94F21F809329020895893F19F41F
:104120000E943B2005C08A3F31F40E943B208195CC
:1041300080932B0208958B3F21F40E943B208195B0
:1041400004C08C3F29F40E943B2080932C020895E8
:10415000843F21F480912802816017C0853F21F4BB
:1041600080912802826011C0863F21F4809128024C
:1041700084600BC0873F21F480912802886005C0CD
:10418000883F31F48091280280618093280208954D
:104190008D3F21F48091260281600BC08E3F21F477
:1041A00080912602826005C08F3F29F4809126020B
:1041B0008460809326020895803F39F480912A021A
:1041C00087FF6CC010922A0269C0813F29F4809158
:1041D0002A021816BCF362C090912902823F29F48A
:1041E00097FF5CC01092290259C0833F19F4191639
:1041F000CCF354C0893F41F480912B0218160CF087
:104200004DC010922B024AC08A3F29F480912B02A4
:1042100087FF44C0F6CF8B3F39F480912C0287FF93
:104220003DC010922C023AC08C3F29F480912C02A0
:104230001816BCF333C0843F21F4809128028E7F8E
:1042400017C0853F21F4809128028D7F11C0863FE1
:1042500021F4809128028B7F0BC0873F21F480914D
:104260002802877F05C0883F31F4809128028F7E25
:104270008093280213C08D3F21F4809126028E7F07
:104280000BC08E3F21F4809126028D7F05C08F3FA9
:1042900029F4809126028B7F809326028091290247
:1042A00081110EC080912A0281110AC080912B02D7
:1042B000811106C080912C02811102C01092270248
:1042C000089588E292E00E94B3130E946C1F9093BD
:1042D00025028093240208951F93CF93DF9380914A
:1042E0002402909125020E94781FAC019091270230
:1042F000992321F020914D0130E006C020914E011C
:104300008AE0289F900111244217530708F485C0C2
:1043100080912902C0912A02D0912B0210912C0287
:10432000811107C0C11175C0D11173C0111171C0C5
:1043300074C09F3F19F09F5F90932702181624F4D2
:104340000E94F21F809329028091290287FF05C0F5
:104350000E94F21F8195809329021C1624F40E946A
:10436000F21F80932A0280912A0287FF05C00E94D3
:10437000F21F819580932A0260912902662331F110
:10438000C0912A02CC2311F1062E000C770B880B6A
:10439000990B0E94632B23E333E343E35FE30E9423
:1043A000C72B0E942B2B609329026C2FCC0F770B0D
:1043B000880B990B0E94632B23E333E343E35FE312
:1043C0000E94C72B0E942B2B60932A021D1624F4F7
:1043D0000E943B2080932B0280912B0287FF05C017
:1043E0000E943B20819580932B02111624F40E9499
:1043F0003B2080932C0280912C0287FF05C00E94F5
:104400003B20819580932C02DF91CF911F910C94DA
:1044100061219F3F09F08FCF97CFDF91CF911F91FF
:104420000895E8E2F2E085E0DF011D928A95E9F760
:1044300010922702109226020895833081F128F409
:10444000813059F08230D1F00895853009F449C0A7
:10445000B8F1863009F456C0089580914E01262F98
:1044600030E0280F311D2F3F310524F4680F609391
:104470004E0108958FEF80934E01089580914D0174
:10448000262F30E0280F311D2F3F310524F4680F0F
:1044900060934D0108958FEF80934D0108958091B1
:1044A0004C01262F30E0280F311D2F3F310524F419
:1044B000680F60934C0108958FEF80934C0108952D
:1044C00080914B01262F30E0280F311D2F3F310501
:1044D00024F4680F60934B0108958FEF80934B0194
:1044E000089580914A01262F30E0280F311D2F3F7B
:1044F000310524F4680F60934A0108958FEF80938B
:104500004A01089580914901262F30E0280F311D7E
:104510002F3F310524F4680F6093490108958FEF10
:10452000809349010895833011F128F4813049F0D6
:10453000823091F00895853081F120F18630C1F10B
:10454000089580914E01681720F4861B80934E01D8
:10455000089510924E01089580914D01681720F43E
:10456000861B80934D01089510924D01089580910E
:104570004C01681720F4861B80934C01089510921B
:104580004C01089580914B01681720F4861B80939D
:104590004B01089510924B01089580914A016817CC
:1045A00020F4861B80934A01089510924A010895D1
:1045B00080914901681720F4861B80934901089572
:1045C0001092490108950F931F938732D8F58E31C9
:1045D00008F081C08E3009F46BC098F4873009F47C
:1045E00059C08B3009F48BC0863009F08FC08091A0
:1045F0002202817F8E7F8093220281E080932E02AF
:1046000086C0863109F47BC068F4803109F07EC031
:104610008091220283FB222720F991E0922790FBD0
:1046200083F94FC0893109F46AC08B3109F06EC03B
:104630008091220281FB222720F991E0922790FBB2
:1046400081F93FC0883309F45AC050F4893209F423
:1046500058C0853309F455C0873209F452C056C09A
:10466000833409F44EC028F48A3308F44FC08953C8
:1046700033C0883409F04AC00E94BD180FEF13ED13
:1046800020E3015010402040E1F700C000000E94EC
:10469000C81F35C080912202982F9095917090FB91
:1046A00080F98093220291112AC0897F877F10C0F0
:1046B0008091220282FB222720F991E0922790FB31
:1046C00082F9809322029923D1F0809122028160A5
:1046D0008093220214C08D5141E050E060E070E010
:1046E0008A019B0104C0000F111F221F331F8A95EE
:1046F000D2F7C901B8010E94841C0E94BD1881E054
:1047000006C061E070E080E090E0F5CF80E01F91AE
:104710000F91089580E0089580E008958E518A30C9
:1047200030F4E82FF0E0E859FE4F8081089580E0F2
:104730000895CF93C82F80912E02813069F018F030
:104740008230C9F183C0E0914701F0914801808136
:10475000823209F07DC007C0E0914701F091480125
:104760008081823261F48C2F0E948A23811104C0DF
:104770008C2F0E94E3221DC081E090E01AC08C2F94
:104780000E948C23811114C0C43179F048F4CB30DD
:1047900079F0C03109F060C082E080932E0208C039
:1047A000C93219F0C83321F057C010922E0254C0FC
:1047B00081E0817053C0C93289F118F5C43171F1BB
:1047C000B0F4C73009F046C08EE180934E0182E319
:1047D00080934D018AE080934C0184E180934B01EA
:1047E00088E080934A0188E28093490133C082EED9
:1047F0008C0F863078F58C2F0E948E2380932D02AB
:1048000029C0CE34E9F020F4CB3421F56AE013C09E
:10481000C13579F0C235F1F461E00DC080912D020F
:10482000882319F010922D0215C081E080932E028A
:1048300015C061E006C080912D020E941D220AC0B1
:104840006AE080912D020E94932204C010922E02F1
:1048500080E004C081E002C080E0ABCFCF9108953A
:104860008091370208950F931F93CF93DF9300D069
:104870001F92CDB7DEB78C010E947B26823011F0EB
:10488000843019F593E099831B830A839093E900A0
:104890008FEF9091E800815095FD06C095ED9A95B7
:1048A000F1F700008111F5CF8091E80085FF0DC080
:1048B00040E050E063E070E0CE0101960E9498264F
:1048C0008091E8008E778093E8000F900F900F9012
:1048D000DF91CF911F910F910895CF93DF9300D077
:1048E0001F92CDB7DEB720916C02243031F522E063
:1048F0002983805891099B838A8383E08093E90010
:104900008FEF9091E800815095FD06C095ED9A9546
:10491000F1F700008111F5CF8091E80085FF0DC00F
:1049200040E050E063E070E0CE0101960E949826DE
:104930008091E8008E778093E8000F900F900F90A1
:10494000DF91CF910895CF93DF93EC010E947B26F6
:10495000823011F08430F9F482E08093E9009FEF17
:104960008091E800915085FD06C085ED8A95F1F7AC
:1049700000009111F5CF8091E80085FF0CC040E068
:1049800050E065E070E0CE010E9498268091E8003A
:104990008E778093E800DF91CF910895CF93DF93D6
:1049A000EC010E947B26823011F0843039F581E0E1
:1049B0008093E9009FEF8091E800915085FD06C04B
:1049C00085ED8A95F1F700009111F5CF8091E8000F
:1049D00085FF14C040E050E068E070E0CE010E9426
:1049E00098269091E8009E779093E80098E0FE0169
:1049F000AFE2B2E001900D929A95E1F7DF91CF918D
:104A0000089580916B02811109C00E942D280E9497
:104A10008A288091E20084608093E20008951092D9
:104A20006B020895089508950C94341F42E061ECE0
:104A300081E00E94A72742E061EC82E00E94A72764
:104A400042E061EC83E00C94A72780916E028330F2
:104A500009F453C030F4813071F0823009F48CC015
:104A600008958A3009F478C08B3009F45EC089302B
:104A700009F09AC020C080916D02813A09F094C07B
:104A80008091E800877F8093E80080917102909187
:104A90007202892B21F468E08FE292E003C060E0AB
:104AA00080E090E070E00E94E3268091E8008B7740
:104AB0008093E800089580916D02813209F074C0FE
:104AC0008091710290917202892B09F06DC08091E2
:104AD000E800877F8093E8008091E80082FD05C0B0
:104AE00080916C028111F8CF5FC08091F1008093BA
:104AF00037028091E8008B7753C080916D02813A34
:104B000009F052C08091710290917202892B09F0D4
:104B10004BC08091E800877F8093E8008091E80097
:104B200080FFFCCF8091590136C080916D028132A7
:104B3000D9F58091710290917202892BA9F580912B
:104B4000E800877F8093E8000E94DC2780916F0255
:104B5000809359010C94BD1880916D02813221F52A
:104B60008091E800877F8093E8000E94DC27809195
:104B7000700280933802089580916D02813AA1F409
:104B80008091E800877F8093E8008091E80080FFB3
:104B9000FCCF809138028093F1008091E8008E77FD
:104BA0008093E8000C94DC27089584B7877F84BF46
:104BB0000FB6F894A895809160008861809360009A
:104BC000109260000FBE80E8809361001092610037
:104BD0000E94EA130E942D280E948A288091E200F8
:104BE00084608093E20078940E94102B0E94EC1362
:104BF0008FE491E00E94971380916C02853069F4F4
:104C00000E94F21E80916A028823B1F30E94201F45
:104C1000882391F30E948226EFCF0E94F4130E9412
:104C2000FB11EACF292F332723303105C9F064F473
:104C30002130310581F02230310509F043C084E58F
:104C400090E02CE437E042C021323105F1F022320D
:104C5000310541F137C082E190E020EA37E036C00B
:104C600099278130910541F08230910541F0892BDF
:104C700049F5E8E4F7E005C0E0E3F7E002C0E2E16F
:104C8000F7E0849190E09F0121C06330D8F4E62FD3
:104C9000F0E0EE0FFF1FE558FE4F2081318189E0E3
:104CA00090E014C0633070F470E0FB01EE0FFF1F62
:104CB000EB58FE4F20813181FB01EE58FE4F808181
:104CC00090E004C080E090E020E030E0FA01318321
:104CD000208308950895CF93C82F0E946A26C09319
:104CE0003902CF91089580916C02843011F081E0F7
:104CF000089582E0089580913902811102C00C94D8
:104D00007326089580E189BD82E189BD09B400FE62
:104D1000FDCF8091D8008F7D8093D8008091E000F6
:104D200082608093E0008091E00081FDFCCF0895D7
:104D3000CF92DF92EF92FF920F931F93CF93DF9367
:104D4000EC018B016A010E94FB27811133C0C11461
:104D5000D10439F0F60180819181081B190BC80F2D
:104D6000D91FE12CF12C0115110519F18091E800F2
:104D700085FD16C08091E8008E778093E800C1140D
:104D8000D10449F0F60180819181E80EF91EF1828B
:104D9000E08285E00FC00E94FB27882321F30AC030
:104DA00089918093F10001501109FFEFEF1AFF0A7A
:104DB000DACF80E0DF91CF911F910F91FF90EF90BC
:104DC000DF90CF90089520917302309174022617DE
:104DD000370748F06115710539F42091E8002E7706
:104DE0002093E80001C0B90140E061157105A9F107
:104DF00020916C02222309F443C0253009F442C0FB
:104E00002091E80023FD40C02091E80022FD32C03F
:104E10002091E80020FFE9CF4091F3002091F200BB
:104E200030E0342BFC01CF016115710559F02830B9
:104E3000310540F481918093F100615071092F5F39
:104E40003F4FF1CF41E02830310509F040E020919B
:104E5000E8002E772093E800C8CF4111C9CF0AC0DF
:104E600080916C02882361F0853061F08091E800C8
:104E700083FD0AC08091E80082FFF2CF80E00895B0
:104E800082E0089583E0089581E0089520917302FF
:104E9000309174022617370748F06115710539F40F
:104EA0002091E8002E772093E80001C0B901FC01B1
:104EB00020E06115710591F180916C02882309F45D
:104EC00040C0853009F43FC08091E80083FD3DC0BB
:104ED0008091E80082FD2FC08091E80080FFE9CF3B
:104EE0002091F3008091F20090E0922B6115710502
:104EF00059F08830910540F424912093F1003196C7
:104F0000615071090196F2CF21E0089709F020E085
:104F10008091E8008E778093E800CBCF2111CCCF31
:104F20000AC080916C02882361F0853061F0809125
:104F3000E80083FD0AC08091E80082FFF2CF80E0A4
:104F4000089582E0089583E0089581E00895982F00
:104F5000973058F59093E900981739F07091EC006C
:104F60002091ED005091F00003C0242F762F50E0E7
:104F700021FF19C03091EB003E7F3093EB00309160
:104F8000ED003D7F3093ED003091EB0031603093C8
:104F9000EB007093EC002093ED005093F000209113
:104FA000EE0027FF07C09F5FD3CF8F708093E9008B
:104FB00081E0089580E0089580916D0287FF11C01F
:104FC0008091E80082FD05C080916C028111F8CFCC
:104FD00011C08091E8008B770BC080916C02882310
:104FE00049F08091E80080FFF8CF8091E8008E774B
:104FF0008093E80008952091E4003091E50095E663
:105000004091EC00842F817040FF22C08091E80025
:1050100080FD1CC080916C02882391F0853091F056
:105020008091EB0085FD10C04091E4005091E500B7
:105030004217530729F39A01915011F784E008951C
:1050400082E0089583E0089581E0089580E0089566
:105050004091E80042FFDECF08950E949B280E9405
:10506000A328E0EEF0E0808181608083E8EDF0E04D
:1050700080818F77808319BCA7EDB0E08C918E7F03
:105080008C9380818F7E808310926B0208950F93A2
:105090001F93CF93DF930E949B280E94A328C8ED03
:1050A000D0E088818F778883888180688883888131
:1050B0008F7D888319BC10926C0210926802109246
:1050C0006A021092690200EE10E0F80180818B7F85
:1050D000808388818160888342E060E080E00E9474
:1050E000A727E1EEF0E080818E7F8083E2EEF0E0A2
:1050F000808181608083808188608083F8018081E5
:105100008E7F8083888180618883DF91CF911F911A
:105110000F910895E8EDF0E080818F7E8083E7EDC8
:10512000F0E080818160808384E082BF81E08093B1
:105130006B020C944728E8EDF0E080818E7F80833D
:105140001092E20008951092DA001092E1000895A2
:105150001F920F920FB60F9211242F933F934F93EC
:105160005F936F937F938F939F93AF93BF93EF93CF
:10517000FF938091E10082FF0BC08091E20082FFEB
:1051800007C08091E1008B7F8093E1000E940F2B8C
:105190008091DA0080FF1FC08091D80080FF1BC083
:1051A0008091DA008E7F8093DA008091D90080FFB1
:1051B0000DC080E189BD82E189BD09B400FEFDCF4B
:1051C00081E080936C020E94012505C019BC1092F9
:1051D0006C020E940F258091E10080FF19C0809130
:1051E000E20080FF15C08091E2008E7F8093E20094
:1051F0008091E20080618093E2008091D80080621B
:105200008093D80019BC85E080936C020E9413251E
:105210008091E10084FF30C08091E20084FF2CC0C7
:1052200080E189BD82E189BD09B400FEFDCF809196
:10523000D8008F7D8093D8008091E1008F7E80938D
:10524000E1008091E2008F7E8093E2008091E20095
:1052500081608093E20080916802882311F084E0ED
:1052600007C08091E30087FD02C081E001C083E0B8
:1052700080936C020E9414258091E10083FF29C075
:105280008091E20083FF25C08091E100877F8093B9
:10529000E10082E080936C02109268028091E1004C
:1052A0008E7F8093E1008091E2008E7F8093E20008
:1052B0008091E20080618093E20042E060E080E063
:1052C0000E94A7278091F00088608093F0000E94E0
:1052D0001225FF91EF91BF91AF919F918F917F9197
:1052E0006F915F914F913F912F910F900FBE0F9053
:1052F0001F9018951F920F920FB60F9211242F93A3
:105300003F934F935F936F937F938F939F93AF934D
:10531000BF93CF93DF93EF93FF93C091E900CF70DA
:105320008091EC00D82FD17080FDD0E81092E90078
:105330008091F000877F8093F00078940E94BE29CE
:105340001092E9008091F00088608093F000CD2BEE
:10535000CF70C093E900FF91EF91DF91CF91BF91A2
:10536000AF919F918F917F916F915F914F913F91FD
:105370002F910F900FBE0F901F9018951F93CF93F2
:10538000DF93CDB7DEB7AA970FB6F894DEBF0FBE96
:10539000CDBFEDE6F2E088E08E0F9091F1009193A1
:1053A0008E13FBCF0E9425258091E80083FF1FC14B
:1053B00080916D0290916E02492F50E04A30510564
:1053C00008F015C1FA01E556FF4F0C94842C803883
:1053D00081F0823809F00BC1809171028F70809347
:1053E000E9008091EB0085FB882780F91092E900A5
:1053F00006C08091690290916A0291118260909139
:10540000E800977F9093E8008093F1001092F100FC
:10541000C8C0282F2D7F09F0EAC0882319F08230F8
:1054200061F0E5C080916F02813009F0E0C09330F7
:1054300009F080E080936A022BC080916F02811195
:1054400027C0809171028F7009F4D1C08093E90068
:105450002091EB0020FF1CC0933021F48091EB00E1
:10546000806214C09091EB0090619093EB0021E07A
:1054700030E0A90102C0440F551F8A95E2F740931E
:10548000EA001092EA008091EB0088608093EB00C4
:105490001092E9008091E800877F86C08111A7C043
:1054A00010916F021F778091E3008078812B8093A9
:1054B000E3008091E800877F8093E8000E94DC276A
:1054C0008091E80080FFFCCF8091E30080688093AA
:1054D000E300111102C082E001C083E080936C02FE
:1054E00086C08058823008F082C080916F0290910F
:1054F00070028C3D53E0950779F583E08A838AE258
:1055000089834FB7F894DE01139620E03EE051E224
:10551000E32FF0E050935700E49120FF03C0E295A1
:10552000EF703F5FEF708E2F90E0EA3010F0C7967B
:1055300001C0C0968D939D932F5F243149F74FBFD3
:105540008091E800877F8093E8006AE270E0CE01F6
:1055500001960E94E32614C0AE014F5F5F4F609139
:1055600071020E941226BC01892B09F440C090915F
:10557000E800977F9093E80089819A810E944627EE
:105580008091E8008B778093E80031C0803879F50E
:105590008091E800877F8093E80080916802809383
:1055A000F1008091E8008E778093E8000E94DC276C
:1055B0001EC081111CC090916F029230C0F4809186
:1055C000E800877F8093E800909368020E94DC27C0
:1055D00080916802811106C08091E30087FD02C0BE
:1055E00081E001C084E080936C020E9416258091C6
:1055F000E80083FF0AC08091E800877F8093E8007D
:105600008091EB0080628093EB00AA960FB6F8942D
:10561000DEBF0FBECDBFDF91CF911F9108950895DA
:10562000CF9380916C028823A1F0C091E900CF70E4
:105630009091EC00892F817090FD80E8C82B10922A
:10564000E9008091E80083FD0E94BE29CF70C093DD
:10565000E900CF9108950E94322B6894B1110C9407
:10566000C12B08950E94A62B88F09F5798F0B92F60
:105670009927B751B0F0E1F0660F771F881F991F87
:105680001AF0BA95C9F714C0B13091F00E94C02B3E
:10569000B1E008950C94C02B672F782F8827B85F4E
:1056A00039F0B93FCCF3869577956795B395D9F7DF
:1056B0003EF490958095709561957F4F8F4F9F4FE9
:1056C0000895E89409C097FB3EF4909580957095F5
:1056D00061957F4F8F4F9F4F9923A9F0F92F96E93E
:1056E000BB279395F695879577956795B795F111B3
:1056F000F8CFFAF4BB0F11F460FF1BC06F5F7F4F50
:105700008F4F9F4F16C0882311F096E911C0772361
:1057100021F09EE8872F762F05C0662371F096E86A
:10572000862F70E060E02AF09A95660F771F881F39
:10573000DAF7880F9695879597F9089557FD905851
:10574000440F551F59F05F3F71F04795880F97FB45
:10575000991F61F09F3F79F08795089512161306FF
:105760001406551FF2CF4695F1DF08C0161617062E
:105770001806991FF1CF8695710561050894089563
:10578000E894BB2766277727CB0197F908950E94F5
:10579000DA2B0C944B2C0E943D2C38F00E94442CA8
:1057A00020F0952311F00C94342C0C943A2C1124F5
:1057B0000C94C12B0E949E2B70F3959FC1F3950F03
:1057C00050E0551F629FF001729FBB27F00DB11D85
:1057D000639FAA27F00DB11DAA1F649F6627B00D15
:1057E000A11D661F829F2227B00DA11D621F739FFE
:1057F000B00DA11D621F839FA00D611D221F749F0C
:105800003327A00D611D231F849F600D211D822F52
:10581000762F6A2F11249F5750409AF0F1F0882379
:105820004AF0EE0FFF1FBB1F661F771F881F9150A6
:105830005040A9F79E3F510580F00C94342C0C94F5
:10584000C12B5F3FE4F3983ED4F386957795679537
:10585000B795F795E7959F5FC1F7FE2B880F911DD0
:105860009695879597F9089597F99F6780E870E076
:1058700060E008959FEF80EC089500240A941616C6
:10588000170618060906089500240A94121613062E
:10589000140605060895092E0394000C11F48823BC
:1058A00052F0BB0F40F4BF2B11F460FF04C06F5FD8
:1058B0007F4F8F4F9F4F0895AA1BBB1B51E107C01D
:1058C000AA1FBB1FA617B70710F0A61BB70B881F90
:1058D000991F5A95A9F780959095BC01CD0108951F
:1058E00097FB072E16F4009407D077FD09D00E948D
:1058F0005C2C07FC05D03EF4909581959F4F089550
:10590000709561957F4F0895EE0FFF1F0590F491FC
:10591000E02D0994F999FECF92BD81BDF89A99279F
:1059200080B50895A6E1B0E044E050E00C94C42CAA
:10593000A8E1B0E042E050E00C94C42C262FF99985
:10594000FECF92BD81BDF89A019700B4021639F0DE
:105950001FBA20BD0FB6F894FA9AF99A0FBE0895AF
:105960000396272F0E949F2C0E949E2C252F0E9479
:105970009F2C242F0C949F2C0196272F0E949F2C44
:105980000C949E2CDC01CB01FC01F999FECF06C0E2
:10599000F2BDE1BDF89A319600B40D9241505040ED
:0859A000B8F70895F894FFCF59
:1059A80005019D0000004E125E120000000000007C
:1059B800000000000041010000000000000000009D
:1059C8000000000000000000000000004E125E12FF
:1059D80000000000000000000000003D01AE00A82B
:1059E80000E1003900FFFF17022808140A321E30B0
:1059F80024CE24A3246D24332401F6F73133323620
:105A080097C63435000000000102030405060708A4
:105A18000900404D363508E807B2075E077707905A
:025A2800070075
:00000001FF
